:100000000C9454000C94410E0C94680E0C947C00DB
:100010000C947C000C947C000C947C000C947C0070
:100020000C947C000C94D60C0C947C000C947C00FA
:100030000C947C000C947C000C947C000C947C0050
:100040000C943B0D0C947C000C94DD0E0C940A0F68
:100050000C947C000C947C000C947C000C947C0030
:100060000C947C000C947C00010204081020408059
:1000700001020408102001020408102004040404F2
:100080000404040402020202020203030303030342
:1000900000000000250028002B00000000002400C4
:1000A00027002A003B0E300F11241FBECFEFD8E0EF
:1000B000DEBFCDBF13E0A0E0B1E0E4E9F7E202C0AB
:1000C00005900D92A43BB107D9F726E0A4EBB3E06D
:1000D00001C01D92AC3EB207E1F710E0C4E5D0E0EC
:1000E00004C02197FE010E94C213C235D107C9F78F
:1000F0000E942C0E0C94C8130C940000E4E10E94A2
:1001000033010895E2E10E9433010895EAE00E947C
:1001100033010895E1E00E9433010895E3E00E9475
:1001200033010895E7E00E9433010895E5E00E945D
:1001300033010895E0E00E9433010895E2E00E9457
:1001400033010895E4E00E9433010895ECE00E9439
:1001500033010895EBE10E9433010895EEE00E941F
:1001600033010895E8E00E9433010895E0E10E9420
:1001700033010895EAE10E9433010895E6E00E9408
:1001800033010895E8E10E9433010895E9E00E94F7
:1001900033010895EBE00E9433010895EDE00E94E1
:1001A00033010895EFE00E9433010895E1E10E94D8
:1001B00033010895E3E10E9433010895E5E10E94CF
:1001C00033010895E7E10E9433010895E9E10E94B7
:1001D00033010895E6E10E943301089521968A9241
:1001E0009A92AA92BA92CA92DA92EA92FA920A93EE
:1001F0001A932197E0916D01F0916E010080F181D9
:10020000E02DC083D1830895C0916F01D09170011A
:10021000E881F981C081D181219619910991F990E4
:10022000E990D990C990B990A99099908990219717
:1002300008952F903F90E7E6F1E0CDB7DEB7EDBF30
:10024000FEBF3F922F9208952F903F90CDBFDEBF0B
:100250003F922F920895E0E80E9433010895E0E470
:100260000E94330108952F923F924F925F926F92B6
:100270007F922FB62F92CF93DF937E2EF894E0914A
:100280000001EF5FE0930001E13011F40E941901D9
:10029000E0E0E0937D01E72DE07849F00E94D6058B
:1002A000F0917E01F17071F00E9462040BC0E72DA5
:1002B000EC3140F4EE0FF0E0E659FC4F0190F08194
:1002C000E02D0995F0917D01EF2FE17059F0F2706A
:1002D00011F00E94EE008F938F2F0E9449038F919F
:1002E0000E9404012091000121502093000122234B
:1002F00011F40E942401DF91CF912F902FBE7F90A7
:100300006F905F904F903F902F900895FC01408137
:10031000FB013081842F8F7090E0A0E0B0E0B695B3
:10032000A7959795879583539C4FFC012081F42FC7
:10033000F21B2F2F21704E70242B832F8F7090E093
:10034000A0E0B0E0B695A7959795879583539C4F0D
:10035000FC019081F32FF91B9F2F91703E70932B1E
:1003600041E050E0291708F040E0CA0108958F925B
:100370009F92AF92BF92EF92FF920F931F93CF93F2
:10038000DF937C014A015B01B694A794979487940C
:10039000423051056105710580F08A01000F111F7F
:1003A0000E0D1F1DE401CC0FDD1FCE0DDF1DB801AA
:1003B000CE010E948601892B59F4DF91CF911F91C4
:1003C0000F91FF90EF90BF90AF909F908F90089506
:1003D000F80190818181288139812083318398833C
:1003E0008983A401B501D0CF7F928F929F92AF9263
:1003F000BF92CF92DF92EF92FF920F931F93CF9312
:10040000DF938C014A015B01FC017080640175017E
:10041000CC0CDD1CEE1CFF1C7C141D041E041F04F0
:1004200070F4DF91CF911F910F91FF90EF90DF90CB
:10043000CF90BF90AF909F908F907F900895C6010E
:10044000D7010196A11DB11D781619061A061B06C3
:1004500098F0BC01660F771F600F711FC601880FEF
:10046000991F800F911F0E948601092E000C000821
:10047000C80ED91EE01CF01CE601CC0FDD1FC00F1A
:10048000D11F880C991C800E911EBE01C4010E94D0
:100490008601892B31F2F401908181812881398193
:1004A000208331839883898346015701AFCF4091E0
:1004B000D4034F5F4093D40350E060E070E0E82F36
:1004C000EE0FFF0BE55FFC4F0190F081E02D2385DF
:1004D000E22FF0E0E353FC4F908191509083FA01BA
:1004E000EE0FFF1FEC52FC4F9170220F922B908366
:1004F000818384ED93E00C94B7014091D4034F5F66
:100500004093D40350E060E070E0FA01EE0FFF1F6B
:10051000EC52FC4FA82FAA0FBB0BAF5FBC4F0D9046
:10052000BC91A02D13969C919083818384ED93E0E0
:100530000C94B701CF93DF9300D0CDB7DEB7809195
:10054000D4039FEF980F9093D4039091D6039A838E
:100550009091D703998390E0880F991FFC01EC528A
:10056000FC4F808191818093D6039093D70341E023
:1005700050E060E070E084ED93E00E94F4018A8135
:1005800099810F900F90DF91CF9108958091B403DE
:10059000811115C0409175015091760160917701EC
:1005A000709178014F3F54076407740751F081E060
:1005B000443051056105710524F082E0089584E01E
:1005C00008950895CF93DF93880F990BFC01E55FA1
:1005D000FC4F0190F081E02D0084F185E02D3097F3
:1005E000C9F02281211116C021E022838F5F9C4F28
:1005F000EC01A881B98113968C9181839081E92FB8
:10060000F0E0E353FC4F8081815080838170990F2B
:10061000892B8C93DF91CF910895CF93DF93880F2F
:10062000990BFC01E55FFC4F0190F081E02D008407
:10063000F185E02D309761F02281213049F412825A
:100640008F5F9C4FEC01A881B981818113968C93B7
:10065000DF91CF9108958091790190917A01A091D5
:100660007B01B0917C0140917501509176016091C0
:10067000770170917801481759076A077B0741F0A5
:10068000E0917301F091740121E024830C947D02C8
:100690000895CF93DF93C0E0D0E0811589F0C09139
:1006A0006D01D0916E01E0917101F0917201848130
:1006B000833031F081E08483809175010E947D0256
:1006C000E0917301F0917401E0937101F093720174
:1006D00080916F019091700180936D0190936E01F4
:1006E0008091790130917A0120917B0190917C0178
:1006F0008093750130937601209377019093780170
:1007000092E094830E94E202CE01DF91CF9108959E
:10071000CF92DF92EF92FF92C0907501D090760158
:10072000E0907701F09078018C2D0E940D03E0910C
:100730007101F091720182818115B9F085E08483A5
:1007400082E0C816D104E104F10454F4F601EE0F7E
:10075000FF1FE350FD4F0190F081E02D11821082C8
:10076000FF90EF90DF90CF9008951482F9CFCF9350
:10077000DF93282F220F330BF901EF5FFC4FC0816D
:10078000D1819A81F901E55FFC4F0190F081E02D64
:1007900044859417C8F491110EC095E09C83823073
:1007A0003CF423503D4FD901ED91FD91118210820F
:1007B00091E090937E010E9457028A818F5F8A8325
:1007C00080E0DF91CF91089584E0FBCFCF93E82FB5
:1007D000EE0FFF0BEF5FFC4F0190F081E02DC1E0C9
:1007E000C4830E945702C0937E01CF910895282FA1
:1007F000220F330BF901EF5FFC4F0190F081E02DE8
:100800004481411599F023503D4FD901ED91FD915F
:100810009081962B90839181692311F480E0089553
:1008200011824330D9F70E94E603F8CF87E008959C
:10083000E82FEE0FFF0BEF5FFC4F0190F081E02DF2
:10084000108211820C94D60DCF93DF9300D00F92BB
:10085000CDB7DEB70E949A028983892F592F550F91
:10086000550B9093790150937A0150937B015093EB
:100870007C01292F220F330BF901EF5FFC4F4081E0
:1008800051814A835B834093730150937401255FC8
:100890003C4FF9012081318120936F013093700129
:1008A000FA019481953031F40E9418044981EA815B
:1008B000FB81438310927E010F900F900F90DF9188
:1008C000CF910895E0917901F0917A01EE0FFF1F29
:1008D000EF5FFC4F0190F081E02D8091D603938172
:1008E000981740F40E942B030E94240483E0809315
:1008F0007D01089580E0FBCF1F93CF93DF93CDE67A
:10090000D1E0EC81FD8113E0148388850E940D0302
:10091000188BDF91CF911F910C94240481E0809378
:100920007D010C9424040F931F93CF93DF93C1E0B8
:1009300001C0CC0F8A95EAF720911303309114037C
:100940008091090390910A031092D40310926D01D3
:1009500010926E0120936F0130937001109271011B
:10096000109272018093730190937401AFEFBFEF07
:10097000CD018093750190937601A0937701B09398
:1009800078018093790190937A01A0937B01B093D1
:100990007C0110927D0110927E0184E00E94B703D9
:1009A00005E613E0D0E0F80181918F018C2319F066
:1009B0008D2F0E94B703DF5FD430A9F780E090E06D
:1009C00020916403C2230091F2021091F302D1E05E
:1009D000892B29F0DF91CF911F910F910895C115B7
:1009E000C9F3F801D687C8010E94230581E090E091
:1009F000EFCF0E94B90681110E94D906E0917101E2
:100A0000F091720180819181892B21F08091750193
:100A10000E94AD080C9404080E94B90681110E943E
:100A2000D906E0917101F091720180819181892B49
:100A300021F0809175010E94AD080C94E90781E0D6
:100A40008093B5030895CF92DF92EF92FF920F93B8
:100A50001F93CF93DF93FC01A081B1810D90BC91D6
:100A6000A02D54962D913D9156972115310509F4ED
:100A700041C0428553856485758500E010E0E90139
:100A8000CA84DB84EC84FD844C155D056E057F050E
:100A900008F042C0C90182839383048315830097C1
:100AA00019F0EC01EC83FD8301151105F1F1E8016A
:100AB000EA83FB835696CD91DD910A851B852C85B3
:100AC0003D851897CD90DD90ED90FD9054970C15D5
:100AD0001D052E053F0570F5C416D506E606F7067A
:100AE00028F0401751076207730768F45696ED9394
:100AF000FD9309C054968D93FD938D93FD931482BD
:100B0000158212821382DF91CF911F910F91FF9076
:100B1000EF90DF90CF900895E9018A819B81890150
:100B2000009709F4B8CF9C01AACF5496ED93FD939A
:100B30005697C0CFC416D506E606F70620F7D1CFE4
:100B4000CF93DF93DC01ED91FD9112970190F0813D
:100B5000E02D12960D90BC91A02D2489358928177F
:100B6000390711F4A48BB58B2689378928173907E3
:100B700019F4A68BB78B9D01109739F0EC014C81CD
:100B80005D8114964D935D931697EC018C819D8148
:100B9000009719F0EC01AA83BB83232B21F48489ED
:100BA0009589868B978BDF91CF910895EF92FF9275
:100BB0000F931F93CF93DF93EC018091B5038115C1
:100BC00009F4A7C08C859D85AE85BF850196A11DC2
:100BD000B11D8C879D87AE87BF87488159816A8107
:100BE0007B8184179507A607B70709F092C088890B
:100BF0009989AA89BB890196A11DB11D4C815D818E
:100C00006E817F81481759076A077B0718F4A0E0B7
:100C1000B0E0CD01888B998BAA8BBB8B1C861D867F
:100C20001E861F860E891F890115110509F471C0E2
:100C3000F8014285538564857585481759076A0709
:100C40007B0709F066C09F010280F381E02D309799
:100C500049F0428553856485758584179507A607F5
:100C6000B70789F3D80114968D919D91009721F0D3
:100C7000DC011296ED93FD93309711F084839583F8
:100C80008C899D890817190711F4EC8BFD8B30971F
:100C900011F4EC89FD89EE8BFF8BF901128213822E
:100CA0007801D80112960D911D911497ED91FD9147
:100CB0000280F381E02DC7010995F70186819781B4
:100CC000A085B18510979040804051F142855385B1
:100CD00064857585840F951FA61FB71F4C815D81A4
:100CE0006E817F81481759076A077B0738F4841B98
:100CF000950BA60BB70B0197A109B109F7018287E4
:100D00009387A487B587C7010E94230501151105A4
:100D100039F6DF91CF911F910F91FF90EF900895D9
:100D2000D7011E961C92F2CFFC0182810C94B7036E
:100D30000E94B906809168010895809368010E941D
:100D400093040E941F050C948E040C94D50DCF9330
:100D5000DF930F92CDB7DEB789830E94C60281115F
:100D600002C00E94220E89810F90DF91CF910C94D6
:100D700082002091C2032130D1F04091BA035091FA
:100D8000BB036091BC037091BD038091BE03909141
:100D9000BF03A091C003B091C103842B952BA62B58
:100DA000B72B21E0892B8A2B8B2B09F420E0822F93
:100DB00008951092C2031092BE031092BF031092C6
:100DC000C0031092C1031092BA031092BB03109299
:100DD000BC031092BD038091B6039091B703A0911C
:100DE000B803B091B9038093C3039093C403A09355
:100DF000C503B093C60308950E94250E8091C303D6
:100E00009091C403A091C503B091C6030196A11DA2
:100E1000B11D8093C3039093C403A093C503B09303
:100E2000C6038091BE039091BF03A091C003B0910F
:100E3000C1030196A11DB11D8093BE039093BF0312
:100E4000A093C003B093C10308958091BE03909115
:100E5000BF03A091C003B091C103109790408040A0
:100E600069F14091C3035091C4036091C50370912F
:100E7000C60341505109610971094093C30350935E
:100E8000C4036093C5037093C6030197A109B10918
:100E90008093BE039093BF03A093C003B093C1039C
:100EA0008091C3039091C403A091C503B091C60380
:100EB000892B8A2B8B2B11F40C94230E089580918F
:100EC000BE039091BF03A091C003B091C1034091B4
:100ED000BA035091BB036091BC037091BD03842B96
:100EE000952BA62BB72B892B8A2B8B2B29F40E94B1
:100EF000250E81E08093C20308958091C20381157D
:100F000021F01092C2030C94230E08950E94290E22
:100F10008091C3039091C403A091C503B091C6030F
:100F20000196A11DB11D8093C3039093C403A093A8
:100F3000C503B093C6038091BA039091BB03A091FF
:100F4000BC03B091BD030196A11DB11D8093BA03EE
:100F50009093BB03A093BC03B093BD03089580910D
:100F6000BA039091BB03A091BC03B091BD0310974D
:100F70009040804069F14091C3035091C403609157
:100F8000C5037091C603415051096109710940932D
:100F9000C3035093C4036093C5037093C6030197C2
:100FA000A109B1098093BA039093BB03A093BC033A
:100FB000B093BD038091C3039091C403A091C50376
:100FC000B091C603892B8A2B8B2B11F40C94270E1E
:100FD00008950E94B906811183E10895CF93DF93AC
:100FE0000F92CDB7DEB789830E94B90689810E942E
:100FF000B703898380917E0181110E9462048981F7
:101000000F90DF91CF910895CF930E94B906C82F1A
:101010008111C3E1E0917101F091720182818150EF
:1010200082830E94880381E080937D010E942404D2
:101030008C2FCF910895CF93DF930F92CDB7DEB76A
:1010400089830E94B906E0917101F0917201828159
:101050008150828389810E94B703898381110CC0EA
:101060000E94880381E080937D010E94240489818D
:101070000F90DF91CF910895E0917101F09172018D
:1010800082818F5F8283F3CFCF930E94B906C82FEE
:101090008111C3E1809175010E940D030E946204D9
:1010A0008091750190917601A0917701B0917801BE
:1010B0004091790150917A0160917B0170917C019E
:1010C00084179507A607B70711F40E94E2028C2F38
:1010D000CF910895CF93DF9300D0CDB7DEB789834A
:1010E0009A830E94B906811183E140917501509164
:1010F0007601609177017091780144305105610566
:10110000710514F04091E001E981FA8140830F906C
:101110000F90DF91CF910895CF93DF9300D00F927E
:10112000CDB7DEB789836A837B830E94B9068111BC
:1011300083E19981E92FEE0FFF0BEF5FFC4F0190E8
:10114000F081E02D94819370EA81FB8190830F9070
:101150000F900F90DF91CF910895E82FEE0FFF0BC6
:10116000EF5FFC4FA081B181ED91FD911297309717
:1011700071F01D921D928091E001DF010380F481E6
:10118000E02D12968D931D921D923097B1F7089520
:10119000CF93DF930F92CDB7DEB789830E94B90654
:1011A000811183E19981E92FF0E0EE0FFF1FE55AED
:1011B000FC4F0190F081E02D909175019283A091F8
:1011C0007101B09172012D913D9123833483FE937F
:1011D000EE9313962C9113972183908126952917CE
:1011E00060F4E92FF0E0E353FC4F2081215020838D
:1011F000990F2170922B13969C930F90DF91CF91B2
:101200000895CF93DF9300D0CDB7DEB789830E94D6
:10121000B9068A83811511F083E18A838981E82FD9
:10122000F0E0EE0FFF1FE55AFC4F0190F081E02D3A
:10123000A0917101B0917201818113968C931397E3
:10124000838194818D939D93138214828091E00118
:1012500082830E9462048A810F900F90DF91CF9168
:101260000895CF93DF9300D0CDB7DEB789836A832B
:101270000E94B9066A8189810E94F70389838111DE
:1012800005C080917E0181110E94620489810F90C6
:101290000F90DF91CF910895CF93DF930F92CDB749
:1012A000DEB789830E94B906811183E1E09175015F
:1012B000EE0FFF0BE350FD4F0190F081E02D2981EF
:1012C00020959081922390830F90DF91CF91089584
:1012D000CF93DF9300D00F92CDB7DEB789836A83B7
:1012E0007B830E94B906811183E19981E92FEE0F7A
:1012F000FF0BE350FD4F0190F081E02D9081EA81DA
:10130000FB8190830F900F900F90DF91CF91089504
:101310000F931F93CF93DF93C82FE0917501F09146
:101320007601EE0FFF1FE350FD4F008111810E94F7
:10133000B906D82F8111D3E1F801C1838081C82378
:1013400011F40E947C048D2FDF91CF911F910F919A
:101350000895DC01ED91FD9184819581DC01ED9191
:10136000FD910994CF93DF9300D00F92CDB7DEB7F4
:1013700089836A837B830E94B906811183E1998105
:10138000E92FF0E0EE0FFF1FEE50FD4F0190F081CE
:10139000E02D0190F081E02D0190F081E02D408161
:1013A000518162817381AA81BB8114964D935D93B3
:1013B0006D937D93189744815581668177814D9314
:1013C0005D936D937D9314974085518562857385F8
:1013D000FD0140875187628773870F900F900F90B0
:1013E000DF91CF910895CF92DF92EF92FF920F930A
:1013F0001F93CF93DF9300D0CDB7DEB7182F69834B
:101400007A830E94B906811183E1E12FF0E0EE0FAB
:10141000FF1FEE50FD4F0190F081E02D9685913039
:1014200081F542855385648575850190F081E02DB5
:101430000190F081E02D00891189228933894017BC
:1014400051076207730740F4C480D580E680F780B7
:101450004C0D5D1D6E1D7F1D401B510B620B730BF0
:10146000E981FA8140835183628373830F900F90E7
:10147000DF91CF911F910F91FF90EF90DF90CF9070
:10148000089585E0F3CFAF92BF92CF92DF92EF92B3
:10149000FF920F931F93CF93DF9300D000D000D023
:1014A000CDB7DEB789834A835B836C837D83780104
:1014B00089010E94B9068E83811511F083E18E8324
:1014C000A980EA2DF0E0EE0FFF1FEE50FD4F0190D6
:1014D000F081E02D8685811145C0A081B1810D90FC
:1014E000BC91A02D50964D915D916D917D91549739
:1014F000AA80BB80CC80DD804A0D5B1D6C1D7D1DEC
:1015000014968D919D910D90BC91A02D84179507F7
:10151000A607B70740F4481B590B6A0B7B0B4150D9
:101520005109610971094287538764877587E6828B
:10153000F7820087118781E08687CF010E9423050B
:101540008E810F900F900F900F900F900F90DF9162
:10155000CF911F910F91FF90EF90DF90CF90BF90B0
:10156000AF90089587E08E83EBCFEF92FF920F93B9
:101570001F93CF93DF9300D000D000D0CDB7DEB75C
:1015800089834A835B836C837D83780189010E9410
:10159000B9068E83811511F083E18E839981E92F3D
:1015A000F0E0EE0FFF1FEE50FD4F0190F081E02DB7
:1015B000868581111FC08A819B81AC81BD81828714
:1015C0009387A487B587E682F7820087118781E039
:1015D0008687CF010E9423058E810F900F900F9078
:1015E0000F900F900F90DF91CF911F910F91FF906F
:1015F000EF90089597E09E83EFCF0F931F93CF93C3
:10160000182F0E94B906C82F8111C3E1E12FF0E025
:10161000EE0FFF1FEE50FD4F00811181F80186850E
:10162000813051F4C8010E94A005F80116868C2F64
:10163000CF911F910F910895C5E0F9CF8F929F929E
:10164000AF92BF92CF92DF92EF92FF92CF93DF9350
:1016500000D000D0CDB7DEB769837A838B839C83BB
:101660000E94930D6B017C010E94930D69817A8128
:101670008B819C8124E130E040E050E00E946113C6
:1016800029833A834B835C83A12CB12C450189814A
:101690009A81AB81BC8188169906AA06BB0679F4AB
:1016A0000F900F900F900F90DF91CF91FF90EF90E0
:1016B000DF90CF90BF90AF909F908F9008950E9441
:1016C000930D6C197D098E099F096431710581059F
:1016D0009105A8F38FEF881A980AA80AB80A0E9401
:1016E000930D6B017C01D3CFCF93DF93CDB7DEB7E2
:1016F000A0970FB6F894DEBF0FBECDBF9E012B5D45
:101700003F4FF901419151919F0160E270E0CE019C
:1017100001960E949A10BE016F5F7F4F8FE496E0A2
:101720000E94DB0EA0960FB6F894DEBF0FBECDBFB1
:10173000DF91CF9108951092B0001092B2008CE02A
:101740008093B10089EF8093B300E0E7F0E08081FF
:10175000816080837894089561E08DE00E94010D9E
:1017600026E040E052EC61E070E08FE496E00E94F9
:101770001D1081EE91E09F938F930E94740B83EF75
:1017800091E09F938F930E94740B82EE91E09F9360
:101790008F930E94740B0F900F900F900F900F90EB
:1017A0000F900C949B0BCF93DF930F92CDB7DEB7C6
:1017B00084E092E09F938F930E94740B68EE73E035
:1017C00080E090E00E941E0B84E192E09F938F9353
:1017D0000E94740B8091620389830E94C2008AE296
:1017E00092E09F938F930E94740B68EB7BE080E004
:1017F00090E00E941E0B80E492E09F938F930E94E2
:10180000740B89810E94C60068EE73E080E090E06E
:101810000E941E0B8AE592E09F938F930E94740BA7
:101820000FB6F894DEBF0FBECDBF0F90DF91CF9102
:101830000C94AA0088E692E09F938F930E94740B09
:1018400068EB7BE080E090E00E941E0B88E792E06E
:101850009F938F930E94740B0F900F900F900F9097
:101860000C94AA00CF93DF930F92CDB7DEB786E832
:1018700092E09F938F930E94740B68EB7BE080E073
:1018800090E00E941E0B86E992E09F938F930E9446
:10189000740B8091620389830E94C2008CEA92E0FB
:1018A0009F938F930E94740B68E273E280E090E054
:1018B0000E941E0B82EC92E09F938F930E94740B08
:1018C00089810E94C60068EE73E080E090E00E948B
:1018D0001E0B8CED92E09F938F930E94740B0FB6BA
:1018E000F894DEBF0FBECDBF0F90DF91CF910C9467
:1018F000AA008091690190916A01A0916B01B09159
:101900006C01AC01BD014F5F5F4F6F4F7F4F409344
:10191000690150936A0160936B0170936C01BF93EE
:10192000AF939F938F938AEE92E09F938F930E9441
:10193000740B8091690190916A01A0916B01B09143
:101940006C010F900F900F900F900F900F908E3FA3
:101950002FEF9207A907B90741F46091630387EC61
:1019600093E00E94CD0C0C94AA0010979040804008
:1019700029F4809161030E94A600F5CF853091057E
:10198000A105B10519F480916003F5CF109790403F
:10199000884049F780915F03EECFFC0110821182ED
:1019A0008FEF858364831282138208951F920F92B2
:1019B0000FB60F9211242F933F934F935F936F9322
:1019C0007F938F939F93AF93BF93EF93FF938AEB94
:1019D00091E00E942B01FF91EF91BF91AF919F91F8
:1019E0008F917F916F915F914F913F912F910F90C8
:1019F0000FBE0F901F90189582EA91E00C942B0176
:101A00000895CF93DF9390E0FC01E859FF4F2491B4
:101A100084589F4FFC0184918115C9F090E0880F94
:101A2000991FFC01E656FF4FA591B591FC01E057C7
:101A3000FF4FC591D5919FB761110CC0F8948C915F
:101A4000209582238C938881282328839FBFDF9150
:101A5000CF910895623051F4F8943C91822F809593
:101A600083238C938881822B8883F0CFF8948C9188
:101A7000822B8C93EBCF1F920F920FB60F921124F3
:101A80002F933F934F935F936F937F938F939F9386
:101A9000AF93BF93EF93FF938091460690914706D3
:101AA000A0914806B09149063091450623E0230FE6
:101AB0002D3798F50196A11DB11D20934506809301
:101AC000460690934706A0934806B0934906809136
:101AD0004A0690914B06A0914C06B0914D06019696
:101AE000A11DB11D80934A0690934B06A0934C060E
:101AF000B0934D060E94FC0CFF91EF91BF91AF9106
:101B00009F918F917F916F915F914F913F912F9115
:101B10000F900FBE0F901F90189526E8230F029686
:101B2000A11DB11DCACF2FB7F894609146067091E0
:101B3000470680914806909149062FBF089584B5C5
:101B4000826084BD84B5816084BD85B5826085BDB9
:101B500085B5816085BDEEE6F0E08081816080839F
:101B6000E1E810828081826080838081816080834F
:101B7000E0E8808181608083E1EB80818460808304
:101B8000E0EB808181608083EAE7808184608083EC
:101B90008081826080838081816080838081806891
:101BA00080831092C1000895FFCFFFCFCF93DF93C2
:101BB000E82FEE0FFF0BE55FFC4FA081B18114967B
:101BC0008D919D9101971497ED91FD91E80FF91F6B
:101BD00019968C911D97823079F582EA90E0892FD1
:101BE00022EA30E020839F0121503109E9018883F6
:101BF00016963D912C911797CF010297EC013883EF
:101C00000197EC012883069726E0EC0119922A95AA
:101C1000E9F7019720E8EC0128830C972CE0EC0110
:101C200019922A95E9F70D90BC91A02D7797ED9325
:101C3000FD93DF91CF9108958EEB90E0892F2EEBED
:101C400030E0D0CF089578940895F894089578946A
:101C50000895F894089508950E949F0D0E942B0EF8
:101C60000E94000D0E94AC0B80914E060E94A706B8
:101C700080E090E008958091690380934E06089576
:101C800008951F920F920FB60F9211242F933F9336
:101C90004F935F936F937F938F939F93AF93BF9374
:101CA000EF93FF93E091DC01F091DD010995FF9145
:101CB000EF91BF91AF919F918F917F916F915F91C4
:101CC0004F913F912F910F900FBE0F901F9018953D
:101CD0001F920F920FB60F9211242F933F934F93A1
:101CE0005F936F937F938F939F93AF93BF93EF9384
:101CF000FF93E091DE01F091DF010995FF91EF91F3
:101D0000BF91AF919F918F917F916F915F914F9113
:101D10003F912F910F900FBE0F901F9018950F932A
:101D20001F93CF93DF9300D000D000D0CDB7DEB7A4
:101D300089839A834B835C836D837E8300E010E00C
:101D4000AB81BC810A171B0761F4C8010F900F908B
:101D50000F900F900F900F90DF91CF911F910F91E7
:101D60000895A981BA81ED91FD910190F081E02D56
:101D7000AD81BE816C9189819A810995892B29F366
:101D80008D819E8101968D839E830F5F1F4FD8CFDB
:101D9000DC016115710561F0ED91FD9112972281D1
:101DA0003381CB010E949110AC01CD01F90109945E
:101DB00080E090E008950C94C80E2F932FB72F93D6
:101DC0008F939F93EF93FF93E0915F06F0916006EE
:101DD0008081E0916506F091660682FD19C09081D0
:101DE000809168068F5F8F7320916906821741F09A
:101DF000E0916806F0E0E15BF94F958F809368060B
:101E0000FF91EF919F918F912F912FBF2F91189557
:101E10008081F6CF1F920F920FB60F9211242F934D
:101E20003F934F935F936F937F938F939F93AF9362
:101E3000BF93EF93FF938FE496E00E94900FFF9182
:101E4000EF91BF91AF919F918F917F916F915F9132
:101E50004F913F912F910F900FBE0F901F901895AB
:101E6000EFE4F6E01282138288EE93E08483958398
:101E70001682178286EA93E08083918385EC8487BB
:101E8000158684EC8687178680EC808B118A81EC1E
:101E9000828B138A82EC848B158A86EC868B178A58
:101EA000118E128E138E148E0895FC01918D228D49
:101EB000892F90E0805C9F4F821B91098F7390E087
:101EC0000895FC01918D828D981731F0828DE80F75
:101ED000F11D858D90E008958FEF9FEF0895FC012F
:101EE000918D828D981761F0A28DAE0FBF2FB11D1D
:101EF0005D968C91928D9F5F9F73928F90E0089575
:101F00008FEF9FEF0895FC01238D348D832F90E098
:101F1000821B9109231710F0CF9608950197089519
:101F2000FC01A48DA80FB92FB11DA35ABF4F2C914E
:101F3000848D01968F73848FA689B7892C93A0898D
:101F4000B1898C91837080648C93938D848D981368
:101F500006C00288F389E02D80818F7D80830895FB
:101F6000CF93DF93EC01888D811111C0DF91CF9168
:101F700008950FB607FC0DC0808185FF0AC0A889AF
:101F8000B9898C9185FF05C0CE010E94900FEA8926
:101F9000FB89808185FDEDCFA889B9898C9186FF69
:101FA000E8CFE4CFEF92FF920F931F93CF93DF938D
:101FB000EC01F62E81E0888F9B8D8C8D98131AC0D2
:101FC000E889F989808185FF15C09FB7F894EE896B
:101FD000FF896083E889F9898081837080648083C8
:101FE0009FBF81E090E0DF91CF911F910F91FF9013
:101FF000EF9008950B8D0F5F1F4F0F73E02E8C8DA8
:102000008E1579F0EB8DEC0FFD2FF11DE35AFF4F8C
:10201000F0829FB7F8940B8FEA89FB8980818062F8
:10202000DECF0FB607FCEBCFE889F989808185FF09
:10203000E6CFCE010E94900FE2CFCF92DF92EF92D7
:10204000FF92CF93DF9300D00F92CDB7DEB78A8394
:102050009B836A017B012983DC015096ED91FD9100
:1020600082E08083C114B1EEDB06E104F10491F05B
:1020700060E079E08DE390E09A01A7010E9461138E
:1020800021503109410951095695479537952795B2
:102090003031B0F0AA81BB815096ED91FD91108254
:1020A00060E874E88EE190E09601A7010E94611358
:1020B0002150310941095109569547953795279582
:1020C000AA81BB811C96ED91FD913083ED91FD912C
:1020D000208318961C921497ED91FD91B981B083DD
:1020E000AA81BB815296ED91FD91808180618083B0
:1020F000FE91EE91808188608083ED91FD918081D9
:1021000080688083FE91EE9180818F7D80830F9027
:102110000F900F90DF91CF91FF90EF90DF90CF90D5
:102120000895FC0101900020E9F7809590958E0FAD
:102130009F1F0895AEE0B0E0E0EAF0E10C9499133F
:102140008C01CA0146E04C8309831A83FB0161308C
:10215000704810F0E0E0F0E83197ED83FE83A901CC
:10216000BC01CE0101960E94C7104D815E8157FDD2
:102170000AC02F813885421753070CF49A01020FC9
:10218000131FF80110822E96E4E00C94B513ACE016
:10219000B0E0EDECF0E10C948E135C016B017A0180
:1021A000FC0116821782838181FFD3C12AE0522E5F
:1021B000F5012381F60123FD859123FF81916F01B4
:1021C000811509F42CC1853239F423FD959123FF43
:1021D00091916F01953229F4B50190E00E94C212ED
:1021E000E7CF30E0712C00E010E0103210F59B32A8
:1021F000C9F050F49032B9F09332C9F09E3261F5D3
:1022000016FD0DC1106405C09D3279F0903399F42C
:102210001160F60123FD959123FF91916F019111BA
:10222000E4CF23C012601460F4CF1860F2CF1061C5
:10223000F0CF17FD1AC080ED890F8A30F8F616FF2F
:1022400005C0759C800D1124782EE3CF059D800D6F
:102250001124082F1062DDCF9C3611F41068D9CFFD
:102260009C3409F440C09836A1F2892F8F7D8554A3
:102270008330D8F1933609F45FC0933709F46AC00C
:10228000933509F476C0943619F0993609F0A2C056
:10229000F70117FF98C061917191819191917F0130
:1022A0001F7697FF03C00E94831310682AE030E076
:1022B0004E014FEF841A940AA4010E940313682E62
:1022C000681816FFD2C0812F8E7F671408F0CCC02B
:1022D00014FF1DC112FD11C11E7E972C812F86781F
:1022E00009F4CEC00FC131E094CF311509F1F8E007
:1022F000EF0EF11C8FE3898391E0692E712C4E0162
:102300008FEF881A980A1F7713FD04C060167104B6
:1023100008F43FC06114710409F042C0011509F4CA
:1023200047CFB50180E290E00E94C2120150F6CF83
:1023300044E0E40EF11CDECFF70180818983F2E0F6
:10234000EF0EF11C81E0682E712C4E014FEF841AC4
:10235000940AD9CFF701819091907F01672D70E0A9
:1023600016FD02C06FEF7FEFC4010E94B7123C015F
:10237000CACFF701819091907F01672D70E016FD23
:1023800002C06FEF7FEFC4010E94AC123C011068E5
:10239000BBCFB50180E290E00E94C2120150B6CFDF
:1023A000F40117FD859117FF81914F01B50190E070
:1023B0000E94C21281E0011101C080E0081BF1E01F
:1023C0006F1A7108A7CF61917191872F880F880BC1
:1023D000982F65CF9537C9F41F7E1C872AE030E01F
:1023E000FC85F7FF3BC0F70161917191819191915B
:1023F0007F014E014FEF841A940AA4010E94031337
:10240000682E68181C851F775CCF812F897F8C8789
:10241000903799F058F49835B9F09F36E1F0F5010E
:10242000868197812C96EFE00C94AA139837B9F720
:1024300014FD06C020E130E0D3CF9C8590619C87DD
:10244000EC85E460EC87F6CF14FF02C016601C87B1
:1024500020E132E0C5CF28E030E0C2CFF701619142
:10246000719180E090E0C4CF182F962C14FF36CFE6
:10247000FE01E60DF11D8081803309F041C0197E17
:1024800013FD0EC010FF4FC0762C901618F4700E7E
:102490007918902E802F8919091508F480E0980E7C
:1024A000901608F042C0091914FF41C0B50180E33D
:1024B00090E00E94C21212FF09C088E590E011FD71
:1024C00002C088E790E0B5010E94C2126714D0F103
:1024D0004E018FEF881A980A6A94FE013296E60D33
:1024E000F11D3F01F30182913F01B50190E00E948F
:1024F000C21268147904B1F711CF972C182FB8CFF6
:1025000012FD02C09394BCCF93949394B9CF972CAF
:10251000182FE4CEB50180E290E00E94C2128394AD
:102520008016C0F3B7CF892CFBCF00E0BDCF812F41
:10253000867861F280E211FD8BE217FD8DE2B50134
:1025400090E0C2CFB50180E390E00E94C2127A947D
:10255000BDCF8FEF9FEF66CFFC01059061507040BB
:102560000110D8F7809590958E0F9F1F0895FC015C
:102570006150704001900110D8F7809590958E0FB2
:102580009F1F0895A3E0B0E0E8ECF2E10C949A13E9
:10259000182F99836A837B83DB0113968C9181FDCD
:1025A00009C01FEFBFEFB983812F99812396E3E024
:1025B0000C94B61382FF1BC0EA81FB812681378110
:1025C000848195812817390754F40190F081E02D1A
:1025D000CF010196AA81BB818D939D931083EA81DF
:1025E000FB8186819781019686839783DDCFAA81BF
:1025F000BB811896ED91FD911A97BD01812F099528
:10260000892B69F3CECFFA01AA27283051F1203166
:1026100081F1E8946F936E7F6E5F7F4F8F4F9F4F76
:10262000AF4FB1E03ED0B4E03CD0670F781F891FB8
:102630009A1FA11D680F791F8A1F911DA11D6A0F86
:10264000711D811D911DA11D20D009F468943F9139
:102650002AE0269F11243019305D3193DEF6CF0138
:102660000895462F4770405D4193B3E00FD0C9F7FE
:10267000F6CF462F4F70405D4A3318F0495D31FD6B
:102680004052419302D0A9F7EACFB4E0A6959795BE
:10269000879577956795BA95C9F700976105710594
:1026A00008959B01AC010A2E0694579547953795DE
:1026B0002795BA95C9F7620F731F841F951FA01D38
:1026C0000895A1E21A2EAA1BBB1BFD010DC0AA1F73
:1026D000BB1FEE1FFF1FA217B307E407F50720F08B
:1026E000A21BB30BE40BF50B661F771F881F991F06
:1026F0001A9469F760957095809590959B01AC014F
:10270000BD01CF01089590958095709561957F4F9B
:102710008F4F9F4F08952F923F924F925F926F92EB
:102720007F928F929F92AF92BF92CF92DF92EF9261
:10273000FF920F931F93CF93DF93CDB7DEB7CA1BE2
:10274000DB0B0FB6F894DEBF0FBECDBF09942A880D
:10275000398848885F846E847D848C849B84AA84B5
:10276000B984C884DF80EE80FD800C811B81AA8142
:10277000B981CE0FD11D0FB6F894DEBF0FBECDBF0D
:10278000ED010895EE0FFF1F0590F491E02D0994DF
:04279000F894FFCFEB
:102794000000000000000000000000000000000035
:1027A4000000000000000000000000000000000025
:1027B4000000000000000000000000000000000015
:1027C4000000000000000000000000000000000005
:1027D40000000000000000000000000000000000F5
:1027E40000000000000000000000000000000000E5
:1027F4000000000000000000FFFCFFFFFF00004D90
:10280400030000EE05FFFFFFFFFFFFFFFF0000F4E2
:102814000200000000D1030000D103000002000008
:10282400000500000000020000000003000000009A
:10283400010001000000FFFF000001000000000093
:102844000000000000000000000001000000D007AC
:102854000000010000000000000000000000000073
:1028640000000600FF00000400FF0000400E400EC0
:10287400FF0A2E2E2E2E2E2E2E2E2E2E2E2E2E2EC7
:102884002E0A002E2E2E4F53205374617274732E11
:102894002E2E0A003C5461736B4820626567696E92
:1028A400732E3E005461736B48203A205472792091
:1028B4004C6F636B285331292E005461736B48208D
:1028C4003A20476574204C6F636B285331292E00DE
:1028D4005461736B48203A2052656C6561736520BE
:1028E4004C6F636B285331292E003C5461736B4841
:1028F40020656E64732E3E003C5461736B4D206200
:102904006567696E732E3E003C5461736B4D2065A0
:102914006E64732E3E003C5461736B4C2062656799
:10292400696E732E3E005461736B4C203A205472CE
:1029340079204C6F636B285331292E005461736BDB
:102944004C203A20476574204C6F636B285331291F
:102954002E005461736B4C203A2052656C65617390
:1029640065204C6F636B285331292E003C546173EE
:102974006B4C20656E64732E3E000A25346C643AF9
:1029840020007F01BA01A909FA029406036A05E648
:10299400049D01980193018E01EE053F0331032349
:1029A4000315034D03E203E4038000790C000003E4
:1029B4000501006404660480001A0C000002020190
:1029C40000E804EA048000D30B0000010301016C59
:1029D400056E058000320C000000010101F305F5CD
:1029E400055000D40D000004000100D701D20102FB
:1029F40001000001010000000000AF077D07860709
:102A04005F070C05FC06F904250744080109A5061F
:102A14003109EE074C091B0868096A0888099D06F4
:102A2400B2099806F309FD0A430AC808B50A8C08D6
:102A3400040800000000D20F8F0E830FB00F550F53
:042A44006F0F610FA0
:00000001FF
