:100000000C9454000C94570D0C947E0D0C947C00B1
:100010000C947C000C947C000C947C000C947C0070
:100020000C947C000C94EC0B0C947C000C947C00E5
:100030000C947C000C947C000C947C000C947C0050
:100040000C94510C0C947C000C94F30D0C94200E29
:100050000C947C000C947C000C947C000C947C0030
:100060000C947C000C947C00010204081020408059
:1000700001020408102001020408102004040404F2
:100080000404040402020202020203030303030342
:1000900000000000250028002B00000000002400C4
:1000A00027002A00510D460E11241FBECFEFD8E0C5
:1000B000DEBFCDBF13E0A0E0B1E0E0ECF5E202C0AE
:1000C00005900D92A836B107D9F728E0A8E6B3E06D
:1000D00001C01D92A639B207E1F710E0C4E5D0E0F7
:1000E00004C02197FE010E94D812C235D107C9F77A
:1000F0000E94420D0C94DE120C940000E2E10E947A
:1001000023010895E9E00E9423010895EAE00E9496
:1001100023010895E1E00E9423010895E3E00E9495
:1001200023010895E7E00E9423010895E5E00E947D
:1001300023010895E0E00E9423010895E2E00E9477
:1001400023010895E4E00E9423010895ECE00E9459
:1001500023010895E8E00E9423010895EEE00E9443
:1001600023010895E4E10E9423010895E0E10E9443
:1001700023010895E7E10E9423010895E6E00E942B
:1001800023010895EBE00E9423010895EDE00E9411
:1001900023010895EFE00E9423010895E1E10E9408
:1001A00023010895E3E10E9423010895E5E10E94FF
:1001B00023010895E6E10E942301089521968A9281
:1001C0009A92AA92BA92CA92DA92EA92FA920A930E
:1001D0001A932197E0917001F09171010080F181F3
:1001E000E02DC083D1830895C0917201D091730135
:1001F000E881F981C081D181219619910991F99005
:10020000E990D990C990B990A99099908990219737
:1002100008952F903F90E7E6F1E0CDB7DEB7EDBF50
:10022000FEBF3F922F9208952F903F90CDBFDEBF2B
:100230003F922F920895E0E80E9423010895E0E4A0
:100240000E94230108952F923F924F925F926F92E6
:100250007F922FB62F92CF93DF937E2EF894E0916A
:100260000001EF5FE0930001E13011F40E94090109
:10027000E0E0E0938001E72DE07849F00E94560528
:10028000F0918101F17071F00E94F4030BC0E72D31
:10029000EC3140F4EE0FF0E0EB5DFC4F0190F081AB
:1002A000E02D0995F0918001EF2FE17059F0F27087
:1002B00011F00E94DE008F938F2F0E9439038F91DF
:1002C0000E94F4002091000121502093000122237C
:1002D00011F40E941401DF91CF912F902FBE7F90D7
:1002E0006F905F904F903F902F900895FC01408158
:1002F000FB013081842F8F7090E0A0E0B0E0B695D4
:10030000A7959795879585589C4FFC012081F42FE0
:10031000F21B2F2F21704E70242B832F8F7090E0B3
:10032000A0E0B0E0B695A7959795879585589C4F26
:10033000FC019081F32FF91B9F2F91703E70932B3E
:1003400041E050E0291708F040E0CA0108958F927B
:100350009F92AF92BF92EF92FF920F931F93CF9312
:10036000DF937C014A015B01B694A794979487942C
:10037000423051056105710580F08A01000F111F9F
:100380000E0D1F1DE401CC0FDD1FCE0DDF1DB801CA
:10039000CE010E947601892B59F4DF91CF911F91F4
:1003A0000F91FF90EF90BF90AF909F908F90089526
:1003B000F80190818181288139812083318398835C
:1003C0008983A401B501D0CF7F928F929F92AF9283
:1003D000BF92CF92DF92EF92FF920F931F93CF9332
:1003E000DF938C014A015B01FC017080640175019F
:1003F000CC0CDD1CEE1CFF1C7C141D041E041F0411
:1004000070F4DF91CF911F910F91FF90EF90DF90EB
:10041000CF90BF90AF909F908F907F900895C6012E
:10042000D7010196A11DB11D781619061A061B06E3
:1004300098F0BC01660F771F600F711FC601880F0F
:10044000991F800F911F0E947601092E000C000851
:10045000C80ED91EE01CF01CE601CC0FDD1FC00F3A
:10046000D11F880C991C800E911EBE01C4010E94F0
:100470007601892B31F2F4019081818128813981C3
:10048000208331839883898346015701AFCF409100
:1004900082034F5F4093820350E060E070E0E82FFA
:1004A000EE0FFF0BE653FD4F0190F081E02D238509
:1004B000E22FF0E0E558FC4F908191509083FA01D3
:1004C000EE0FFF1FEE57FC4F9170220F922B90837F
:1004D000818382E893E00C94A701409182034F5FEF
:1004E0004093820350E060E070E0FA01EE0FFF1FDE
:1004F000EE57FC4FA82FAA0FBB0BA054BD4F0D9079
:10050000BC91A02D13969C919083818382E893E007
:100510000C94A701CF93DF9300D0CDB7DEB78091C5
:1005200082039FEF980F90938203909184039A83A4
:1005300090918503998390E0880F991FFC01EE57F5
:10054000FC4F80819181809384039093850341E0E7
:1005500050E060E070E082E893E00E94E4018A816C
:1005600099810F900F90DF91CF910895809168034A
:10057000811115C0409178015091790160917A0103
:1005800070917B014F3F54076407740751F081E07D
:10059000443051056105710524F082E0089584E03E
:1005A00008950895CF93DF93880F990BFC01E653CC
:1005B000FD4F0190F081E02D0084F185E02D309712
:1005C000C9F02281211116C021E0228380549D4F61
:1005D000EC01A881B98113968C9181839081E92FD8
:1005E000F0E0E558FC4F8081815080838170990F45
:1005F000892B8C93DF91CF910895CF93DF93880F50
:10060000990BFC01E653FD4F0190F081E02D008431
:10061000F185E02D309761F02281213049F412827A
:1006200080549D4FEC01A881B981818113968C93F0
:10063000DF91CF91089580917C0190917D01A091EF
:100640007E01B0917F0140917801509179016091D4
:100650007A0170917B01481759076A077B0741F0BF
:10066000E0917601F091770121E024830C946D02F2
:100670000895CF93DF93C0E0D0E0811589F0C09159
:100680007001D0917101E0917401F0917501848144
:10069000833031F081E08483809178010E946D0283
:1006A000E0917601F0917701E0937401F093750188
:1006B0008091720190917301809370019093710108
:1006C00080917C0130917D0120917E0190917F018C
:1006D000809378013093790120937A0190937B0184
:1006E00092E094830E94D202CE01DF91CF910895CF
:1006F000809178010E94FD02E0917401F0917501F2
:100700008281811185E084830895CF93DF93282F20
:10071000220F330BF901E054FD4FC081D1819A8142
:1007200026533D4FD901ED91FD912485921780F418
:10073000911105C095E09C8391E0909381010E9406
:1007400047028A818F5F8A8380E0DF91CF9108958D
:1007500084E0FBCFE82FEE0FFF0BE054FD4F01903C
:10076000F081E02D108211820C94EC0CCF93DF937A
:1007700000D00F92CDB7DEB70E948A028983892FFD
:10078000592F550F550B90937C0150937D01509339
:100790007E0150937F01292F220F330BF901E05482
:1007A000FD4F408151814A835B8340937601509392
:1007B000770126533D4FF901208131812093720149
:1007C00030937301FA019481953031F40E94AA03A9
:1007D0004981EA81FB814383109281010F900F9040
:1007E0000F90DF91CF910895E0917C01F0917D0110
:1007F000EE0FFF1FE054FD4F0190F081E02D80913E
:1008000084039381981740F40E941B030E94B6034F
:1008100083E080938001089580E0FBCF81E08093A6
:1008200080010C94B6030F931F93CF93DF93C1E025
:1008300001C0CC0F8A95EAF72091D2023091D30201
:100840008091C8029091C9021092820310927001A7
:100850001092710120937201309373011092740110
:10086000109275018093760190937701AFEFBFEFFF
:10087000CD018093780190937901A0937A01B09390
:100880007B0180937C0190937D01A0937E01B093C6
:100890007F01109280011092810184E00E94850303
:1008A00000E213E0D0E0F80181918F018C2319F070
:1008B0008D2F0E948503DF5FD430A9F780E090E0A0
:1008C00020911F03C2230091B5021091B602D1E01E
:1008D000892B29F0DF91CF911F910F910895C115B8
:1008E000C9F3F801D687C8010E94A30481E090E013
:1008F000EFCF0E94390681110E945906E0917401E0
:10090000F091750180819181892B21F0809178018E
:100910000E942D080C9484070E94390681110E94C0
:100920005906E0917401F091750180819181892BC4
:1009300021F0809178010E942D080C94690781E0D4
:10094000809369030895CF92DF92EF92FF920F9305
:100950001F93CF93DF93FC01A081B1810D90BC91D7
:10096000A02D54962D913D9156972115310509F4EE
:1009700041C0428553856485758500E010E0E9013A
:10098000CA84DB84EC84FD844C155D056E057F050F
:1009900008F042C0C90182839383048315830097C2
:1009A00019F0EC01EC83FD8301151105F1F1E8016B
:1009B000EA83FB835696CD91DD910A851B852C85B4
:1009C0003D851897CD90DD90ED90FD9054970C15D6
:1009D0001D052E053F0570F5C416D506E606F7067B
:1009E00028F0401751076207730768F45696ED9395
:1009F000FD9309C054968D93FD938D93FD931482BE
:100A0000158212821382DF91CF911F910F91FF9077
:100A1000EF90DF90CF900895E9018A819B81890151
:100A2000009709F4B8CF9C01AACF5496ED93FD939B
:100A30005697C0CFC416D506E606F70620F7D1CFE5
:100A4000CF93DF93DC01ED91FD9112970190F0813E
:100A5000E02D12960D90BC91A02D24893589281780
:100A6000390711F4A48BB58B2689378928173907E4
:100A700019F4A68BB78B9D01109739F0EC014C81CE
:100A80005D8114964D935D931697EC018C819D8149
:100A9000009719F0EC01AA83BB83232B21F48489EE
:100AA0009589868B978BDF91CF910895EF92FF9276
:100AB0000F931F93CF93DF93EC018091690381150E
:100AC00009F4A7C08C859D85AE85BF850196A11DC3
:100AD000B11D8C879D87AE87BF87488159816A8108
:100AE0007B8184179507A607B70709F092C088890C
:100AF0009989AA89BB890196A11DB11D4C815D818F
:100B00006E817F81481759076A077B0718F4A0E0B8
:100B1000B0E0CD01888B998BAA8BBB8B1C861D8680
:100B20001E861F860E891F890115110509F471C0E3
:100B3000F8014285538564857585481759076A070A
:100B40007B0709F066C09F010280F381E02D30979A
:100B500049F0428553856485758584179507A607F6
:100B6000B70789F3D80114968D919D91009721F0D4
:100B7000DC011296ED93FD93309711F084839583F9
:100B80008C899D890817190711F4EC8BFD8B309720
:100B900011F4EC89FD89EE8BFF8BF901128213822F
:100BA0007801D80112960D911D911497ED91FD9148
:100BB0000280F381E02DC7010995F70186819781B5
:100BC000A085B18510979040804051F142855385B2
:100BD00064857585840F951FA61FB71F4C815D81A5
:100BE0006E817F81481759076A077B0738F4841B99
:100BF000950BA60BB70B0197A109B109F7018287E5
:100C00009387A487B587C7010E94A3040115110526
:100C100039F6DF91CF911F910F91FF90EF900895DA
:100C2000D7011E961C92F2CFFC0182810C948503A1
:100C30000E94390680916B01089580936B010E9498
:100C400013040E949F040C940E040C94EB0CCF939D
:100C5000DF930F92CDB7DEB789830E94B602811170
:100C600002C00E94380D89810F90DF91CF910C94C2
:100C70008200209176032130D1F040916E03509193
:100C80006F03609170037091710380917203909172
:100C90007303A0917403B0917503842B952BA62B3D
:100CA000B72B21E0892B8A2B8B2B09F420E0822F94
:100CB00008951092760310927203109273031092AB
:100CC00074031092750310926E0310926F031092CA
:100CD00070031092710380916A0390916B03A0914D
:100CE0006C03B0916D038093770390937803A09386
:100CF0007903B0937A0308950E943B0D80917703A6
:100D000090917803A0917903B0917A030196A11D87
:100D1000B11D8093770390937803A0937903B093E8
:100D20007A038091720390917303A0917403B09140
:100D300075030196A11DB11D8093720390937303F7
:100D4000A0937403B09375030895809172039091FA
:100D50007303A0917403B091750310979040804085
:100D600069F1409177035091780360917903709114
:100D70007A034150510961097109409377035093F7
:100D800078036093790370937A030197A109B109FD
:100D90008093720390937303A0937403B0937503CD
:100DA0008091770390917803A0917903B0917A03B1
:100DB000892B8A2B8B2B11F40C94390D089580917B
:100DC000720390917303A0917403B09175034091E5
:100DD0006E0350916F036091700370917103842BC7
:100DE000952BA62BB72B892B8A2B8B2B29F40E94B2
:100DF0003B0D81E080937603089580917603811501
:100E000021F0109276030C94390D08950E943F0D45
:100E10008091770390917803A0917903B0917A0340
:100E20000196A11DB11D8093770390937803A09341
:100E30007903B0937A0380916E0390916F03A09130
:100E40007003B09171030196A11DB11D80936E03D3
:100E500090936F03A0937003B093710308958091F2
:100E60006E0390916F03A0917003B091710310977E
:100E70009040804069F140917703509178036091F0
:100E8000790370917A0341505109610971094093C6
:100E90007703509378036093790370937A030197F3
:100EA000A109B10980936E0390936F03A09370031F
:100EB000B09371038091770390917803A0917903A7
:100EC000B0917A03892B8A2B8B2B11F40C943D0D56
:100ED00008950E943906811183E10895CF93DF932D
:100EE0000F92CDB7DEB789830E94390689810E94AF
:100EF000850389838091810181110E94F403898196
:100F00000F90DF91CF910895CF930E943906C82F9B
:100F10008111C3E1E0917401F091750182818150EA
:100F200082830E94780381E0809380010E94B6034F
:100F30008C2FCF910895CF93DF930F92CDB7DEB76B
:100F400089830E943906E0917401F09175018281D4
:100F50008150828389810E948503898381110CC01D
:100F60000E94780381E0809380010E94B60389810A
:100F70000F90DF91CF910895E0917401F091750188
:100F800082818F5F8283F3CFCF930E943906C82F6F
:100F90008111C3E1809178010E94FD020E94F40357
:100FA0008091780190917901A0917A01B0917B01B3
:100FB00040917C0150917D0160917E0170917F0193
:100FC00084179507A607B70711F40E94D2028C2F49
:100FD000CF910895CF93DF9300D0CDB7DEB789834B
:100FE0009A830E943906811183E1409178015091E2
:100FF000790160917A0170917B014430510561055E
:10100000710514F04091DE01E981FA8140830F906F
:101010000F90DF91CF910895CF93DF9300D00F927F
:10102000CDB7DEB789836A837B830E94390681113D
:1010300083E19981E92FEE0FFF0BE054FD4F019002
:10104000F081E02D94819370EA81FB8190830F9071
:101050000F900F90DF91CF910895E82FEE0FFF0BC7
:10106000E054FD4FA081B181ED91FD911297309731
:1010700071F01D921D928091DE01DF010380F481E9
:10108000E02D12968D931D921D923097B1F7089521
:10109000CF93DF930F92CDB7DEB789830E943906D5
:1010A000811183E19981E92FF0E0EE0FFF1FE65EE9
:1010B000FC4F0190F081E02D909178019283A091F6
:1010C0007401B09175012D913D9123833483FE937A
:1010D000EE9313962C9113972183908126952917CF
:1010E00060F4E92FF0E0E558FC4F20812150208387
:1010F000990F2170922B13969C930F90DF91CF91B3
:101100000895CF93DF9300D0CDB7DEB789830E94D7
:1011100039068A83811511F083E18A838981E82F5A
:10112000F0E0EE0FFF1FE65EFC4F0190F081E02D36
:10113000A0917401B0917501818113968C931397DE
:10114000838194818D939D93138214828091DE011B
:1011500082830E94F4038A810F900F90DF91CF91D8
:101160000895DC01ED91FD9184819581DC01ED9183
:10117000FD910994CF93DF9300D00F92CDB7DEB7E6
:1011800089836A837B830E943906811183E1998177
:10119000E92FF0E0EE0FFF1FEB54FD4F0190F081BF
:1011A000E02D0190F081E02D0190F081E02D408153
:1011B000518162817381AA81BB8114964D935D93A5
:1011C0006D937D93189744815581668177814D9306
:1011D0005D936D937D9314974085518562857385EA
:1011E000FD0140875187628773870F900F900F90A2
:1011F000DF91CF910895CF92DF92EF92FF920F93FC
:101200001F93CF93DF9300D0CDB7DEB7182F69833C
:101210007A830E943906811183E1E12FF0E0EE0F1D
:10122000FF1FEB54FD4F0190F081E02D968591302A
:1012300081F542855385648575850190F081E02DA7
:101240000190F081E02D00891189228933894017AE
:1012500051076207730740F4C480D580E680F780A9
:101260004C0D5D1D6E1D7F1D401B510B620B730BE2
:10127000E981FA8140835183628373830F900F90D9
:10128000DF91CF911F910F91FF90EF90DF90CF9062
:10129000089585E0F3CFAF92BF92CF92DF92EF92A5
:1012A000FF920F931F93CF93DF9300D000D000D015
:1012B000CDB7DEB789834A835B836C837D837801F6
:1012C00089010E9439068E83811511F083E18E8396
:1012D000A980EA2DF0E0EE0FFF1FEB54FD4F0190C7
:1012E000F081E02D8685811145C0A081B1810D90EE
:1012F000BC91A02D50964D915D916D917D9154972B
:10130000AA80BB80CC80DD804A0D5B1D6C1D7D1DDD
:1013100014968D919D910D90BC91A02D84179507E9
:10132000A607B70740F4481B590B6A0B7B0B4150CB
:101330005109610971094287538764877587E6827D
:10134000F7820087118781E08687CF010E94A3047E
:101350008E810F900F900F900F900F900F90DF9154
:10136000CF911F910F91FF90EF90DF90CF90BF90A2
:10137000AF90089587E08E83EBCFEF92FF920F93AB
:101380001F93CF93DF9300D000D000D0CDB7DEB74E
:1013900089834A835B836C837D83780189010E9402
:1013A00039068E83811511F083E18E839981E92FAF
:1013B000F0E0EE0FFF1FEB54FD4F0190F081E02DA8
:1013C000868581111FC08A819B81AC81BD81828706
:1013D0009387A487B587E682F7820087118781E02B
:1013E0008687CF010E94A3048E810F900F900F90EB
:1013F0000F900F900F90DF91CF911F910F91FF9061
:10140000EF90089597E09E83EFCF0F931F93CF93B4
:10141000182F0E943906C82F8111C3E1E12FF0E097
:10142000EE0FFF1FEB54FD4F00811181F8018685FF
:10143000813051F4C8010E942005F80116868C2FD6
:10144000CF911F910F910895C5E0F9CF8F929F9290
:10145000AF92BF92CF92DF92EF92FF92CF93DF9342
:1014600000D000D0CDB7DEB769837A838B839C83AD
:101470000E94A90C6B017C010E94A90C69817A81F0
:101480008B819C8124E130E040E050E00E947712A3
:1014900029833A834B835C83A12CB12C450189813C
:1014A0009A81AB81BC8188169906AA06BB0679F49D
:1014B0000F900F900F900F90DF91CF91FF90EF90D2
:1014C000DF90CF90BF90AF909F908F9008950E9433
:1014D000A90C6C197D098E099F096431710581057C
:1014E0009105A8F38FEF881A980AA80AB80A0E94F3
:1014F000A90C6B017C01D3CFCF93DF93CDB7DEB7BF
:10150000C054D1090FB6F894DEBF0FBECDBF9E0107
:101510002B5B3F4FF901419151919F0160E470E0D5
:10152000CE0101960E94B00FBE016F5F7F4F89EF21
:1015300097E00E94F10DC05CDF4F0FB6F894DEBF5C
:101540000FBECDBFDF91CF9108951092B0001092E1
:10155000B2008CE08093B10089EF8093B300E0E7A4
:10156000F0E08081816080837894089561E08DE06F
:101570000E94170C26E040E052EC61E070E089EF39
:1015800097E00E94330F8FED91E09F938F930E941D
:101590007C0A81EF91E09F938F930E947C0A80EEFA
:1015A00091E09F938F930E947C0A0F900F900F9071
:1015B0000F900F900F900C94A50A80916C01909160
:1015C0006D01A0916E01B0916F01892B8A2B8B2B3D
:1015D00021F480911E030E94A60080916C019091DD
:1015E0006D01A0916E01B0916F01AC01BD014F5F23
:1015F0005F4F6F4F7F4F40936C0150936D0160932D
:101600006E0170936F01BF93AF939F938F9382E0AE
:1016100092E09F938F930E947C0A0F900F900F90FF
:101620000F900F900F900C94AA001F93CF93DF930D
:101630000F92CDB7DEB7182FBE016F5F7F4F0E94AC
:10164000BA00811118C02981223039F190F4912F0C
:10165000990F990B211114C09F931F938AE092E078
:101660009F938F930E947C0A0F900F900F900F9082
:1016700002C0233051F00F90DF91CF911F91089558
:101680009F931F938BE192E0EBCF912F990F990BD2
:101690009F931F9388E292E0E3CF912F990F990BCC
:1016A0009F931F9387E392E0DBCFCF93DF9300D02C
:1016B0000F92CDB7DEB786E492E09F938F930E949E
:1016C0007C0A80911E038B830E94150B90911D0351
:1016D0009A83892F0E94150B68EB7BE080E090E0F5
:1016E0000E94260A8A810E94A6008B810E94150B07
:1016F0008A810E94150B68EB7BE080E090E00E94FD
:10170000260ACE0101960E94B6008981982F990F72
:10171000990B9F938F9388E592E09F938F930E94FC
:101720007C0A88E692E09F938F930E947C0A8091C6
:101730001C030E94AE000FB6F894DEBF0FBECDBFF3
:101740000F900F900F90DF91CF910895CF93DF937B
:101750000F92CDB7DEB78DE792E09F938F930E94F3
:101760007C0A80911E030E94150B80911D030E942C
:10177000150B68EB7BE080E090E00E94260ACE012A
:1017800001960E94B6008981982F990F990B9F931B
:101790008F9381E992E09F938F930E947C0A81EA64
:1017A00092E09F938F930E947C0A80911C030E9479
:1017B000AE000FB6F894DEBF0FBECDBF0F90DF9125
:1017C000CF91089580911E030E94150B80911D03F7
:1017D0000E94150B0C94AA001F920F920FB60F9245
:1017E00011242F933F934F935F936F937F938F9326
:1017F0009F93AF93BF93EF93FF938DEB91E00E9484
:101800001B01FF91EF91BF91AF919F918F917F91BC
:101810006F915F914F913F912F910F900FBE0F905D
:101820001F90189585EA91E00C941B010895CF93C1
:10183000DF9390E0FC01E859FF4F249184589F4FBB
:10184000FC0184918115C9F090E0880F991FFC017B
:10185000E656FF4FA591B591FC01E057FF4FC591AA
:10186000D5919FB761110CC0F8948C91209582237B
:101870008C938881282328839FBFDF91CF9108957F
:10188000623051F4F8943C91822F809583238C939D
:101890008881822B8883F0CFF8948C91822B8C9353
:1018A000EBCF1F920F920FB60F9211242F933F93FD
:1018B0004F935F936F937F938F939F93AF93BF9358
:1018C000EF93FF938091F0079091F107A091F207B9
:1018D000B091F3073091EF0723E0230F2D3798F5F0
:1018E0000196A11DB11D2093EF078093F0079093FF
:1018F000F107A093F207B093F3078091F40790915A
:10190000F507A091F607B091F7070196A11DB11D4B
:101910008093F4079093F507A093F607B093F70729
:101920000E94120CFF91EF91BF91AF919F918F9107
:101930007F916F915F914F913F912F910F900FBECB
:101940000F901F90189526E8230F0296A11DB11D38
:10195000CACF2FB7F8946091F0077091F10780918A
:10196000F2079091F3072FBF089584B5826084BD7C
:1019700084B5816084BD85B5826085BD85B5816093
:1019800085BDEEE6F0E0808181608083E1E8108231
:10199000808182608083808181608083E0E88081B3
:1019A00081608083E1EB808184608083E0EB8081D3
:1019B00081608083EAE780818460808380818260A7
:1019C00080838081816080838081806880831092A1
:1019D000C1000895FFCFFFCFCF93DF93E82FEE0F25
:1019E000FF0BE653FD4FA081B18114968D919D911F
:1019F00001971497ED91FD91E80FF91F19968C91BD
:101A00001D97823079F582EA90E0892F22EA30E052
:101A100020839F0121503109E901888316963D9169
:101A20002C911797CF010297EC0138830197EC01B5
:101A30002883069726E0EC0119922A95E9F7019789
:101A400020E8EC0128830C972CE0EC0119922A95F0
:101A5000E9F70D90BC91A02D7797ED93FD93DF9161
:101A6000CF9108958EEB90E0892F2EEB30E0D0CF10
:101A7000089578940895F894089578940895F894C2
:101A8000089508950E94B50C0E94410D0E94160C05
:101A90000E94B60A8091F8070E94270680E090E035
:101AA0000895809124038093F807089508951F9264
:101AB0000F920FB60F9211242F933F934F935F9382
:101AC0006F937F938F939F93AF93BF93EF93FF9306
:101AD000E091DA01F091DB010995FF91EF91BF915F
:101AE000AF919F918F917F916F915F914F913F91B6
:101AF0002F910F900FBE0F901F9018951F920F926D
:101B00000FB60F9211242F933F934F935F936F93D0
:101B10007F938F939F93AF93BF93EF93FF93E09146
:101B2000DC01F091DD010995FF91EF91BF91AF913B
:101B30009F918F917F916F915F914F913F912F91E5
:101B40000F900FBE0F901F9018950F931F93CF9378
:101B5000DF9300D000D000D0CDB7DEB789839A8361
:101B60004B835C836D837E8300E010E0AB81BC819E
:101B70000A171B0761F4C8010F900F900F900F9088
:101B80000F900F90DF91CF911F910F910895A98130
:101B9000BA81ED91FD910190F081E02DAD81BE8182
:101BA0006C9189819A810995892B29F38D819E8178
:101BB00001968D839E830F5F1F4FD8CFDC01611587
:101BC000710561F0ED91FD91129722813381CB0176
:101BD0000E94A70FAC01CD01F901099480E090E0CB
:101BE00008950C94DE0D2F932FB72F938F939F930F
:101BF000EF93FF93E0910908F0910A088081E0914A
:101C00000F08F091100882FD19C090818091120890
:101C10008F5F8F7320911308821741F0E0911208B3
:101C2000F0E0E750F84F958F80931208FF91EF9105
:101C30009F918F912F912FBF2F9118958081F6CF73
:101C40001F920F920FB60F9211242F933F934F9331
:101C50005F936F937F938F939F93AF93BF93EF9314
:101C6000FF9389EF97E00E94A60EFF91EF91BF913D
:101C7000AF919F918F917F916F915F914F913F9124
:101C80002F910F900FBE0F901F901895E9EFF7E07E
:101C90001282138288EE93E08483958316821782E2
:101CA00089E593E08083918385EC8487158684ECB5
:101CB0008687178680EC808B118A81EC828B138A51
:101CC00082EC848B158A86EC868B178A118E128E95
:101CD000138E148E0895FC01918D228D892F90E032
:101CE000805C9F4F821B91098F7390E00895FC01E7
:101CF000918D828D981731F0828DE80FF11D858DC1
:101D000090E008958FEF9FEF0895FC01918D828DF3
:101D1000981761F0A28DAE0FBF2FB11D5D968C910B
:101D2000928D9F5F9F73928F90E008958FEF9FEF4A
:101D30000895FC01238D348D832F90E0821B91093F
:101D4000231710F0CF96089501970895FC01A48DF4
:101D5000A80FB92FB11DA35ABF4F2C91848D0196A6
:101D60008F73848FA689B7892C93A089B1898C91B0
:101D7000837080648C93938D848D981306C0028841
:101D8000F389E02D80818F7D80830895CF93DF9349
:101D9000EC01888D811111C0DF91CF9108950FB6AC
:101DA00007FC0DC0808185FF0AC0A889B9898C9184
:101DB00085FF05C0CE010E94A60EEA89FB898081BD
:101DC00085FDEDCFA889B9898C9186FFE8CFE4CF56
:101DD000EF92FF920F931F93CF93DF93EC01F62EB8
:101DE00081E0888F9B8D8C8D98131AC0E889F989C2
:101DF000808185FF15C09FB7F894EE89FF896083C5
:101E0000E889F98980818370806480839FBF81E045
:101E100090E0DF91CF911F910F91FF90EF90089587
:101E20000B8D0F5F1F4F0F73E02E8C8D8E1579F089
:101E3000EB8DEC0FFD2FF11DE35AFF4FF0829FB7A2
:101E4000F8940B8FEA89FB8980818062DECF0FB620
:101E500007FCEBCFE889F989808185FFE6CFCE01C9
:101E60000E94A60EE2CFCF92DF92EF92FF92CF9325
:101E7000DF9300D00F92CDB7DEB78A839B836A01D0
:101E80007B012983DC015096ED91FD9182E08083F6
:101E9000C114B1EEDB06E104F10491F060E079E0F9
:101EA0008DE390E09A01A7010E9477122150310939
:101EB0004109510956954795379527953031B0F02E
:101EC000AA81BB815096ED91FD91108260E874E883
:101ED0008EE190E09601A7010E947712215031090E
:101EE000410951095695479537952795AA81BB8198
:101EF0001C96ED91FD913083ED91FD912083189614
:101F00001C921497ED91FD91B981B083AA81BB8198
:101F10005296ED91FD91808180618083FE91EE91DA
:101F2000808188608083ED91FD91808180688083CD
:101F3000FE91EE9180818F7D80830F900F900F90A6
:101F4000DF91CF91FF90EF90DF90CF900895FC014B
:101F500001900020E9F7809590958E0F9F1F0895BE
:101F6000AEE0B0E0E6EBFFE00C94AF128C01CA01EA
:101F700046E04C8309831A83FB016130704810F0FE
:101F8000E0E0F0E83197ED83FE83A901BC01CE01CA
:101F900001960E94DD0F4D815E8157FD0AC02F81A1
:101FA0003885421753070CF49A01020F131FF801EA
:101FB00010822E96E4E00C94CB12ACE0B0E0E3EE9D
:101FC000FFE00C94A4125C016B017A01FC01168203
:101FD0001782838181FFD3C12AE0522EF50123812C
:101FE000F60123FD859123FF81916F01811509F48D
:101FF0002CC1853239F423FD959123FF91916F0116
:10200000953229F4B50190E00E94D811E7CF30E075
:10201000712C00E010E0103210F59B32C9F050F442
:102020009032B9F09332C9F09E3261F516FD0DC1C0
:10203000106405C09D3279F0903399F41160F60177
:1020400023FD959123FF91916F019111E4CF23C05E
:1020500012601460F4CF1860F2CF1061F0CF17FD5A
:102060001AC080ED890F8A30F8F616FF05C0759CFE
:10207000800D1124782EE3CF059D800D1124082FAB
:102080001062DDCF9C3611F41068D9CF9C3409F46E
:1020900040C09836A1F2892F8F7D85548330D8F1C6
:1020A000933609F45FC0933709F46AC0933509F495
:1020B00076C0943619F0993609F0A2C0F70117FFDF
:1020C00098C061917191819191917F011F7697FFE5
:1020D00003C00E94991210682AE030E04E014FEFD1
:1020E000841A940AA4010E941912682E681816FF17
:1020F000D2C0812F8E7F671408F0CCC014FF1DC1A1
:1021000012FD11C11E7E972C812F867809F4CEC056
:102110000FC131E094CF311509F1F8E0EF0EF11C59
:102120008FE3898391E0692E712C4E018FEF881A1D
:10213000980A1F7713FD04C06016710408F43FC0AD
:102140006114710409F042C0011509F447CFB501CB
:1021500080E290E00E94D8110150F6CF44E0E40EF6
:10216000F11CDECFF70180818983F2E0EF0EF11CD4
:1021700081E0682E712C4E014FEF841A940AD9CF5A
:10218000F701819091907F01672D70E016FD02C0EC
:102190006FEF7FEFC4010E94CD113C01CACFF70160
:1021A000819091907F01672D70E016FD02C06FEF66
:1021B0007FEFC4010E94C2113C011068BBCFB50182
:1021C00080E290E00E94D8110150B6CFF40117FDD3
:1021D000859117FF81914F01B50190E00E94D811C0
:1021E00081E0011101C080E0081BF1E06F1A710865
:1021F000A7CF61917191872F880F880B982F65CF9A
:102200009537C9F41F7E1C872AE030E0FC85F7FF74
:102210003BC0F70161917191819191917F014E01D4
:102220004FEF841A940AA4010E941912682E6818AC
:102230001C851F775CCF812F897F8C87903799F021
:1022400058F49835B9F09F36E1F0F5018681978111
:102250002C96EFE00C94C0129837B9F714FD06C025
:1022600020E130E0D3CF9C8590619C87EC85E460D1
:10227000EC87F6CF14FF02C016601C8720E132E025
:10228000C5CF28E030E0C2CFF7016191719180E0C5
:1022900090E0C4CF182F962C14FF36CFFE01E60D28
:1022A000F11D8081803309F041C0197E13FD0EC0FD
:1022B00010FF4FC0762C901618F4700E7918902EDF
:1022C000802F8919091508F480E0980E901608F0FF
:1022D00042C0091914FF41C0B50180E390E00E949B
:1022E000D81112FF09C088E590E011FD02C088E70F
:1022F00090E0B5010E94D8116714D0F14E018FEF24
:10230000881A980A6A94FE013296E60DF11D3F0183
:10231000F30182913F01B50190E00E94D811681449
:102320007904B1F711CF972C182FB8CF12FD02C046
:102330009394BCCF93949394B9CF972C182FE4CE59
:10234000B50180E290E00E94D81183948016C0F31A
:10235000B7CF892CFBCF00E0BDCF812F867861F20B
:1023600080E211FD8BE217FD8DE2B50190E0C2CF56
:10237000B50180E390E00E94D8117A94BDCF8FEF31
:102380009FEF66CFFC010590615070400110D8F7B7
:10239000809590958E0F9F1F0895FC0161507040AD
:1023A00001900110D8F7809590958E0F9F1F08958A
:1023B000A3E0B0E0EEEDF1E10C94B012182F998398
:1023C0006A837B83DB0113968C9181FD09C01FEF2B
:1023D000BFEFB983812F99812396E3E00C94CC124F
:1023E00082FF1BC0EA81FB81268137818481958130
:1023F0002817390754F40190F081E02DCF010196A0
:10240000AA81BB818D939D931083EA81FB81868194
:102410009781019686839783DDCFAA81BB81189629
:10242000ED91FD911A97BD01812F0995892B69F3D3
:10243000CECFFA01AA27283051F1203181F1E8945A
:102440006F936E7F6E5F7F4F8F4F9F4FAF4FB1E0A7
:102450003ED0B4E03CD0670F781F891F9A1FA11DA2
:10246000680F791F8A1F911DA11D6A0F711D811DA3
:10247000911DA11D20D009F468943F912AE0269F68
:1024800011243019305D3193DEF6CF010895462FC7
:102490004770405D4193B3E00FD0C9F7F6CF462FA8
:1024A0004F70405D4A3318F0495D31FD4052419311
:1024B00002D0A9F7EACFB4E0A695979587957795CE
:1024C0006795BA95C9F700976105710508959B0155
:1024D000AC010A2E06945795479537952795BA95DE
:1024E000C9F7620F731F841F951FA01D0895A1E2F5
:1024F0001A2EAA1BBB1BFD010DC0AA1FBB1FEE1F7E
:10250000FF1FA217B307E407F50720F0A21BB30BC8
:10251000E40BF50B661F771F881F991F1A9469F744
:1025200060957095809590959B01AC01BD01CF01A0
:10253000089590958095709561957F4F8F4F9F4F2F
:1025400008952F923F924F925F926F927F928F9257
:102550009F92AF92BF92CF92DF92EF92FF920F9332
:102560001F93CF93DF93CDB7DEB7CA1BDB0B0FB63C
:10257000F894DEBF0FBECDBF09942A8839884888F9
:102580005F846E847D848C849B84AA84B984C8848F
:10259000DF80EE80FD800C811B81AA81B981CE0F86
:1025A000D11D0FB6F894DEBF0FBECDBFED0108956B
:1025B000EE0FFF1F0590F491E02D0994F894FFCFE2
:1025C000000000000000000000000000000000000B
:1025D00000000000000000000000000000000000FB
:1025E00000000000000000000000000000000000EB
:1025F00000000000000000000000000000000000DB
:1026000000000000000000000000000000000000CA
:1026100000000000000000000000000000000000BA
:102620000000000000000000060000FFFCFFFFFFAC
:1026300000000C0300009807FFFFFFFFFFFFFFFFF4
:102640000000B70200000000D1030000D103000029
:10265000020000000500000000040000000003006C
:10266000000000010001000000FFFF000001000069
:102670000000000000000000000000000001000059
:1026800000D0070000010000000000000000000072
:1026900000000000000600FF0000560D560DFF0A66
:1026A0002E2E2E2E2E2E2E2E2E2E2E2E2E2E2E0A6E
:1026B000002E2E2E4F53205374617274732E2E2EC3
:1026C0000A000A25346C643A200025643A207375A8
:1026D0007370656E6465642E2E2E0025643A207238
:1026E000656164792E2E2E0025643A207761697425
:1026F000696E672E2E2E0025643A2072756E6E6903
:102700006E672E2E2E005461736B312062656769EF
:102710006E732E2E2E2E2E005461736B2049642072
:102720003D2025642E2E2E005461736B3120666986
:102730006E69736865732E2E2E2E2E2E00546173D3
:102740006B3220626569676E732E2E2E2E2E2E2E12
:10275000005461736B204944203D2025642E2E2EA9
:10276000005461736B322066696E69736865732EFD
:102770002E2E2E2E008201BD01B108BD02140603CB
:10278000A0019B01960191019807FE02F002E2026E
:10279000D4020C03900392030001DD0A000003053C
:1027A0000100920494040001E20B00000204010005
:1027B000940596050001A60B000001030100960692
:1027C00098060001550B6801000101009D079F0755
:1027D0005000EA0C000004000100D50102010001D4
:1027E00000000000002F07FD060607DF068C047CB2
:1027F000067904A50684071D06250648086E07818C
:10280000089B07BA08EA07FB0818064B09C407BD6E
:1028100009050A0C0800000000E80EA50D990EC677
:082820000E6B0E850E770E0011
:00000001FF
