:100000000C945E000C949F0E0C94C60E0C9486000B
:100010000C9486000C9486000C9486000C94860048
:100020000C9486000C94AD0C0C9486000C94860005
:100030000C9486000C94D70C0C9486000C948600CB
:100040000C94990D0C9486000C943B0F0C94680F43
:100050000C9486000C9486000C9486000C94860008
:100060000C9486000C948600000000080002010039
:100070000003040700000000000000000102040863
:100080001020408001020408102001020408102002
:10009000040404040404040402020202020203032E
:1000A0000303030300000000250028002B000000CC
:1000B0000000240027002A00990E8E0F11241FBE75
:1000C000CFEFD8E0DEBFCDBF13E0A0E0B1E0E0E5C8
:1000D000F8E202C005900D92A23CB107D9F728E0E2
:1000E000A2ECB3E001C01D92AF32B207E1F710E01D
:1000F000CEE5D0E004C02197FE010E942014CC354B
:10010000D107C9F70E948A0E0C9426140C940000A3
:10011000E4E10E943D010895E2E10E943D0108955D
:10012000EAE00E943D010895E1E00E943D0108954A
:10013000E3E00E943D010895E7E00E943D0108953B
:10014000E5E00E943D010895E0E00E943D01089530
:10015000E2E00E943D010895E4E00E943D0108951F
:10016000ECE00E943D010895EBE10E943D010895FD
:10017000EEE00E943D010895E8E00E943D010895EF
:10018000E0E10E943D010895EAE10E943D010895E9
:10019000E6E00E943D010895E8E10E943D010895D6
:1001A000E9E00E943D010895EBE00E943D010895C1
:1001B000EDE00E943D010895EFE00E943D010895A9
:1001C000E1E10E943D010895E3E10E943D010895AF
:1001D000E5E10E943D010895E7E10E943D01089597
:1001E000E9E10E943D010895E6E10E943D01089584
:1001F00021968A929A92AA92BA92CA92DA92EA9234
:10020000FA920A931A932197E0916D01F0916E0191
:100210000080F181E02DC083D1830895C0916F01EA
:10022000D0917001E881F981C081D1812196199125
:100230000991F990E990D990C990B990A9909990B5
:100240008990219708952F903F90E7E6F1E0CDB790
:10025000DEB7EDBFFEBF3F922F9208952F903F90E3
:10026000CDBFDEBF3F922F920895E0E80E943D018E
:100270000895E0E40E943D0108952F923F924F922D
:100280005F926F927F922FB62F92CF93DF937E2E45
:10029000F894E0910001EF5FE0930001E13011F488
:1002A0000E942301E0E0E0937D01E72DE07849F032
:1002B0000E94E705F0917E01F17071F00E946B04DD
:1002C0000BC0E72DEC3140F4EE0FF0E0E858FC4FA6
:1002D0000190F081E02D0995F0917D01EF2FE17003
:1002E00059F0F27011F00E94F8008F938F2F0E9446
:1002F00053038F910E940E01209100012150209301
:100300000001222311F40E942E01DF91CF912F9042
:100310002FBE7F906F905F904F903F902F900895E9
:10032000FC014081FB013081842F8F7090E0A0E0C0
:10033000B0E0B695A795979587958B529C4FFC0199
:100340002081F42FF21B2F2F21704E70242B832F2E
:100350008F7090E0A0E0B0E0B695A795979587954F
:100360008B529C4FFC019081F32FF91B9F2F9170B2
:100370003E70932B41E050E0291708F040E0CA019D
:1003800008958F929F92AF92BF92EF92FF920F9338
:100390001F93CF93DF937C014A015B01B694A7942E
:1003A00097948794423051056105710580F08A0168
:1003B000000F111F0E0D1F1DE401CC0FDD1FCE0D10
:1003C000DF1DB801CE010E949001892B59F4DF9105
:1003D000CF911F910F91FF90EF90BF90AF909F90A2
:1003E0008F900895F801908181812881398120833F
:1003F000318398838983A401B501D0CF7F928F92F6
:100400009F92AF92BF92CF92DF92EF92FF920F93A3
:100410001F93CF93DF938C014A015B01FC01708035
:1004200064017501CC0CDD1CEE1CFF1C7C141D044A
:100430001E041F0470F4DF91CF911F910F91FF9064
:10044000EF90DF90CF90BF90AF909F908F907F9074
:100450000895C601D7010196A11DB11D7816190690
:100460001A061B0698F0BC01660F771F600F711FFC
:10047000C601880F991F800F911F0E949001092EBD
:10048000000C0008C80ED91EE01CF01CE601CC0FC1
:10049000DD1FC00FD11F880C991C800E911EBE015C
:1004A000C4010E949001892B31F2F4019081818175
:1004B00028813981208331839883898346015701BC
:1004C000AFCF4091DB034F5F4093DB0350E060E030
:1004D00070E0E82FEE0FFF0BE85EFC4F0190F0811B
:1004E000E02D2385E22FF0E0EB52FC4F90819150FC
:1004F0009083FA01EE0FFF1FE552FC4F9170220F1F
:10050000922B908381838BED93E00C94C1014091F9
:10051000DB034F5F4093DB0350E060E070E0FA01E3
:10052000EE0FFF1FE552FC4FA82FAA0FBB0BA25FD7
:10053000BC4F0D90BC91A02D13969C91908381830C
:100540008BED93E00C94C101CF93DF9300D0CDB736
:10055000DEB78091DB039FEF980F9093DB039091C0
:10056000DD039A839091DE03998390E0880F991FB1
:10057000FC01E552FC4F808191818093DD039093D3
:10058000DE0341E050E060E070E08BED93E00E941C
:10059000FE018A8199810F900F90DF91CF9108958C
:1005A0008091C203811115C040917501509176016F
:1005B00060917701709178014F3F54076407740789
:1005C00051F081E0443051056105710524F082E06D
:1005D000089584E008950895CF93DF93880F990BD1
:1005E000FC01E85EFC4F0190F081E02D0084F18574
:1005F000E02D3097C9F02281211116C021E022831D
:10060000825F9C4FEC01A881B98113968C91818304
:100610009081E92FF0E0EB52FC4F80818150808384
:100620008170990F892B8C93DF91CF910895CF938F
:10063000DF93880F990BFC01E85EFC4F0190F0817D
:10064000E02D0084F185E02D309761F0228121308A
:1006500049F41282825F9C4FEC01A881B9818181AB
:1006600013968C93DF91CF910895809179019091A9
:100670007A01A0917B01B0917C014091750150916C
:1006800076016091770170917801481759076A07E0
:100690007B0741F0E0917301F091740121E0248324
:1006A0000C9487020895CF93DF93C0E0D0E08115CA
:1006B00089F0C0916D01D0916E01E0917101F091CE
:1006C00072018481833031F081E0848380917501EF
:1006D0000E948702E0917301F0917401E09371012F
:1006E000F093720180916F019091700180936D0180
:1006F00090936E018091790130917A0120917B0174
:1007000090917C018093750130937601209377015D
:100710009093780192E094830E94EC02CE01DF91E5
:10072000CF910895CF92DF92EF92FF92C090750122
:10073000D0907601E0907701F09078018C2D0E94A6
:100740001703E0917101F091720182818115B1F07E
:1007500085E084831C141D041E041F0454F0F6015C
:10076000EE0FFF1FE45FFC4F0190F081E02D11823E
:100770001082FF90EF90DF90CF9008951482F9CF10
:10078000CF93DF93282F220F330BF901E25FFC4F49
:10079000C081D1819A81F901E85EFC4F0190F0811E
:1007A000E02D44859417C8F491110EC095E09C8308
:1007B00018163CF0245F3C4FD901ED91FD91118258
:1007C000108291E090937E010E9461028A818F5F86
:1007D0008A8380E0DF91CF91089584E0FBCFCF93AF
:1007E000E82FEE0FFF0BE25FFC4F0190F081E02D50
:1007F000C1E0C4830E946102C0937E01CF9108953D
:10080000282F220F330BF901E25FFC4F0190F0819A
:10081000E02D4481411599F0245F3C4FD901ED91C1
:10082000FD919081962B90839181692311F480E052
:10083000089511824330D9F70E94EF03F8CF87E083
:100840000895E82FEE0FFF0BE25FFC4F0190F0815F
:10085000E02D108211820C94340ECF93DF9300D0E0
:100860000F92CDB7DEB70E94A4028983892F592F3A
:10087000550F550B9093790150937A0150937B015A
:1008800050937C01292F220F330BF901E25FFC4FBB
:10089000408151814A835B8340937301509374017B
:1008A000285E3C4FF9012081318120936F01309304
:1008B0007001FA019481953031F40E94210449813C
:1008C000EA81FB81438310927E010F900F900F907D
:1008D000DF91CF910895E0917901F0917A01EE0FC7
:1008E000FF1FE25FFC4F0190F081E02D8091DD035E
:1008F0009381981740F40E9435030E942D0483E0F1
:1009000080937D01089580E0FBCF1F93CF93DF9309
:10091000CDE6D1E0EC81FD8113E0148388850E944F
:100920001703188BDF91CF911F910C942D0481E058
:1009300080937D010C942D04EF92FF920F931F93EF
:10094000CF93DF93C1E001C0CC0F8A95EAF72091E5
:100950002003309121038091160390911703109288
:10096000DB0310926D0110926E0120936F013093A2
:100970007001109271011092720180937301909333
:100980007401AFEFBFEFCD018093750190937601B5
:10099000A0937701B09378018093790190937A01C5
:1009A000A0937B01B0937C0110927D0110927E0197
:1009B00084E00E94C00303E713E0D0E0F8018191D6
:1009C0008F018C2319F08D2F0E94C003DF5FD4307C
:1009D000A9F70EE613E083EDE82E82E0F82ED1E0D1
:1009E000F80181918F018C2339F0F7018081918189
:1009F000FC01D6870E943405F2E0EF0EF11C83E083
:100A00000337180769F7DF91CF911F910F91FF907E
:100A1000EF9008950E94CF0681110E94EF06E091A9
:100A20007101F091720180819181892B21F0809177
:100A300075010E94C3080C941A080E94CF06811108
:100A40000E94EF06E0917101F09172018081918125
:100A5000892B21F0809175010E94C3080C94FF0737
:100A600081E08093C3030895CF92DF92EF92FF92CB
:100A70000F931F93CF93DF93FC01A081B1810D9061
:100A8000BC91A02D54962D913D915697211531057D
:100A900009F441C0428553856485758500E010E006
:100AA000E901CA84DB84EC84FD844C155D056E0588
:100AB0007F0508F042C0C9018283938304831583B4
:100AC000009719F0EC01EC83FD8301151105F1F19C
:100AD000E801EA83FB835696CD91DD910A851B855B
:100AE0002C853D851897CD90DD90ED90FD90549725
:100AF0000C151D052E053F0570F5C416D506E60636
:100B0000F70628F0401751076207730768F45696F6
:100B1000ED93FD9309C054968D93FD938D93FD93B2
:100B20001482158212821382DF91CF911F910F914F
:100B3000FF90EF90DF90CF900895E9018A819B812B
:100B40008901009709F4B8CF9C01AACF5496ED9380
:100B5000FD935697C0CFC416D506E606F70620F7D4
:100B6000D1CFCF93DF93DC01ED91FD9112970190EE
:100B7000F081E02D12960D90BC91A02D248935892D
:100B80002817390711F4A48BB58B268937892817C4
:100B9000390719F4A68BB78B9D01109739F0EC013A
:100BA0004C815D8114964D935D931697EC018C8179
:100BB0009D81009719F0EC01AA83BB83232B21F4BC
:100BC00084899589868B978BDF91CF910895EF92D9
:100BD000FF920F931F93CF93DF93EC018091C30398
:100BE000811509F4A7C08C859D85AE85BF850196CA
:100BF000A11DB11D8C879D87AE87BF874881598114
:100C00006A817B8184179507A607B70709F092C010
:100C100088899989AA89BB890196A11DB11D4C813A
:100C20005D816E817F81481759076A077B0718F439
:100C3000A0E0B0E0CD01888B998BAA8BBB8B1C8682
:100C40001D861E861F860E891F890115110509F450
:100C500071C0F80142855385648575854817590729
:100C60006A077B0709F066C09F010280F381E02DCF
:100C7000309749F0428553856485758584179507BB
:100C8000A607B70789F3D80114968D919D91009717
:100C900021F0DC011296ED93FD93309711F08483DF
:100CA00095838C899D890817190711F4EC8BFD8BAE
:100CB000309711F4EC89FD89EE8BFF8BF9011282DC
:100CC00013827801D80112960D911D911497ED9120
:100CD000FD910280F381E02DC7010995F70186811E
:100CE0009781A085B18510979040804051F1428551
:100CF000538564857585840F951FA61FB71F4C818A
:100D00005D816E817F81481759076A077B0738F438
:100D1000841B950BA60BB70B0197A109B109F7012D
:100D200082879387A487B587C7010E943405011580
:100D3000110539F6DF91CF911F910F91FF90EF9040
:100D40000895D7011E961C92F2CFFC0182810C946B
:100D5000C003FC01638182810C9400040E94CF06D1
:100D6000809168010895809368010E949C040E940C
:100D700030050C9497040C94330ECF93DF930F92AD
:100D8000CDB7DEB789830E94D002811102C00E94D4
:100D9000800E89810F90DF91CF910C948C0020916F
:100DA000D0032130D1F04091C8035091C903609124
:100DB000CA037091CB038091CC039091CD03A09195
:100DC000CE03B091CF03842B952BA62BB72B21E01C
:100DD000892B8A2B8B2B09F420E0822F0895109207
:100DE000D0031092CC031092CD031092CE03109238
:100DF000CF031092C8031092C9031092CA03109235
:100E0000CB038091C4039091C503A091C603B09118
:100E1000C7038093D1039093D203A093D303B093DD
:100E2000D40308950E94830E8091D1039091D20340
:100E3000A091D303B091D4030196A11DB11D80935D
:100E4000D1039093D203A093D303B093D4038091A2
:100E5000CC039091CD03A091CE03B091CF03019626
:100E6000A11DB11D8093CC039093CD03A093CE031D
:100E7000B093CF0308958091CC039091CD03A091BE
:100E8000CE03B091CF0310979040804069F140911C
:100E9000D1035091D2036091D3037091D403415098
:100EA0005109610971094093D1035093D2036093B2
:100EB000D3037093D4030197A109B1098093CC03A4
:100EC0009093CD03A093CE03B093CF038091D10331
:100ED0009091D203A091D303B091D403892B8A2B94
:100EE0008B2B11F40C94810E08958091CC0390917A
:100EF000CD03A091CE03B091CF034091C803509190
:100F0000C9036091CA037091CB03842B952BA62B48
:100F1000B72B892B8A2B8B2B29F40E94830E81E01F
:100F20008093D00308958091D003811521F0109211
:100F3000D0030C94810E08950E94870E8091D103F6
:100F40009091D203A091D303B091D4030196A11D37
:100F5000B11D8093D1039093D203A093D303B09398
:100F6000D4038091C8039091C903A091CA03B091A2
:100F7000CB030196A11DB11D8093C8039093C903B3
:100F8000A093CA03B093CB0308958091C8039091B6
:100F9000C903A091CA03B091CB0310979040804041
:100FA00069F14091D1035091D2036091D3037091C4
:100FB000D40341505109610971094093D103509301
:100FC000D2036093D3037093D4030197A109B109AD
:100FD0008093C8039093C903A093CA03B093CB0333
:100FE0008091D1039091D203A091D303B091D40307
:100FF000892B8A2B8B2B11F40C94850E08950E945B
:10100000CF06811183E10895CF93DF930F92CDB77F
:10101000DEB789830E94CF0689810E94C00389833D
:1010200080917E0181110E946B0489810F90DF9174
:10103000CF910895CF930E94CF06C82F8111C3E1AD
:10104000E0917101F09172018281815082830E944E
:10105000920381E080937D010E942D048C2FCF911B
:101060000895CF93DF930F92CDB7DEB789830E94A7
:10107000CF06E0917101F0917201828181508283EB
:1010800089810E94C003898381110CC00E94920350
:1010900081E080937D010E942D0489810F90DF9172
:1010A000CF910895E0917101F091720182818F5F7B
:1010B0008283F3CFCF930E94CF06C82F8111C3E163
:1010C000809175010E9417030E946B048091750145
:1010D00090917601A0917701B091780140917901CA
:1010E00050917A0160917B0170917C018417950782
:1010F000A607B70711F40E94EC028C2FCF91089538
:10110000CF93DF9300D0CDB7DEB789839A830E9457
:10111000CF06811183E14091750150917601609174
:10112000770170917801443051056105710514F023
:1011300040912F02E981FA8140830F900F90DF9157
:10114000CF910895CF93DF9300D00F92CDB7DEB744
:1011500089836A837B830E94CF06811183E1998111
:10116000E92FEE0FFF0BE25FFC4F0190F081E02DC5
:1011700094819370EA81FB8190830F900F900F9080
:10118000DF91CF910895E82FEE0FFF0BE25FFC4F48
:10119000A081B181ED91FD911297309771F01D9270
:1011A0001D9280912F02DF010380F481E02D1296C1
:1011B0008D931D921D923097B1F70895CF93DF93D1
:1011C0000F92CDB7DEB789830E94CF06811183E1EC
:1011D0009981E92FF0E0EE0FFF1FE859FC4F0190D5
:1011E000F081E02D909175019283A0917101B091F1
:1011F00072012D913D9123833483FE93EE931396D8
:101200002C911397218390812695291760F4E92F5B
:10121000F0E0EB52FC4F208121502083990F217088
:10122000922B13969C930F90DF91CF910895CF93BB
:10123000DF9300D0CDB7DEB789830E94CF068A83C3
:10124000811511F083E18A838981E82FF0E0EE0FA8
:10125000FF1FE859FC4F0190F081E02DA091710132
:10126000B0917201818113968C931397838194813D
:101270008D939D931382148280912F0282830E940A
:101280006B048A810F900F90DF91CF910895CF93D7
:10129000DF9300D0CDB7DEB789836A830E94CF0683
:1012A0006A8189810E9400048983811105C080912F
:1012B0007E0181110E946B0489810F900F90DF9154
:1012C000CF910895CF93DF930F92CDB7DEB7898387
:1012D0000E94CF06811183E1E0917501EE0FFF0BB3
:1012E000E45FFC4F0190F081E02D298120959081F1
:1012F000922390830F90DF91CF910895CF93DF9346
:1013000000D00F92CDB7DEB789836A837B830E94BA
:10131000CF06811183E19981E92FEE0FFF0BE45F86
:10132000FC4F0190F081E02D9081EA81FB81908358
:101330000F900F900F90DF91CF9108950F931F930F
:10134000CF93DF93C82FE0917501F0917601EE0FF6
:10135000FF1FE45FFC4F008111810E94CF06D82F50
:101360008111D3E1F801C1838081C82311F40E9467
:1013700085048D2FDF91CF911F910F910895DC018E
:10138000ED91FD9184819581DC01ED91FD910994B0
:10139000CF93DF9300D00F92CDB7DEB789836A83F6
:1013A0007B830E94CF06811183E19981E92FF0E0D0
:1013B000EE0FFF1FED52FD4F0190F081E02D0190E7
:1013C000F081E02D0190F081E02D4081518162811A
:1013D0007381AA81BB8114964D935D936D937D9328
:1013E000189744815581668177814D935D936D9304
:1013F0007D9314974085518562857385FD014087F3
:101400005187628773870F900F900F90DF91CF9174
:101410000895CF92DF92EF92FF920F931F93CF9395
:10142000DF9300D0CDB7DEB7182F69837A830E948F
:10143000CF06811183E1E12FF0E0EE0FFF1FED52A7
:10144000FD4F0190F081E02D9685913081F5428528
:101450005385648575850190F081E02D0190F081C0
:10146000E02D0089118922893389401751076207CD
:10147000730740F4C480D580E680F7804C0D5D1D75
:101480006E1D7F1D401B510B620B730BE981FA81AE
:1014900040835183628373830F900F90DF91CF91CC
:1014A0001F910F91FF90EF90DF90CF90089585E00E
:1014B000F3CFAF92BF92CF92DF92EF92FF920F9352
:1014C0001F93CF93DF9300D000D000D0CDB7DEB70D
:1014D00089834A835B836C837D83780189010E94C1
:1014E000CF068E83811511F083E18E83A980EA2DCA
:1014F000F0E0EE0FFF1FED52FD4F0190F081E02D67
:101500008685811145C0A081B1810D90BC91A02D2F
:1015100050964D915D916D917D915497AA80BB80BD
:10152000CC80DD804A0D5B1D6C1D7D1D14968D9158
:101530009D910D90BC91A02D84179507A607B70724
:1015400040F4481B590B6A0B7B0B41505109610950
:1015500071094287538764877587E682F78200871F
:10156000118781E08687CF010E9434058E810F901C
:101570000F900F900F900F900F90DF91CF911F91D0
:101580000F91FF90EF90DF90CF90BF90AF900895B4
:1015900087E08E83EBCFEF92FF920F931F93CF9351
:1015A000DF9300D000D000D0CDB7DEB789834A8367
:1015B0005B836C837D83780189010E94CF068E83D3
:1015C000811511F083E18E839981E92FF0E0EE0F10
:1015D000FF1FED52FD4F0190F081E02D86858111B6
:1015E0001FC08A819B81AC81BD8182879387A4873C
:1015F000B587E682F7820087118781E08687CF0171
:101600000E9434058E810F900F900F900F900F90D5
:101610000F90DF91CF911F910F91FF90EF90089560
:1016200097E09E83EFCF0F931F93CF93182F0E94C5
:10163000CF06C82F8111C3E1E12FF0E0EE0FFF1FAD
:10164000ED52FD4F00811181F8018685813051F402
:10165000C8010E94B105F80116868C2FCF911F9109
:101660000F910895C5E0F9CF8F929F92AF92BF92EC
:10167000CF92DF92EF92FF92CF93DF9300D000D012
:10168000CDB7DEB769837A838B839C830E94F10D8B
:101690006B017C010E94F10D69817A818B819C81B3
:1016A00024E130E040E050E00E94BF1329833A83F8
:1016B0004B835C83A12CB12C450189819A81AB813C
:1016C000BC8188169906AA06BB0679F40F900F9084
:1016D0000F900F90DF91CF91FF90EF90DF90CF9020
:1016E000BF90AF909F908F9008950E94F10D6C195C
:1016F0007D098E099F096431710581059105A8F363
:101700008FEF881A980AA80AB80A0E94F10D6B0197
:101710007C01D3CFCF93DF93CDB7DEB7C054D109CF
:101720000FB6F894DEBF0FBECDBF9E012B5B3F4FBF
:10173000F901419151919F0160E470E0CE01019661
:101740000E94F810BE016F5F7F4F82E997E00E9410
:10175000390FC05CDF4F0FB6F894DEBF0FBECDBFB0
:10176000DF91CF9108951092B0001092B2008CE0FA
:101770008093B10089EF8093B300E0E7F0E08081CF
:10178000816080837894089510928000E1E8F0E011
:101790001082109285001092840080818460808382
:1017A000EFE6808181608083089561E08DE00E9492
:1017B000250D26E040E052EC61E070E082E997E020
:1017C0000E947B1080E392E09F938F930E948A0B8C
:1017D00082E492E09F938F930E948A0B81E392E0D0
:1017E0009F938F930E948A0B0E94B30B0F900F90D0
:1017F0000F900F900F900F900C94C40B8091690183
:1018000090916A01A0916B01B0916C01AC01BD0196
:101810004F5F5F4F6F4F7F4F4093690150936A0155
:1018200060936B0170936C01BF93AF939F938F9301
:1018300083E592E09F938F930E948A0B0F900F9005
:101840000F900F900F900F900C94B4008BE592E0E6
:101850009F938F930E948A0B68EB7BE080E090E07F
:101860000E94340B8BE692E09F938F930E948A0B29
:101870000F900F900F900F900C94B4000F931F9344
:10188000CF93DF930F92CDB7DEB780916A030E94AA
:10189000B0008DE792E09F938F930E948A0B8DE8B2
:1018A00092E09F938F930E948A0B00916D03109199
:1018B0006C03802F812B0E94E0008DE992E09F93C2
:1018C0008F930E948A0BBE016F5F7F4F80916B03E5
:1018D0000E94DC00898180230F900F900F900F9061
:1018E0000F900F90811559F08FEA92E09F938F939C
:1018F0000E948A0B802F0E94D8000F900F90898140
:10190000812359F088EB92E09F938F930E948A0B7A
:10191000812F0E94D8000F900F9081EC92E09F934E
:101920008F930E948A0B0E94B4000F900F900F902B
:10193000DF91CF911F910F91089561E08DE00E949A
:101940005F0D68EE73E080E090E00E94340B60E091
:101950008DE00E945F0D0C94B4001F920F920FB6A1
:101960000F9211242F933F934F935F936F937F9325
:101970008F939F93AF93BF93EF93FF938EE092E08B
:101980000E943501FF91EF91BF91AF919F918F918F
:101990007F916F915F914F913F912F910F900FBE6B
:1019A0000F901F90189586EF91E00C9435011F92CF
:1019B0000F920FB60F9211242F933F934F935F9383
:1019C0006F937F938F939F93AF93BF93EF93FF9307
:1019D0008EED91E00E943501FF91EF91BF91AF91A3
:1019E0009F918F917F916F915F914F913F912F9137
:1019F0000F900FBE0F901F9018950895843081F0BE
:101A000050F48230A9F0833079F4809180008F7790
:101A1000809380000895873071F0883091F00895A8
:101A2000809180008F7DF4CF84B58F7784BD089539
:101A300084B58F7DFBCF8091B0008F778093B0000D
:101A400008958091B0008F7DF9CFCF93DF9390E020
:101A5000FC01E458FF4F249180579F4FFC01849173
:101A60008115C9F090E0880F991FFC01E255FF4FE6
:101A7000A591B591FC01EC55FF4FC591D5919FB74C
:101A800061110CC0F8948C91209582238C938881ED
:101A9000282328839FBFDF91CF910895623051F4AE
:101AA000F8943C91822F809583238C938881822B9C
:101AB0008883F0CFF8948C91822B8C93EBCFCF93CB
:101AC000DF9300D00F92CDB7DEB76983282F30E0C7
:101AD000F901E859FF4F8491F901E458FF4F9491BF
:101AE0009B83F901E057FF4F24912A832115B9F018
:101AF00081110E94FE0C8A81E82FF0E0EE0FFF1F9B
:101B0000EC55FF4FA591B5919FB7F89429818C9121
:101B100021110BC02B81209528232C939FBF0F9060
:101B20000F900F90DF91CF9108952B81822B8C9392
:101B3000F5CF1F920F920FB60F9211242F933F9360
:101B40004F935F936F937F938F939F93AF93BF93C5
:101B5000EF93FF938091890790918A07A0918B075B
:101B6000B0918C073091880723E0230F2D3798F52B
:101B70000196A11DB11D209388078093890790933A
:101B80008A07A0938B07B0938C0780918D07909163
:101B90008E07A0918F07B09190070196A11DB11DEE
:101BA00080938D0790938E07A0938F07B093900733
:101BB0000E94D30CFF91EF91BF91AF919F918F91B4
:101BC0007F916F915F914F913F912F910F900FBE39
:101BD0000F901F90189526E8230F0296A11DB11DA6
:101BE000CACF2FB7F8946091890770918A078091C6
:101BF0008B0790918C072FBF089584B5826084BDB8
:101C000084B5816084BD85B5826085BD85B5816000
:101C100085BDEEE6F0E0808181608083E1E810829E
:101C2000808182608083808181608083E0E8808120
:101C300081608083E1EB808184608083E0EB808140
:101C400081608083EAE78081846080838081826014
:101C5000808380818160808380818068808310920E
:101C6000C1000895FFCFFFCFCF93DF93E82FEE0F92
:101C7000FF0BE85EFC4FA081B18114968D919D9180
:101C800001971497ED91FD91E80FF91F19968C912A
:101C90001D97823079F58CEA90E0892F2CEA30E0AC
:101CA00020839F0121503109E901888316963D91D7
:101CB0002C911797CF010297EC0138830197EC0123
:101CC0002883069726E0EC0119922A95E9F70197F7
:101CD00020E8EC0128830C972CE0EC0119922A955E
:101CE000E9F70D90BC91A02D7797ED93FD93DF91CF
:101CF000CF91089588EC90E0892F28EC30E0D0CF88
:101D0000089578940895F894089578940895F8942F
:101D1000089508950E94FD0D0E94890E0E94FD0CF9
:101D20000E94D50B809191070E94BD0680E090E053
:101D300008958091770380939107089508951F92E5
:101D40000F920FB60F9211242F933F934F935F93EF
:101D50006F937F938F939F93AF93BF93EF93FF9373
:101D6000E0912B02F0912C020995FF91EF91BF9128
:101D7000AF919F918F917F916F915F914F913F9123
:101D80002F910F900FBE0F901F9018951F920F92DA
:101D90000FB60F9211242F933F934F935F936F933E
:101DA0007F938F939F93AF93BF93EF93FF93E091B4
:101DB0002D02F0912E020995FF91EF91BF91AF9105
:101DC0009F918F917F916F915F914F913F912F9153
:101DD0000F900FBE0F901F9018950F931F93CF93E6
:101DE000DF9300D000D000D0CDB7DEB789839A83CF
:101DF0004B835C836D837E8300E010E0AB81BC810C
:101E00000A171B0761F4C8010F900F900F900F90F5
:101E10000F900F90DF91CF911F910F910895A9819D
:101E2000BA81ED91FD910190F081E02DAD81BE81EF
:101E30006C9189819A810995892B29F38D819E81E5
:101E400001968D839E830F5F1F4FD8CFDC016115F4
:101E5000710561F0ED91FD91129722813381CB01E3
:101E60000E94EF10AC01CD01F901099480E090E0EF
:101E700008950C94260F2F932FB72F938F939F9332
:101E8000EF93FF93E091A207F091A3078081E09187
:101E9000A807F091A90782FD19C090818091AB0736
:101EA0008F5F8F732091AC07821741F0E091AB07F1
:101EB000F0E0EE56F84F958F8093AB07FF91EF91CE
:101EC0009F918F912F912FBF2F9118958081F6CFE1
:101ED0001F920F920FB60F9211242F933F934F939F
:101EE0005F936F937F938F939F93AF93BF93EF9382
:101EF000FF9382E997E00E94EE0FFF91EF91BF916F
:101F0000AF919F918F917F916F915F914F913F9191
:101F10002F910F900FBE0F901F901895E2E9F7E0F8
:101F20001282138288EE93E084839583168217824F
:101F300084EB93E08083918385EC8487158684EC21
:101F40008687178680EC808B118A81EC828B138ABE
:101F500082EC848B158A86EC868B178A118E128E02
:101F6000138E148E0895FC01918D228D892F90E09F
:101F7000805C9F4F821B91098F7390E00895FC0154
:101F8000918D828D981731F0828DE80FF11D858D2E
:101F900090E008958FEF9FEF0895FC01918D828D61
:101FA000981761F0A28DAE0FBF2FB11D5D968C9179
:101FB000928D9F5F9F73928F90E008958FEF9FEFB8
:101FC0000895FC01238D348D832F90E0821B9109AD
:101FD000231710F0CF96089501970895FC01A48D62
:101FE000A80FB92FB11DA35ABF4F2C91848D019614
:101FF0008F73848FA689B7892C93A089B1898C911E
:10200000837080648C93938D848D981306C00288AE
:10201000F389E02D80818F7D80830895CF93DF93B6
:10202000EC01888D811111C0DF91CF9108950FB619
:1020300007FC0DC0808185FF0AC0A889B9898C91F1
:1020400085FF05C0CE010E94EE0FEA89FB898081E1
:1020500085FDEDCFA889B9898C9186FFE8CFE4CFC3
:10206000EF92FF920F931F93CF93DF93EC01F62E25
:1020700081E0888F9B8D8C8D98131AC0E889F9892F
:10208000808185FF15C09FB7F894EE89FF89608332
:10209000E889F98980818370806480839FBF81E0B3
:1020A00090E0DF91CF911F910F91FF90EF900895F5
:1020B0000B8D0F5F1F4F0F73E02E8C8D8E1579F0F7
:1020C000EB8DEC0FFD2FF11DE35AFF4FF0829FB710
:1020D000F8940B8FEA89FB8980818062DECF0FB68E
:1020E00007FCEBCFE889F989808185FFE6CFCE0137
:1020F0000E94EE0FE2CFCF92DF92EF92FF92CF934A
:10210000DF9300D00F92CDB7DEB78A839B836A013D
:102110007B012983DC015096ED91FD9182E0808363
:10212000C114B1EEDB06E104F10491F060E079E066
:102130008DE390E09A01A7010E94BF13215031095D
:102140004109510956954795379527953031B0F09B
:10215000AA81BB815096ED91FD91108260E874E8F0
:102160008EE190E09601A7010E94BF132150310932
:10217000410951095695479537952795AA81BB8105
:102180001C96ED91FD913083ED91FD912083189681
:102190001C921497ED91FD91B981B083AA81BB8106
:1021A0005296ED91FD91808180618083FE91EE9148
:1021B000808188608083ED91FD918081806880833B
:1021C000FE91EE9180818F7D80830F900F900F9014
:1021D000DF91CF91FF90EF90DF90CF900895FC01B9
:1021E00001900020E9F7809590958E0F9F1F08952C
:1021F000AEE0B0E0EEEFF0E10C94F7138C01CA0111
:1022000046E04C8309831A83FB016130704810F06B
:10221000E0E0F0E83197ED83FE83A901BC01CE0137
:1022200001960E9425114D815E8157FD0AC02F81C4
:102230003885421753070CF49A01020F131FF80157
:1022400010822E96E4E00C941314ACE0B0E0EBE2C4
:10225000F1E10C94EC135C016B017A01FC01168234
:102260001782838181FFD3C12AE0522EF501238199
:10227000F60123FD859123FF81916F01811509F4FA
:102280002CC1853239F423FD959123FF91916F0183
:10229000953229F4B50190E00E942013E7CF30E099
:1022A000712C00E010E0103210F59B32C9F050F4B0
:1022B0009032B9F09332C9F09E3261F516FD0DC12E
:1022C000106405C09D3279F0903399F41160F601E5
:1022D00023FD959123FF91916F019111E4CF23C0CC
:1022E00012601460F4CF1860F2CF1061F0CF17FDC8
:1022F0001AC080ED890F8A30F8F616FF05C0759C6C
:10230000800D1124782EE3CF059D800D1124082F18
:102310001062DDCF9C3611F41068D9CF9C3409F4DB
:1023200040C09836A1F2892F8F7D85548330D8F133
:10233000933609F45FC0933709F46AC0933509F402
:1023400076C0943619F0993609F0A2C0F70117FF4C
:1023500098C061917191819191917F011F7697FF52
:1023600003C00E94E11310682AE030E04E014FEFF5
:10237000841A940AA4010E946113682E681816FF3B
:10238000D2C0812F8E7F671408F0CCC014FF1DC10E
:1023900012FD11C11E7E972C812F867809F4CEC0C4
:1023A0000FC131E094CF311509F1F8E0EF0EF11CC7
:1023B0008FE3898391E0692E712C4E018FEF881A8B
:1023C000980A1F7713FD04C06016710408F43FC01B
:1023D0006114710409F042C0011509F447CFB50139
:1023E00080E290E00E9420130150F6CF44E0E40E1A
:1023F000F11CDECFF70180818983F2E0EF0EF11C42
:1024000081E0682E712C4E014FEF841A940AD9CFC7
:10241000F701819091907F01672D70E016FD02C059
:102420006FEF7FEFC4010E9415133C01CACFF70183
:10243000819091907F01672D70E016FD02C06FEFD3
:102440007FEFC4010E940A133C011068BBCFB501A5
:1024500080E290E00E9420130150B6CFF40117FDF6
:10246000859117FF81914F01B50190E00E942013E3
:1024700081E0011101C080E0081BF1E06F1A7108D2
:10248000A7CF61917191872F880F880B982F65CF07
:102490009537C9F41F7E1C872AE030E0FC85F7FFE2
:1024A0003BC0F70161917191819191917F014E0142
:1024B0004FEF841A940AA4010E946113682E6818D1
:1024C0001C851F775CCF812F897F8C87903799F08F
:1024D00058F49835B9F09F36E1F0F501868197817F
:1024E0002C96EFE00C9408149837B9F714FD06C049
:1024F00020E130E0D3CF9C8590619C87EC85E4603F
:10250000EC87F6CF14FF02C016601C8720E132E092
:10251000C5CF28E030E0C2CFF7016191719180E032
:1025200090E0C4CF182F962C14FF36CFFE01E60D95
:10253000F11D8081803309F041C0197E13FD0EC06A
:1025400010FF4FC0762C901618F4700E7918902E4C
:10255000802F8919091508F480E0980E901608F06C
:1025600042C0091914FF41C0B50180E390E00E9408
:10257000201312FF09C088E590E011FD02C088E732
:1025800090E0B5010E9420136714D0F14E018FEF47
:10259000881A980A6A94FE013296E60DF11D3F01F1
:1025A000F30182913F01B50190E00E94201368146D
:1025B0007904B1F711CF972C182FB8CF12FD02C0B4
:1025C0009394BCCF93949394B9CF972C182FE4CEC7
:1025D000B50180E290E00E94201383948016C0F33E
:1025E000B7CF892CFBCF00E0BDCF812F867861F279
:1025F00080E211FD8BE217FD8DE2B50190E0C2CFC4
:10260000B50180E390E00E9420137A94BDCF8FEF54
:102610009FEF66CFFC010590615070400110D8F724
:10262000809590958E0F9F1F0895FC01615070401A
:1026300001900110D8F7809590958E0F9F1F0895F7
:10264000A3E0B0E0E6E2F3E10C94F813182F9983CD
:102650006A837B83DB0113968C9181FD09C01FEF98
:10266000BFEFB983812F99812396E3E00C94141472
:1026700082FF1BC0EA81FB8126813781848195819D
:102680002817390754F40190F081E02DCF0101960D
:10269000AA81BB818D939D931083EA81FB81868102
:1026A0009781019686839783DDCFAA81BB81189697
:1026B000ED91FD911A97BD01812F0995892B69F341
:1026C000CECFFA01AA27283051F1203181F1E894C8
:1026D0006F936E7F6E5F7F4F8F4F9F4FAF4FB1E015
:1026E0003ED0B4E03CD0670F781F891F9A1FA11D10
:1026F000680F791F8A1F911DA11D6A0F711D811D11
:10270000911DA11D20D009F468943F912AE0269FD5
:1027100011243019305D3193DEF6CF010895462F34
:102720004770405D4193B3E00FD0C9F7F6CF462F15
:102730004F70405D4A3318F0495D31FD405241937E
:1027400002D0A9F7EACFB4E0A6959795879577953B
:102750006795BA95C9F700976105710508959B01C2
:10276000AC010A2E06945795479537952795BA954B
:10277000C9F7620F731F841F951FA01D0895A1E262
:102780001A2EAA1BBB1BFD010DC0AA1FBB1FEE1FEB
:10279000FF1FA217B307E407F50720F0A21BB30B36
:1027A000E40BF50B661F771F881F991F1A9469F7B2
:1027B00060957095809590959B01AC01BD01CF010E
:1027C000089590958095709561957F4F8F4F9F4F9D
:1027D00008952F923F924F925F926F927F928F92C5
:1027E0009F92AF92BF92CF92DF92EF92FF920F93A0
:1027F0001F93CF93DF93CDB7DEB7CA1BDB0B0FB6AA
:10280000F894DEBF0FBECDBF09942A883988488866
:102810005F846E847D848C849B84AA84B984C884FC
:10282000DF80EE80FD800C811B81AA81B981CE0FF3
:10283000D11D0FB6F894DEBF0FBECDBFED010895D8
:10284000EE0FFF1F0590F491E02D0994F894FFCF4F
:102850000000000000000000000000000000000078
:102860000000000000000000000000000000000068
:102870000000000000000000000000000000000058
:102880000000000000000000000000000000000048
:102890000000000000000000000000000000000038
:1028A0000000000000000000000000000000000028
:1028B0000000000000000000FFFCFFFFFF00005AC6
:1028C0000300003107FFFFFFFFFFFFFFFF0000DDF8
:1028D0000200000000280000002300000002E702C0
:1028E00000000000280000000F00000002F10200BC
:1028F000000000140000000500000002FA020000C1
:1029000000000A00000005000000020303000000B0
:1029100000D1030000D10300000200000004000009
:1029200000000300000000010000000002000100A0
:102930000000FFFF00000100000000000000000098
:1029400000000000000001000000FFFF0000010087
:102950000000000000000000000000000000010076
:102960000000D0070000010000000000000000008F
:102970000000000000000500FF00009E0E9E0EFFFC
:102980000A2E2E2E2E2E2E2E2E2E2E2E2E2E2E2E8B
:102990000A002E2E2E4F53205374617274732E2E04
:1029A0002E0A000A25346C643A20005461736B319E
:1029B00020626567696E732E2E2E005461736B3131
:1029C0002066696E69736865732E2E2E00546173DC
:1029D0006B3220426567696E732E2E2E0054617330
:1029E0006B322057616974732E2E2E2E0054617342
:1029F0006B322057616B65732055702E2E2E005B55
:102A00004576656E74315D005B4576656E74325D4A
:102A1000005461736B322046696E69736865732E6A
:102A20002E2E00BB01AC019D018E017F01DE01BF96
:102A300009E302A9060002DE01BF09ED02A90600B2
:102A400001DE01BF09F702A50600DE01BF09000390
:102A5000A506010E02BF090903A506032D06D9012B
:102A6000D401CF01CA0131074C033E0330032203D6
:102A70005A03E703E9030001FE0B00000304010011
:102A8000E904EB0440009D0C0000020301002B054B
:102A90002D050001260C0000010101002F06310662
:102AA00000013E0C0000000201013607380750000B
:102AB000320E0000040001002602020002010101A2
:102AC0000101010000000000C50793079C0775077E
:102AD0001D0512070A053B075A081709BB064709D7
:102AE0000408620931087E0980089E09B306C809F6
:102AF000AE06090A130B590ADE08CB0AA2081A0807
:102B0000000000003010ED0EE10F0E10B30FCD0FDE
:022B1000BF0FF5
:00000001FF
