:100000000C9454000C943C0E0C94630E0C947C00E5
:100010000C947C000C947C000C947C000C947C0070
:100020000C947C000C94A20C0C947C000C947C002E
:100030000C947C000C947C000C947C000C947C0050
:100040000C94240D0C947C000C94D80E0C94050F89
:100050000C947C000C947C000C947C000C947C0030
:100060000C947C000C947C00010204081020408059
:1000700001020408102001020408102004040404F2
:100080000404040402020202020203030303030342
:1000900000000000250028002B00000000002400C4
:1000A00027002A00180E2B0F11241FBECFEFD8E017
:1000B000DEBFCDBF13E0A0E0B1E0EAE8F7E202C0A6
:1000C00005900D92A632B107D9F728E0A6E2B3E079
:1000D00001C01D92A735B207E1F710E0C4E5D0E0FA
:1000E00004C02197FE010E94BD13C235D107C9F794
:1000F0000E94090E0C94C3130C940000E4E10E94CA
:1001000033010895E2E10E9433010895EAE00E947C
:1001100033010895E1E00E9433010895E3E00E9475
:1001200033010895E7E00E9433010895E5E00E945D
:1001300033010895E0E00E9433010895E2E00E9457
:1001400033010895E4E00E9433010895ECE00E9439
:1001500033010895EBE10E9433010895EEE00E941F
:1001600033010895E8E00E9433010895E0E10E9420
:1001700033010895EAE10E9433010895E6E00E9408
:1001800033010895E8E10E9433010895E9E00E94F7
:1001900033010895EBE00E9433010895EDE00E94E1
:1001A00033010895EFE00E9433010895E1E10E94D8
:1001B00033010895E3E10E9433010895E5E10E94CF
:1001C00033010895E7E10E9433010895E9E10E94B7
:1001D00033010895E6E10E943301089521968A9241
:1001E0009A92AA92BA92CA92DA92EA92FA920A93EE
:1001F0001A932197E0916D01F0916E010080F181D9
:10020000E02DC083D1830895C0916F01D09170011A
:10021000E881F981C081D181219619910991F990E4
:10022000E990D990C990B990A99099908990219717
:1002300008952F903F90E7E6F1E0CDB7DEB7EDBF30
:10024000FEBF3F922F9208952F903F90CDBFDEBF0B
:100250003F922F920895E0E80E9433010895E0E470
:100260000E94330108952F923F924F925F926F92B6
:100270007F922FB62F92CF93DF937E2EF894E0914A
:100280000001EF5FE0930001E13011F40E941901D9
:10029000E0E0E0937D01E72DE07849F00E94E4057D
:1002A000F0917E01F170A1F00E946E0411C0E72D63
:1002B000E07419F00E9430080BC0E72DEC3140F4D7
:1002C000EE0FF0E0E552FD4F0190F081E02D099531
:1002D000F0917D01EF2FE17059F0F27011F00E9462
:1002E000EE008F938F2F0E9456038F910E9404017E
:1002F00020910001215020930001222311F40E943B
:100300002401DF91CF912F902FBE7F906F905F904F
:100310004F903F902F900895FC014081FB01308168
:10032000842F8F7090E0A0E0B0E0B695A7959795E8
:100330008795835C9C4FFC012081F42FF21B2F2FAB
:1003400021704E70242B832F8F7090E0A0E0B0E0DE
:10035000B695A79597958795835C9C4FFC019081F6
:10036000F32FF91B9F2F91703E70932B41E050E0CB
:10037000291708F040E0CA0108958F929F92AF922A
:10038000BF92EF92FF920F931F93CF93DF937C0165
:100390004A015B01B694A794979487944230510523
:1003A0006105710580F08A01000F111F0E0D1F1DE0
:1003B000E401CC0FDD1FCE0DDF1DB801CE010E9480
:1003C0008C01892B59F4DF91CF911F910F91FF90F0
:1003D000EF90BF90AF909F908F900895F80190811B
:1003E0008181288139812083318398838983A40185
:1003F000B501D0CF7F928F929F92AF92BF92CF9252
:10040000DF92EF92FF920F931F93CF93DF938C01B4
:100410004A015B01FC01708064017501CC0CDD1C9C
:10042000EE1CFF1C7C141D041E041F0470F4DF91DD
:10043000CF911F910F91FF90EF90DF90CF90BF90E1
:10044000AF909F908F907F900895C601D70101963D
:10045000A11DB11D781619061A061B0698F0BC01DD
:10046000660F771F600F711FC601880F991F800FDD
:10047000911F0E948C01092E000C0008C80ED91E85
:10048000E01CF01CE601CC0FDD1FC00FD11F880C53
:10049000991C800E911EBE01C4010E948C01892B03
:1004A00031F2F40190818181288139812083318367
:1004B0009883898346015701AFCF409143034F5F33
:1004C0004093430350E060E070E0E82FEE0FFF0B35
:1004D000E858FD4F0190F081E02D2385E22FF0E0F8
:1004E000E35CFC4F908191509083FA01EE0FFF1F67
:1004F000ED5BFC4F9170220F922B9083818383E4FC
:1005000093E00C94BD01409143034F5F409343033C
:1005100050E060E070E0FA01EE0FFF1FED5BFC4F72
:10052000A82FAA0FBB0BA259BD4F0D90BC91A02DB7
:1005300013969C919083818383E493E00C94BD0196
:10054000CF93DF9300D0CDB7DEB7809143039FEF09
:10055000980F90934303909145039A83909146039B
:10056000998390E0880F991FFC01ED5BFC4F80811F
:100570009181809345039093460341E050E060E011
:1005800070E083E493E00E94FA018A8199810F90E0
:100590000F90DF91CF91089580912603811119C0AA
:1005A00040917501509176016091770170917801C9
:1005B0004F3F54076407740789F0443051056105C3
:1005C00071054CF4423051056105710534F481E048
:1005D000089584E0089582E0089583E00895CF931C
:1005E000DF93880F990BFC01E858FD4F0190F081D3
:1005F000E02D0084F185E02D3097C9F02281211192
:1006000016C021E0228382599D4FEC01A881B98157
:1006100013968C9181839081E92FF0E0E35CFC4F8D
:100620008081815080838170990F892B8C93DF9119
:10063000CF910895CF93DF93880F990BFC01E85871
:10064000FD4F0190F081E02D0084F185E02D309781
:1006500061F02281213049F4128282599D4FEC01D0
:10066000A881B981818113968C93DF91CF910895F0
:100670008091790190917A01A0917B01B0917C01E8
:1006800040917501509176016091770170917801E8
:10069000481759076A077B0741F0E0917301F09111
:1006A000740121E024830C9483020895CF93DF9397
:1006B000C0E0D0E0811589F0C0916D01D0916E014C
:1006C000E0917101F09172018481833031F081E019
:1006D0008483809175010E948302E0917301F091FF
:1006E0007401E0937101F093720180916F01909118
:1006F000700180936D0190936E018091790130912A
:100700007A0120917B0190917C0180937501309357
:100710007601209377019093780192E094830E9470
:10072000EF02CE01DF91CF910895CF92DF92EF9249
:10073000FF92C0907501D0907601E0907701F09023
:1007400078018C2D0E941A03E0917101F0917201E1
:1007500082818115B1F085E084831C141D041E0480
:100760001F0454F0F601EE0FFF1FE459FD4F0190F6
:10077000F081E02D11821082FF90EF90DF90CF90FA
:1007800008951482F9CFCF93DF93282F220F330BD4
:10079000F901E259FD4FC081D1819A81F901E858F0
:1007A000FD4F0190F081E02D44859417C8F491111C
:1007B0000EC095E09C8318163CF024593D4FD9019A
:1007C000ED91FD911182108291E090937E010E9443
:1007D0005D028A818F5F8A8380E0DF91CF910895E7
:1007E00084E0FBCFCF93E82FEE0FFF0BE259FD4FD4
:1007F0000190F081E02DC1E0C4830E945D02C093AE
:100800007E01CF910895282F220F330BF901E25971
:10081000FD4F0190F081E02D4481411599F024595C
:100820003D4FD901ED91FD919081962B908391815F
:10083000692311F480E0089511824330D9F70E94B2
:10084000F203F8CF87E00895E82FEE0FFF0BE2598F
:10085000FD4F0190F081E02D108211820C94B30DB8
:10086000CF93DF9300D00F92CDB7DEB70E94A002E6
:100870008983892F592F550F550B909379015093E8
:100880007A0150937B0150937C01292F220F330B67
:10089000F901E259FD4F408151814A835B834093C6
:1008A00073015093740128583D4FF9012081318123
:1008B00020936F0130937001FA019481953031F4E7
:1008C0000E9424044981EA81FB81438310927E01C6
:1008D0000F900F900F90DF91CF910895E0917901E3
:1008E000F0917A01EE0FFF1FE259FD4F0190F08168
:1008F000E02D809145039381981740F40E943803BE
:100900000E94300483E080937D01089580E0FBCF56
:100910001F93CF93DF93CDE6D1E0EC81FD8113E00F
:10092000148388850E941A03188BDF91CF911F9141
:100930000C94300481E080937D010C9430040F937B
:100940001F93CF93DF93C1E001C0CC0F8A95EAF7E4
:100950001C2F20918002309181028091760290912B
:1009600077021092430310926D0110926E01209352
:100970006F01309370011092710110927201809397
:10098000730190937401AFEFBFEFCD0180937501B8
:1009900090937601A0937701B093780180937901C9
:1009A00090937A01A0937B01B0937C0110927D011A
:1009B00010927E0184E00E94C3038091D8028C23B0
:1009C00019F080E00E94C3038091D9028C2319F0B2
:1009D00081E00E94C30380E090E02091D702C12F04
:1009E000C22300915D0210915E02D1E0892B29F0B3
:1009F000DF91CF911F910F910895C115C9F3F801AF
:100A0000D687C8010E94310581E090E0EFCF0E94B7
:100A1000E90681110E940907E0917101F0917201CC
:100A200080819181892B21F0809175010E9441097B
:100A30000C9498080E94E90681110E940907E09130
:100A40007101F091720180819181892B21F0809157
:100A500075010E9441090C94190881E080932703D5
:100A60000895CF92DF92EF92FF920F931F93CF934F
:100A7000DF93FC01A081B1810D90BC91A02D549613
:100A80002D913D9156972115310509F441C04285BC
:100A900053856485758500E010E0E901CA84DB8434
:100AA000EC84FD844C155D056E057F0508F042C0A1
:100AB000C9018283938304831583009719F0EC01A5
:100AC000EC83FD8301151105F1F1E801EA83FB8355
:100AD0005696CD91DD910A851B852C853D8518970D
:100AE000CD90DD90ED90FD9054970C151D052E05D1
:100AF0003F0570F5C416D506E606F70628F0401740
:100B000051076207730768F45696ED93FD9309C089
:100B100054968D93FD938D93FD93148215821282CA
:100B20001382DF91CF911F910F91FF90EF90DF9093
:100B3000CF900895E9018A819B818901009709F48A
:100B4000B8CF9C01AACF5496ED93FD935697C0CF92
:100B5000C416D506E606F70620F7D1CFCF93DF936C
:100B6000DC01ED91FD9112970190F081E02D12963C
:100B70000D90BC91A02D248935892817390711F4CF
:100B8000A48BB58B268937892817390719F4A68BCA
:100B9000B78B9D01109739F0EC014C815D81149663
:100BA0004D935D931697EC018C819D81009719F010
:100BB000EC01AA83BB83232B21F484899589868B3E
:100BC000978BDF91CF910895EF92FF920F931F9330
:100BD000CF93DF93EC0180912703811509F4A7C01F
:100BE0008C859D85AE85BF850196A11DB11D8C8725
:100BF0009D87AE87BF87488159816A817B81841731
:100C00009507A607B70709F092C088899989AA892C
:100C1000BB890196A11DB11D4C815D816E817F81D3
:100C2000481759076A077B0718F4A0E0B0E0CD0128
:100C3000888B998BAA8BBB8B1C861D861E861F8674
:100C40000E891F890115110509F471C0F80142854B
:100C5000538564857585481759076A077B0709F02E
:100C600066C09F010280F381E02D309749F04285F4
:100C700053856485758584179507A607B70789F39B
:100C8000D80114968D919D91009721F0DC01129668
:100C9000ED93FD93309711F0848395838C899D8922
:100CA0000817190711F4EC8BFD8B309711F4EC89C0
:100CB000FD89EE8BFF8BF901128213827801D80136
:100CC00012960D911D911497ED91FD910280F38183
:100CD000E02DC7010995F70186819781A085B1852F
:100CE00010979040804051F1428553856485758509
:100CF000840F951FA61FB71F4C815D816E817F8178
:100D0000481759076A077B0738F4841B950BA60B15
:100D1000B70B0197A109B109F70182879387A487CF
:100D2000B587C7010E9431050115110539F6DF911C
:100D3000CF911F910F91FF90EF900895D7011E96CC
:100D40001C92F2CFFC0182810C94C3030E94E9063D
:100D5000809168010895809368010E949F040E9419
:100D60002D050C949A040C94B20DCF93DF930F923F
:100D7000CDB7DEB789830E94CC02811102C00E94E8
:100D8000FF0D89810F90DF91CF910C948200CF935A
:100D9000DF93282F220F330BF901E259FD4FC08159
:100DA000D1819A8128583D4FD901ED91FD9124853B
:100DB000921760F4911105C09C81911102C095E0D9
:100DC0009C830E945D028A818F5F8A83DF91CF912D
:100DD0000895209138032130D1F040913003509193
:100DE0003103609132037091330380913403909109
:100DF0003503A0913603B0913703842B952BA62B96
:100E0000B72B21E0892B8A2B8B2B09F420E0822F32
:100E10000895109238031092340310923503109203
:100E20003603109237031092300310923103109260
:100E300032031092330380912C0390912D03A091E3
:100E40002E03B0912F038093390390933A03A0931C
:100E50003B03B0933C0308950E94020E8091390336
:100E600090913A03A0913B03B0913C030196A11DE0
:100E7000B11D8093390390933A03A0933B03B09341
:100E80003C038091340390913503A0913603B091D7
:100E900037030196A11DB11D809334039093350350
:100EA000A0933603B0933703089580913403909153
:100EB0003503A0913603B0913703109790408040DE
:100EC00069F14091390350913A0360913B0370916D
:100ED0003C03415051096109710940933903509312
:100EE0003A0360933B0370933C030197A109B10956
:100EF0008093340390933503A0933603B093370364
:100F00008091390390913A03A0913B03B0913C0347
:100F1000892B8A2B8B2B11F40C94000E0895809151
:100F2000340390913503A0913603B091370340917B
:100F30003003509131036091320370913303842B5D
:100F4000952BA62BB72B892B8A2B8B2B29F40E9450
:100F5000020E81E080933803089580913803811553
:100F600021F0109238030C94000E08950E94060E92
:100F70008091390390913A03A0913B03B0913C03D7
:100F80000196A11DB11D8093390390933A03A0935C
:100F90003B03B0933C038091300390913103A091C7
:100FA0003203B09133030196A11DB11D809330032C
:100FB00090933103A0933203B0933303089580914B
:100FC000300390913103A0913203B0913303109715
:100FD0009040804069F14091390350913A0360910B
:100FE0003B0370913C0341505109610971094093E1
:100FF000390350933A0360933B0370933C0301978A
:10100000A109B1098093300390933103A093320377
:10101000B09333038091390390913A03A0913B033D
:10102000B0913C03892B8A2B8B2B11F40C94040E6A
:101030000895CF930E94E906C82F8111C3E1E09182
:101040007101F09172018281815082830E94950327
:1010500081E080937D010E9430048C2FCF91089510
:10106000CF93DF93409128035091290360912A0385
:1010700070912B034F5F5F4F6F4F7F4F409328035B
:101080005093290360932A0370932B03FC01EE0F06
:10109000FF1FEC59FD4FC081D181209739F08A8123
:1010A0009B81892BF1F48C810E94C70680912803D3
:1010B00090912903A0912A03B0912B030197A109D4
:1010C000B1098093280390932903A0932A03B09336
:1010D0002B03892B8A2B8B2B91F4DF91CF910C94CE
:1010E0006E04E881F9810995813019F48C810E94A0
:1010F000C7060A80DB81C02D209799F7D7CFDF91F3
:10110000CF910895CF93DF930F92CDB7DEB7898348
:101110000E94E90689810E94C303898380917E0130
:1011200081110E946E0489810F90DF91CF91089503
:10113000CF930E94E906C82F8111C3E1E0917101AC
:10114000F09172018281815082830E94950381E037
:1011500080937D010E9430048C2FCF910895CF930E
:10116000DF930F92CDB7DEB789830E94E906E09145
:101170007101F091720182818150828389810E9484
:10118000C303898381110CC00E94950381E0809381
:101190007D010E94300489810F90DF91CF910895E5
:1011A000E0917101F091720182818F5F8283F3CFB0
:1011B000CF930E94E906C82F8111C3E18091750188
:1011C0000E941A030E946E0480917501909176012D
:1011D000A0917701B09178014091790150917A0105
:1011E00060917B0170917C0184179507A607B70772
:1011F00011F40E94EF028C2FCF910895CF93DF93CB
:1012000000D0CDB7DEB789839A830E94E9068111A9
:1012100083E1409175015091760160917701709161
:101220007801423051056105710514F04091DB01F0
:10123000E981FA8140830F900F90DF91CF9108955B
:10124000CF93DF9300D00F92CDB7DEB789836A8347
:101250007B830E94E906811183E19981E92FEE0FDA
:10126000FF0BE259FD4F0190F081E02D94819370C6
:10127000EA81FB8190830F900F900F90DF91CF91C7
:101280000895E82FEE0FFF0BE259FD4FA081B181C9
:10129000ED91FD911297309771F01D921D92809102
:1012A000DB01DF010380F481E02D12968D931D9206
:1012B0001D923097B1F70895CF93DF930F92CDB77A
:1012C000DEB789830E94E906811183E19981E92FC4
:1012D000F0E0EE0FFF1FEE52FD4F0190F081E02D88
:1012E000909175019283A0917101B09172012D913D
:1012F0003D9123833483FE93EE9313962C911397A1
:10130000218390812695291760F4E92FF0E0E35CB2
:10131000FC4F208121502083990F2170922B13962E
:101320009C930F90DF91CF910895CF93DF9300D0DE
:10133000CDB7DEB789830E94E9068A83811511F053
:1013400083E18A838981E82FF0E0EE0FFF1FEE52E0
:10135000FD4F0190F081E02DA0917101B0917201DB
:10136000818113968C931397838194818D939D93A0
:10137000138214828091DB0182830E946E048A8131
:101380000F900F90DF91CF910895CF93DF9300D00E
:10139000CDB7DEB789836A830E94E9066A818981B5
:1013A0000E9403048983811105C080917E0181110F
:1013B0000E946E0489810F900F90DF91CF91089564
:1013C000CF93DF930F92CDB7DEB789830E94E906F2
:1013D000811183E1E0917501EE0FFF0BE459FD4FA0
:1013E0000190F081E02D29812095908192239083B6
:1013F0000F90DF91CF910895CF93DF9300D00F929C
:10140000CDB7DEB789836A837B830E94E9068111A9
:1014100083E19981E92FEE0FFF0BE459FD4F019015
:10142000F081E02D9081EA81FB8190830F900F90F5
:101430000F90DF91CF9108950F931F93CF93DF9378
:10144000C82FE0917501F0917601EE0FFF1FE4596E
:10145000FD4F008111810E94E906D82F8111D3E14F
:10146000F801C1838081C82311F40E9488048D2F64
:10147000DF91CF911F910F910895DC01ED91FD91C6
:1014800084819581DC01ED91FD910994CF93DF93E7
:1014900000D00F92CDB7DEB789836A837B830E9429
:1014A000E906811183E19981E92FF0E0EE0FFF1F3A
:1014B000E35AFD4F0190F081E02D0190F081E02D85
:1014C0000190F081E02D4081518162817381AA8178
:1014D000BB8114964D935D936D937D9318974481D2
:1014E0005581668177814D935D936D937D931497BC
:1014F0004085518562857385FD01408751876287EC
:1015000073870F900F900F90DF91CF910895CF9236
:10151000DF92EF92FF920F931F93CF93DF9300D050
:10152000CDB7DEB7182F69837A830E94E90681114F
:1015300083E1E12FF0E0EE0FFF1FE35AFD4F019032
:10154000F081E02D9685913081F542855385648543
:1015500075850190F081E02D0190F081E02D0089EA
:10156000118922893389401751076207730740F4B4
:10157000C480D580E680F7804C0D5D1D6E1D7F1DFB
:10158000401B510B620B730BE981FA81408351833D
:10159000628373830F900F90DF91CF911F910F9112
:1015A000FF90EF90DF90CF90089585E0F3CFAF925A
:1015B000BF92CF92DF92EF92FF920F931F93CF9340
:1015C000DF9300D000D000D0CDB7DEB789834A8347
:1015D0005B836C837D83780189010E94E9068E8399
:1015E000811511F083E18E83A980EA2DF0E0EE0FE2
:1015F000FF1FE35AFD4F0190F081E02D8685811198
:1016000045C0A081B1810D90BC91A02D50964D9107
:101610005D916D917D915497AA80BB80CC80DD80D7
:101620004A0D5B1D6C1D7D1D14968D919D910D9035
:10163000BC91A02D84179507A607B70740F4481B57
:10164000590B6A0B7B0B41505109610971094287A3
:10165000538764877587E682F7820087118781E068
:101660008687CF010E9431058E810F900F900F90D9
:101670000F900F900F90DF91CF911F910F91FF90DE
:10168000EF90DF90CF90BF90AF90089587E08E836A
:10169000EBCFEF92FF920F931F93CF93DF9300D086
:1016A00000D000D0CDB7DEB789834A835B836C83DB
:1016B0007D83780189010E94E9068E83811511F0EE
:1016C00083E18E839981E92FF0E0EE0FFF1FE35A4B
:1016D000FD4F0190F081E02D868581111FC08A8128
:1016E0009B81AC81BD8182879387A487B587E68281
:1016F000F7820087118781E08687CF010E9431053C
:101700008E810F900F900F900F900F900F90DF91A0
:10171000CF911F910F91FF90EF90089597E09E83D6
:10172000EFCF0F931F93CF93182F0E94E906C82F76
:101730008111C3E1E12FF0E0EE0FFF1FE35AFD4FEF
:1017400000811181F8018685813051F4C8010E9421
:10175000AE05F80116868C2FCF911F910F91089539
:10176000C5E0F9CFCF93DF93CDB7DEB7C054D10931
:101770000FB6F894DEBF0FBECDBF9E012B5B3F4F6F
:10178000F901419151919F0160E470E0CE01019611
:101790000E949510BE016F5F7F4F8AEB97E00E9419
:1017A000D60EC05CDF4F0FB6F894DEBF0FBECDBFC4
:1017B000DF91CF9108951092B0001092B2008CE0AA
:1017C0008093B10089EF8093B300E0E7F0E080817F
:1017D000816080837894089561E08DE00E94EA0C36
:1017E00026E040E052EC61E070E08AEB97E00E9476
:1017F00018108CED91E09F938F930E94B20B8EEEA8
:1018000091E09F938F930E94B20B8DED91E09F9397
:101810008F930E94B20B0F900F900F900F900F902C
:101820000F900C94DB0B8091690190916A01A0915B
:101830006B01B0916C01AC01BD014F5F5F4F6F4F09
:101840007F4F4093690150936A0160936B017093DD
:101850006C01BF93AF939F938F938FEF91E09F9312
:101860008F930E94B20B0F900F900F900F900F90DC
:101870000F900C94AA006091D6028091D4020C942F
:10188000CA006091D5028091D4020C94CA000F93D3
:101890001F93CF93DF930F92CDB7DEB787E092E02F
:1018A0009F938F930E94B20B87E192E09F938F9357
:1018B0000E94B20B0091D6021091D502802F812B8D
:1018C0000E94D60087E292E09F938F930E94B20B12
:1018D000BE016F5F7F4F8091D4020E94D200898148
:1018E00080230F900F900F900F900F900F90811505
:1018F00059F089E392E09F938F930E94B20B802F5F
:101900000E94CE000F900F908981812359F082E4CC
:1019100092E09F938F930E94B20B812F0E94CE0082
:101920000F900F908BE492E09F938F930E94B20BE5
:101930000E94AA000F900F900F90DF91CF911F91FE
:101940000F9108951F920F920FB60F9211242F93AB
:101950003F934F935F936F937F938F939F93AF9337
:10196000BF93EF93FF938AEB91E00E942B01FF91CD
:10197000EF91BF91AF919F918F917F916F915F9107
:101980004F913F912F910F900FBE0F901F90189580
:1019900082EA91E00C942B0182E090E00C942F01FC
:1019A00083E090E00C942F0162E082E00E94EA0C58
:1019B00042E050E06CEC7CE080E00E941E0E62E0B1
:1019C00083E00E94EA0C42E050E060ED7CE081E0C0
:1019D0000C941E0ECF93DF9390E0FC01E859FF4F6B
:1019E000249184589F4FFC0184918115C9F090E0A7
:1019F000880F991FFC01E656FF4FA591B591FC0198
:101A0000E057FF4FC591D5919FB761110CC0F89475
:101A10008C91209582238C938881282328839FBFD3
:101A2000DF91CF910895623051F4F8943C91822F68
:101A3000809583238C938881822B8883F0CFF894C0
:101A40008C91822B8C93EBCF1F920F920FB60F923B
:101A500011242F933F934F935F936F937F938F93B3
:101A60009F93AF93BF93EF93FF938091B1079091B2
:101A7000B207A091B307B091B4073091B00723E04B
:101A8000230F2D3798F50196A11DB11D2093B007A6
:101A90008093B1079093B207A093B307B093B407B4
:101AA0008091B5079091B607A091B707B091B8079C
:101AB0000196A11DB11D8093B5079093B607A09321
:101AC000B707B093B8070E94C80CFF91EF91BF9180
:101AD000AF919F918F917F916F915F914F913F91C6
:101AE0002F910F900FBE0F901F90189526E8230F8F
:101AF0000296A11DB11DCACF84B5826084BD84B594
:101B0000816084BD85B5826085BD85B5816085BDF8
:101B1000EEE6F0E0808181608083E1E810828081E0
:101B200082608083808181608083E0E88081816041
:101B30008083E1EB808184608083E0EB8081816041
:101B40008083EAE7808184608083808182608083F3
:101B50008081816080838081806880831092C10051
:101B60000895FFCFFFCFCF93DF93E82FEE0FFF0B4A
:101B7000E858FD4FA081B18114968D919D910197F8
:101B80001497ED91FD91E80FF91F19968C911D970F
:101B9000823079F582EA90E0892F22EA30E02083D2
:101BA0009F0121503109E901888316963D912C91BE
:101BB0001797CF010297EC0138830197EC01288336
:101BC000069726E0EC0119922A95E9F7019720E89B
:101BD000EC0128830C972CE0EC0119922A95E9F787
:101BE0000D90BC91A02D7797ED93FD93DF91CF9150
:101BF00008958EEB90E0892F2EEB30E0D0CF089542
:101C000078940895F894089578940895F894089530
:101C100008950E947C0D0E94080E0E94D40C0E9420
:101C2000EC0B8091B9070E94B50680E090E0089522
:101C30008091DA028093B907089508958230D8F42C
:101C4000E82FF0E0EE0FFF1FE952FE4F7183608333
:101C5000813041F0809169008C7F482B409369006E
:101C6000E89A089580916900440F440F837F482BC0
:101C700040936900E99A08951F920F920FB60F9250
:101C800011242F933F934F935F936F937F938F9381
:101C90009F93AF93BF93EF93FF93E091D701F091A0
:101CA000D8010995FF91EF91BF91AF919F918F91CD
:101CB0007F916F915F914F913F912F910F900FBE48
:101CC0000F901F9018951F920F920FB60F9211242C
:101CD0002F933F934F935F936F937F938F939F9334
:101CE000AF93BF93EF93FF93E091D901F091DA01A5
:101CF0000995FF91EF91BF91AF919F918F917F9146
:101D00006F915F914F913F912F910F900FBE0F9068
:101D10001F9018950F931F93CF93DF9300D000D09F
:101D200000D0CDB7DEB789839A834B835C836D8304
:101D30007E8300E010E0AB81BC810A171B0761F4D1
:101D4000C8010F900F900F900F900F900F90DF91A0
:101D5000CF911F910F910895A981BA81ED91FD91C5
:101D60000190F081E02DAD81BE816C9189819A81D5
:101D70000995892B29F38D819E8101968D839E8300
:101D80000F5F1F4FD8CFDC016115710561F0ED9138
:101D9000FD91129722813381CB010E948C10AC01FE
:101DA000CD01F901099480E090E008950C94C30EF0
:101DB0002F932FB72F938F939F93EF93FF93E091E0
:101DC000CA07F091CB078081E091D007F091D1074D
:101DD00082FD19C090818091D3078F5F8F7320910E
:101DE000D407821741F0E091D307F0E0E654F84FB2
:101DF000958F8093D307FF91EF919F918F912F91B2
:101E00002FBF2F9118958081F6CF1F920F920FB69A
:101E10000F9211242F933F934F935F936F937F9370
:101E20008F939F93AF93BF93EF93FF938AEB97E0CA
:101E30000E948B0FFF91EF91BF91AF919F918F9176
:101E40007F916F915F914F913F912F910F900FBEB6
:101E50000F901F901895EAEBF7E01282138288EE3C
:101E600093E0848395831682178287E193E08083D1
:101E7000918385EC8487158684EC8687178680ECB1
:101E8000808B118A81EC828B138A82EC848B158A79
:101E900086EC868B178A118E128E138E148E0895FF
:101EA000FC01918D228D892F90E0805C9F4F821BD9
:101EB00091098F7390E00895FC01918D828D9817A0
:101EC00031F0828DE80FF11D858D90E008958FEF40
:101ED0009FEF0895FC01918D828D981761F0A28D7E
:101EE000AE0FBF2FB11D5D968C91928D9F5F9F733A
:101EF000928F90E008958FEF9FEF0895FC01238D5E
:101F0000348D832F90E0821B9109231710F0CF9618
:101F1000089501970895FC01A48DA80FB92FB11D54
:101F2000A35ABF4F2C91848D01968F73848FA689FD
:101F3000B7892C93A089B1898C91837080648C932C
:101F4000938D848D981306C00288F389E02D8081DB
:101F50008F7D80830895CF93DF93EC01888D81116D
:101F600011C0DF91CF9108950FB607FC0DC080819D
:101F700085FF0AC0A889B9898C9185FF05C0CE016B
:101F80000E948B0FEA89FB89808185FDEDCFA889AE
:101F9000B9898C9186FFE8CFE4CFEF92FF920F933F
:101FA0001F93CF93DF93EC01F62E81E0888F9B8DFA
:101FB0008C8D98131AC0E889F989808185FF15C036
:101FC0009FB7F894EE89FF896083E889F989808159
:101FD0008370806480839FBF81E090E0DF91CF9128
:101FE0001F910F91FF90EF9008950B8D0F5F1F4F82
:101FF0000F73E02E8C8D8E1579F0EB8DEC0FFD2F8D
:10200000F11DE35AFF4FF0829FB7F8940B8FEA89D6
:10201000FB8980818062DECF0FB607FCEBCFE889B9
:10202000F989808185FFE6CFCE010E948B0FE2CF38
:10203000CF92DF92EF92FF92CF93DF9300D00F9277
:10204000CDB7DEB78A839B836A017B012983DC01DC
:102050005096ED91FD9182E08083C114B1EEDB06D4
:10206000E104F10491F060E079E08DE390E09A0101
:10207000A7010E945C13215031094109510956956D
:102080004795379527953031B0F0AA81BB8150969E
:10209000ED91FD91108260E874E88EE190E0960188
:1020A000A7010E945C13215031094109510956953D
:1020B000479537952795AA81BB811C96ED91FD9197
:1020C0003083ED91FD91208318961C921497ED9129
:1020D000FD91B981B083AA81BB815296ED91FD91AA
:1020E000808180618083FE91EE9180818860808311
:1020F000ED91FD91808180688083FE91EE918081D9
:102100008F7D80830F900F900F90DF91CF91FF9084
:10211000EF90DF90CF900895FC0101900020E9F747
:10212000809590958E0F9F1F0895AEE0B0E0EBE98B
:10213000F0E10C9494138C01CA0146E04C830983AE
:102140001A83FB016130704810F0E0E0F0E831974D
:10215000ED83FE83A901BC01CE0101960E94C2104D
:102160004D815E8157FD0AC02F8138854217530784
:102170000CF49A01020F131FF80110822E96E4E06E
:102180000C94B013ACE0B0E0E8ECF0E10C948913EF
:102190005C016B017A01FC0116821782838181FF49
:1021A000D3C12AE0522EF5012381F60123FD85914A
:1021B00023FF81916F01811509F42CC1853239F417
:1021C00023FD959123FF91916F01953229F4B5017B
:1021D00090E00E94BD12E7CF30E0712C00E010E0EB
:1021E000103210F59B32C9F050F49032B9F09332AE
:1021F000C9F09E3261F516FD0DC1106405C09D3217
:1022000079F0903399F41160F60123FD959123FF45
:1022100091916F019111E4CF23C012601460F4CF4B
:102220001860F2CF1061F0CF17FD1AC080ED890F52
:102230008A30F8F616FF05C0759C800D1124782EA3
:10224000E3CF059D800D1124082F1062DDCF9C3651
:1022500011F41068D9CF9C3409F440C09836A1F22B
:10226000892F8F7D85548330D8F1933609F45FC070
:10227000933709F46AC0933509F476C0943619F09F
:10228000993609F0A2C0F70117FF98C061917191CA
:10229000819191917F011F7697FF03C00E947E1369
:1022A00010682AE030E04E014FEF841A940AA4012E
:1022B0000E94FE12682E681816FFD2C0812F8E7FF2
:1022C000671408F0CCC014FF1DC112FD11C11E7EA1
:1022D000972C812F867809F4CEC00FC131E094CFBE
:1022E000311509F1F8E0EF0EF11C8FE3898391E0DD
:1022F000692E712C4E018FEF881A980A1F7713FDF3
:1023000004C06016710408F43FC06114710409F040
:1023100042C0011509F447CFB50180E290E00E9468
:10232000BD120150F6CF44E0E40EF11CDECFF70100
:1023300080818983F2E0EF0EF11C81E0682E712C20
:102340004E014FEF841A940AD9CFF70181909190F2
:102350007F01672D70E016FD02C06FEF7FEFC401B3
:102360000E94B2123C01CACFF701819091907F0187
:10237000672D70E016FD02C06FEF7FEFC4010E9471
:10238000A7123C011068BBCFB50180E290E00E942B
:10239000BD120150B6CFF40117FD859117FF819151
:1023A0004F01B50190E00E94BD1281E0011101C012
:1023B00080E0081BF1E06F1A7108A7CF619171915D
:1023C000872F880F880B982F65CF9537C9F41F7E0C
:1023D0001C872AE030E0FC85F7FF3BC0F7016191E4
:1023E0007191819191917F014E014FEF841A940A6E
:1023F000A4010E94FE12682E68181C851F775CCF0E
:10240000812F897F8C87903799F058F49835B9F0EF
:102410009F36E1F0F501868197812C96EFE00C94D0
:10242000A5139837B9F714FD06C020E130E0D3CFEB
:102430009C8590619C87EC85E460EC87F6CF14FF67
:1024400002C016601C8720E132E0C5CF28E030E0F2
:10245000C2CFF7016191719180E090E0C4CF182F55
:10246000962C14FF36CFFE01E60DF11D80818033DE
:1024700009F041C0197E13FD0EC010FF4FC0762C2D
:10248000901618F4700E7918902E802F891909155E
:1024900008F480E0980E901608F042C0091914FF65
:1024A00041C0B50180E390E00E94BD1212FF09C057
:1024B00088E590E011FD02C088E790E0B5010E9438
:1024C000BD126714D0F14E018FEF881A980A6A94F2
:1024D000FE013296E60DF11D3F01F30182913F01AD
:1024E000B50190E00E94BD1268147904B1F711CFD4
:1024F000972C182FB8CF12FD02C09394BCCF9394A1
:102500009394B9CF972C182FE4CEB50180E290E0D8
:102510000E94BD1283948016C0F3B7CF892CFBCFE5
:1025200000E0BDCF812F867861F280E211FD8BE261
:1025300017FD8DE2B50190E0C2CFB50180E390E0D8
:102540000E94BD127A94BDCF8FEF9FEF66CFFC0142
:102550000590615070400110D8F7809590958E0FCE
:102560009F1F0895FC016150704001900110D8F741
:10257000809590958E0F9F1F0895A3E0B0E0E3EC47
:10258000F2E10C949513182F99836A837B83DB0106
:1025900013968C9181FD09C01FEFBFEFB983812F86
:1025A00099812396E3E00C94B11382FF1BC0EA816A
:1025B000FB8126813781848195812817390754F45E
:1025C0000190F081E02DCF010196AA81BB818D930E
:1025D0009D931083EA81FB81868197810196868392
:1025E0009783DDCFAA81BB811896ED91FD911A9753
:1025F000BD01812F0995892B69F3CECFFA01AA2756
:10260000283051F1203181F1E8946F936E7F6E5F35
:102610007F4F8F4F9F4FAF4FB1E03ED0B4E03CD0E3
:10262000670F781F891F9A1FA11D680F791F8A1FC6
:10263000911DA11D6A0F711D811D911DA11D20D02D
:1026400009F468943F912AE0269F11243019305DE7
:102650003193DEF6CF010895462F4770405D4193D8
:10266000B3E00FD0C9F7F6CF462F4F70405D4A3325
:1026700018F0495D31FD4052419302D0A9F7EACFED
:10268000B4E0A6959795879577956795BA95C9F71C
:1026900000976105710508959B01AC010A2E06940F
:1026A0005795479537952795BA95C9F7620F731FC8
:1026B000841F951FA01D0895A1E21A2EAA1BBB1B03
:1026C000FD010DC0AA1FBB1FEE1FFF1FA217B307FE
:1026D000E407F50720F0A21BB30BE40BF50B661F14
:1026E000771F881F991F1A9469F7609570958095D8
:1026F00090959B01AC01BD01CF0108959095809507
:10270000709561957F4F8F4F9F4F08952F923F9205
:102710004F925F926F927F928F929F92AF92BF92F1
:10272000CF92DF92EF92FF920F931F93CF93DF939D
:10273000CDB7DEB7CA1BDB0B0FB6F894DEBF0FBEFA
:10274000CDBF09942A88398848885F846E847D8447
:102750008C849B84AA84B984C884DF80EE80FD8049
:102760000C811B81AA81B981CE0FD11D0FB6F894BF
:10277000DEBF0FBECDBFED010895EE0FFF1F059028
:0A278000F491E02D0994F894FFCFC6
:10278A00000000000000000000000000000000003F
:10279A00000000000000000000000000000000002F
:1027AA00000000000000000000000000000000001F
:1027BA00000000000000000000000000000000000F
:1027CA0000000000000000000000000000000000FF
:1027DA0000000000000000000000000000000000EF
:1027EA000000000000000000FFFCFFFFFF0000C423
:1027FA000200005907FFFFFFFFFFFFFFFF00005F16
:10280A000200000000D1030000D103000002000012
:10281A0000050000000004000000000200000000A3
:10282A00010401000000FFFF000001000000000099
:10283A000000000000000000000001000000D007B6
:10284A00000001000000000000000000000000007D
:10285A0000000300FF00001D0E1D0EFF0A2E2E2E83
:10286A002E2E2E2E2E2E2E2E2E2E2E2E0A002E2ED0
:10287A002E4F53205374617274732E2E2E0A000A3F
:10288A0025346C643A20005461736B3120426567C9
:10289A00696E732E2E2E005461736B312057616955
:1028AA0074732E2E2E2E005461736B312057616B78
:1028BA0065732055702E2E2E005B4576656E743139
:1028CA005D005B4576656E74325D005461736B31F1
:1028DA002046696E69736865732E2E2E007F01BAD1
:1028EA00013D0A6502A206019502820255069D0172
:1028FA00980193018E015907B602A8029A0287022B
:10290A00C40200000000034F0351030001410C0000
:10291A0000030501020000000002510453040001F3
:10292A003B0C000002040102530555050001130C7B
:10293A00000001020100570659060001470C000079
:10294A00000101015E0760075000B10D000004009C
:10295A000100D20100020101010000DF07AD07B644
:10296A00078F071A052C0707055507D8089509B3D5
:10297A0006C5098208E009AF08FC09FE081C0AAB73
:10298A0006460AA606870A910BD70A5C09490B2054
:10299A0009980800000000CD0F8A0E7E0FAB0F5079
:0629AA000F6A0F5C0F0034
:00000001FF
