:100000000C9454000C94D40C0C94FB0C0C947C00B9
:100010000C947C000C947C000C947C000C947C0070
:100020000C947C000C94690B0C947C000C947C0068
:100030000C947C000C947C000C947C000C947C0050
:100040000C94CE0B0C947C000C94700D0C949D0DB4
:100050000C947C000C947C000C947C000C947C0030
:100060000C947C000C947C00010204081020408059
:1000700001020408102001020408102004040404F2
:100080000404040402020202020203030303030342
:1000900000000000250028002B00000000002400C4
:1000A00027002A00CE0CC30D11241FBECFEFD8E0CD
:1000B000DEBFCDBF13E0A0E0B1E0EAEBF4E202C0A6
:1000C00005900D92A033B107D9F728E0A0E3B3E083
:1000D00001C01D92AB35B207E1F710E0C4E5D0E0F6
:1000E00004C02197FE010E945512C235D107C9F7FD
:1000F0000E94BF0C0C945B120C940000E2E10E9481
:1001000023010895E9E00E9423010895EAE00E9496
:1001100023010895E1E00E9423010895E3E00E9495
:1001200023010895E7E00E9423010895E5E00E947D
:1001300023010895E0E00E9423010895E2E00E9477
:1001400023010895E4E00E9423010895ECE00E9459
:1001500023010895E8E00E9423010895EEE00E9443
:1001600023010895E4E10E9423010895E0E10E9443
:1001700023010895E7E10E9423010895E6E00E942B
:1001800023010895EBE00E9423010895EDE00E9411
:1001900023010895EFE00E9423010895E1E10E9408
:1001A00023010895E3E10E9423010895E5E10E94FF
:1001B00023010895E6E10E942301089521968A9281
:1001C0009A92AA92BA92CA92DA92EA92FA920A930E
:1001D0001A932197E0916D01F0916E010080F181F9
:1001E000E02DC083D1830895C0916F01D09170013B
:1001F000E881F981C081D181219619910991F99005
:10020000E990D990C990B990A99099908990219737
:1002100008952F903F90E7E6F1E0CDB7DEB7EDBF50
:10022000FEBF3F922F9208952F903F90CDBFDEBF2B
:100230003F922F920895E0E80E9423010895E0E4A0
:100240000E94230108952F923F924F925F926F92E6
:100250007F922FB62F92CF93DF937E2EF894E0916A
:100260000001EF5FE0930001E13011F40E94090109
:10027000E0E0E0937D01E72DE07849F00E9456052B
:10028000F0917E01F17071F00E94F4030BC0E72D34
:10029000EC3140F4EE0FF0E0E251FD4F0190F081BF
:1002A000E02D0995F0917D01EF2FE17059F0F2708A
:1002B00011F00E94DE008F938F2F0E9439038F91DF
:1002C0000E94F4002091000121502093000122237C
:1002D00011F40E941401DF91CF912F902FBE7F90D7
:1002E0006F905F904F903F902F900895FC01408158
:1002F000FB013081842F8F7090E0A0E0B0E0B695D4
:10030000A795979587958D5B9C4FFC012081F42FD5
:10031000F21B2F2F21704E70242B832F8F7090E0B3
:10032000A0E0B0E0B695A795979587958D5B9C4F1B
:10033000FC019081F32FF91B9F2F91703E70932B3E
:1003400041E050E0291708F040E0CA0108958F927B
:100350009F92AF92BF92EF92FF920F931F93CF9312
:10036000DF937C014A015B01B694A794979487942C
:10037000423051056105710580F08A01000F111F9F
:100380000E0D1F1DE401CC0FDD1FCE0DDF1DB801CA
:10039000CE010E947601892B59F4DF91CF911F91F4
:1003A0000F91FF90EF90BF90AF909F908F90089526
:1003B000F80190818181288139812083318398835C
:1003C0008983A401B501D0CF7F928F929F92AF9283
:1003D000BF92CF92DF92EF92FF920F931F93CF9332
:1003E000DF938C014A015B01FC017080640175019F
:1003F000CC0CDD1CEE1CFF1C7C141D041E041F0411
:1004000070F4DF91CF911F910F91FF90EF90DF90EB
:10041000CF90BF90AF909F908F907F900895C6012E
:10042000D7010196A11DB11D781619061A061B06E3
:1004300098F0BC01660F771F600F711FC601880F0F
:10044000991F800F911F0E947601092E000C000851
:10045000C80ED91EE01CF01CE601CC0FDD1FC00F3A
:10046000D11F880C991C800E911EBE01C4010E94F0
:100470007601892B31F2F4019081818128813981C3
:10048000208331839883898346015701AFCF409100
:1004900049034F5F4093490350E060E070E0E82F6C
:1004A000EE0FFF0BED56FD4F0190F081E02D2385FF
:1004B000E22FF0E0ED5BFC4F908191509083FA01C8
:1004C000EE0FFF1FE75BFC4F9170220F922B908382
:1004D000818389E493E00C94A701409149034F5F25
:1004E0004093490350E060E070E0FA01EE0FFF1F17
:1004F000E75BFC4FA82FAA0FBB0BA757BD4F0D9072
:10050000BC91A02D13969C919083818389E493E004
:100510000C94A701CF93DF9300D0CDB7DEB78091C5
:1005200049039FEF980F9093490390914B039A834F
:1005300090914C03998390E0880F991FFC01E75B31
:10054000FC4F8081918180934B0390934C0341E059
:1005500050E060E070E089E493E00E94E4018A8169
:1005600099810F900F90DF91CF9108958091300382
:10057000811115C04091750150917601609177010C
:10058000709178014F3F54076407740751F081E080
:10059000443051056105710524F082E0089584E03E
:1005A00008950895CF93DF93880F990BFC01ED56C2
:1005B000FD4F0190F081E02D0084F185E02D309712
:1005C000C9F02281211116C021E0228387579D4F57
:1005D000EC01A881B98113968C9181839081E92FD8
:1005E000F0E0ED5BFC4F8081815080838170990F3A
:1005F000892B8C93DF91CF910895CF93DF93880F50
:10060000990BFC01ED56FD4F0190F081E02D008427
:10061000F185E02D309761F02281213049F412827A
:1006200087579D4FEC01A881B981818113968C93E6
:10063000DF91CF9108958091790190917A01A091F5
:100640007B01B0917C0140917501509176016091E0
:10065000770170917801481759076A077B0741F0C5
:10066000E0917301F091740121E024830C946D02F8
:100670000895CF93DF93C0E0D0E0811589F0C09159
:100680006D01D0916E01E0917101F0917201848150
:10069000833031F081E08483809175010E946D0286
:1006A000E0917301F0917401E0937101F093720194
:1006B00080916F019091700180936D0190936E0114
:1006C0008091790130917A0120917B0190917C0198
:1006D0008093750130937601209377019093780190
:1006E00092E094830E94D202CE01DF91CF910895CF
:1006F000809175010E94FD02E0917101F0917201FB
:100700008281811185E084830895CF93DF93282F20
:10071000220F330BF901E757FD4FC081D1819A8138
:100720002D563D4FD901ED91FD912485921780F40E
:10073000911105C095E09C8391E090937E010E9409
:1007400047028A818F5F8A8380E0DF91CF9108958D
:1007500084E0FBCFE82FEE0FFF0BE757FD4F019032
:10076000F081E02D108211820C94690CCF93DF93FD
:1007700000D00F92CDB7DEB70E948A028983892FFD
:10078000592F550F550B9093790150937A0150933F
:100790007B0150937C01292F220F330BF901E7577E
:1007A000FD4F408151814A835B8340937301509395
:1007B00074012D563D4FF9012081318120936F0145
:1007C00030937001FA019481953031F40E94AA03AC
:1007D0004981EA81FB81438310927E010F900F9043
:1007E0000F90DF91CF910895E0917901F0917A0116
:1007F000EE0FFF1FE757FD4F0190F081E02D809134
:100800004B039381981740F40E941B030E94B60388
:1008100083E080937D01089580E0FBCF81E08093A9
:100820007D010C94B6030F931F93CF93DF93C1E028
:1008300001C0CC0F8A95EAF720919B0230919C026F
:1008400080919102909192021092490310926D0151
:1008500010926E0120936F0130937001109271011C
:10086000109272018093730190937401AFEFBFEF08
:10087000CD018093750190937601A0937701B09399
:1008800078018093790190937A01A0937B01B093D2
:100890007C0110927D0110927E0184E00E9485030C
:1008A00009EE12E0D0E0F80181918F018C2319F05C
:1008B0008D2F0E948503DF5FD430A9F780E090E0A0
:1008C0002091E802C22300917E0210917F02D1E0C4
:1008D000892B29F0DF91CF911F910F910895C115B8
:1008E000C9F3F801D687C8010E94A30481E090E013
:1008F000EFCF0E94390681110E945906E0917101E3
:10090000F091720180819181892B21F08091750194
:100910000E942D080C9484070E94390681110E94C0
:100920005906E0917101F091720180819181892BCA
:1009300021F0809175010E942D080C94690781E0D7
:10094000809331030895CF92DF92EF92FF920F933D
:100950001F93CF93DF93FC01A081B1810D90BC91D7
:10096000A02D54962D913D9156972115310509F4EE
:1009700041C0428553856485758500E010E0E9013A
:10098000CA84DB84EC84FD844C155D056E057F050F
:1009900008F042C0C90182839383048315830097C2
:1009A00019F0EC01EC83FD8301151105F1F1E8016B
:1009B000EA83FB835696CD91DD910A851B852C85B4
:1009C0003D851897CD90DD90ED90FD9054970C15D6
:1009D0001D052E053F0570F5C416D506E606F7067B
:1009E00028F0401751076207730768F45696ED9395
:1009F000FD9309C054968D93FD938D93FD931482BE
:100A0000158212821382DF91CF911F910F91FF9077
:100A1000EF90DF90CF900895E9018A819B81890151
:100A2000009709F4B8CF9C01AACF5496ED93FD939B
:100A30005697C0CFC416D506E606F70620F7D1CFE5
:100A4000CF93DF93DC01ED91FD9112970190F0813E
:100A5000E02D12960D90BC91A02D24893589281780
:100A6000390711F4A48BB58B2689378928173907E4
:100A700019F4A68BB78B9D01109739F0EC014C81CE
:100A80005D8114964D935D931697EC018C819D8149
:100A9000009719F0EC01AA83BB83232B21F48489EE
:100AA0009589868B978BDF91CF910895EF92FF9276
:100AB0000F931F93CF93DF93EC0180913103811546
:100AC00009F4A7C08C859D85AE85BF850196A11DC3
:100AD000B11D8C879D87AE87BF87488159816A8108
:100AE0007B8184179507A607B70709F092C088890C
:100AF0009989AA89BB890196A11DB11D4C815D818F
:100B00006E817F81481759076A077B0718F4A0E0B8
:100B1000B0E0CD01888B998BAA8BBB8B1C861D8680
:100B20001E861F860E891F890115110509F471C0E3
:100B3000F8014285538564857585481759076A070A
:100B40007B0709F066C09F010280F381E02D30979A
:100B500049F0428553856485758584179507A607F6
:100B6000B70789F3D80114968D919D91009721F0D4
:100B7000DC011296ED93FD93309711F084839583F9
:100B80008C899D890817190711F4EC8BFD8B309720
:100B900011F4EC89FD89EE8BFF8BF901128213822F
:100BA0007801D80112960D911D911497ED91FD9148
:100BB0000280F381E02DC7010995F70186819781B5
:100BC000A085B18510979040804051F142855385B2
:100BD00064857585840F951FA61FB71F4C815D81A5
:100BE0006E817F81481759076A077B0738F4841B99
:100BF000950BA60BB70B0197A109B109F7018287E5
:100C00009387A487B587C7010E94A3040115110526
:100C100039F6DF91CF911F910F91FF90EF900895DA
:100C2000D7011E961C92F2CFFC0182810C948503A1
:100C30000E943906809168010895809368010E949E
:100C400013040E949F040C940E040C94680CCF9320
:100C5000DF930F92CDB7DEB789830E94B602811170
:100C600002C00E94B50C89810F90DF91CF910C9446
:100C7000820020913E032130D1F040913603509103
:100C80003703609138037091390380913A03909152
:100C90003B03A0913C03B0913D03842B952BA62BE5
:100CA000B72B21E0892B8A2B8B2B09F420E0822F94
:100CB000089510923E0310923A0310923B03109253
:100CC0003C0310923D0310923603109237031092AA
:100CD0003803109239038091320390913303A0912D
:100CE0003403B091350380933F0390934003A09366
:100CF0004103B093420308950E94B80C80913F03D2
:100D000090914003A0914103B09142030196A11D2F
:100D1000B11D80933F0390934003A0934103B09390
:100D2000420380913A0390913B03A0913C03B09120
:100D30003D030196A11DB11D80933A0390933B039F
:100D4000A0933C03B0933D03089580913A039091A2
:100D50003B03A0913C03B0913D031097904080402D
:100D600069F140913F0350914003609141037091BC
:100D70004203415051096109710940933F03509367
:100D8000400360934103709342030197A109B109A5
:100D900080933A0390933B03A0933C03B0933D03AD
:100DA00080913F0390914003A0914103B091420391
:100DB000892B8A2B8B2B11F40C94B60C08958091FF
:100DC0003A0390913B03A0913C03B0913D034091C5
:100DD0003603509137036091380370913903842BA7
:100DE000952BA62BB72B892B8A2B8B2B29F40E94B2
:100DF000B80C81E080933E03089580913E038115F5
:100E000021F010923E030C94B60C08950E94BC0C85
:100E100080913F0390914003A0914103B091420320
:100E20000196A11DB11D80933F0390934003A093B1
:100E30004103B09342038091360390913703A09110
:100E40003803B09139030196A11DB11D809336037B
:100E500090933703A0933803B0933903089580919A
:100E6000360390913703A0913803B091390310975E
:100E70009040804069F140913F0350914003609160
:100E80004103709142034150510961097109409336
:100E90003F035093400360934103709342030197D3
:100EA000A109B1098093360390933703A0933803C7
:100EB000B093390380913F0390914003A091410387
:100EC000B0914203892B8A2B8B2B11F40C94BA0C12
:100ED00008950E943906811183E10895CF93DF932D
:100EE0000F92CDB7DEB789830E94390689810E94AF
:100EF0008503898380917E0181110E94F403898199
:100F00000F90DF91CF910895CF930E943906C82F9B
:100F10008111C3E1E0917101F091720182818150F0
:100F200082830E94780381E080937D010E94B60352
:100F30008C2FCF910895CF93DF930F92CDB7DEB76B
:100F400089830E943906E0917101F09172018281DA
:100F50008150828389810E948503898381110CC01D
:100F60000E94780381E080937D010E94B60389810D
:100F70000F90DF91CF910895E0917101F09172018E
:100F800082818F5F8283F3CFCF930E943906C82F6F
:100F90008111C3E1809175010E94FD020E94F4035A
:100FA0008091750190917601A0917701B0917801BF
:100FB0004091790150917A0160917B0170917C019F
:100FC00084179507A607B70711F40E94D2028C2F49
:100FD000CF910895CF93DF9300D0CDB7DEB789834B
:100FE0009A830E943906811183E1409175015091E5
:100FF0007601609177017091780144305105610567
:10100000710514F04091DB01E981FA8140830F9072
:101010000F90DF91CF910895CF93DF9300D00F927F
:10102000CDB7DEB789836A837B830E94390681113D
:1010300083E19981E92FEE0FFF0BE757FD4F0190F8
:10104000F081E02D94819370EA81FB8190830F9071
:101050000F900F90DF91CF910895E82FEE0FFF0BC7
:10106000E757FD4FA081B181ED91FD911297309727
:1010700071F01D921D928091DB01DF010380F481EC
:10108000E02D12968D931D921D923097B1F7089521
:10109000CF93DF930F92CDB7DEB789830E943906D5
:1010A000811183E19981E92FF0E0EE0FFF1FED51EF
:1010B000FD4F0190F081E02D909175019283A091F8
:1010C0007101B09172012D913D9123833483FE9380
:1010D000EE9313962C9113972183908126952917CF
:1010E00060F4E92FF0E0ED5BFC4F2081215020837C
:1010F000990F2170922B13969C930F90DF91CF91B3
:101100000895CF93DF9300D0CDB7DEB789830E94D7
:1011100039068A83811511F083E18A838981E82F5A
:10112000F0E0EE0FFF1FED51FD4F0190F081E02D3B
:10113000A0917101B0917201818113968C931397E4
:10114000838194818D939D93138214828091DB011E
:1011500082830E94F4038A810F900F90DF91CF91D8
:101160000895DC01ED91FD9184819581DC01ED9183
:10117000FD910994CF93DF9300D00F92CDB7DEB7E6
:1011800089836A837B830E943906811183E1998177
:10119000E92FF0E0EE0FFF1FE258FD4F0190F081C4
:1011A000E02D0190F081E02D0190F081E02D408153
:1011B000518162817381AA81BB8114964D935D93A5
:1011C0006D937D93189744815581668177814D9306
:1011D0005D936D937D9314974085518562857385EA
:1011E000FD0140875187628773870F900F900F90A2
:1011F000DF91CF910895CF92DF92EF92FF920F93FC
:101200001F93CF93DF9300D0CDB7DEB7182F69833C
:101210007A830E943906811183E1E12FF0E0EE0F1D
:10122000FF1FE258FD4F0190F081E02D968591302F
:1012300081F542855385648575850190F081E02DA7
:101240000190F081E02D00891189228933894017AE
:1012500051076207730740F4C480D580E680F780A9
:101260004C0D5D1D6E1D7F1D401B510B620B730BE2
:10127000E981FA8140835183628373830F900F90D9
:10128000DF91CF911F910F91FF90EF90DF90CF9062
:10129000089585E0F3CFAF92BF92CF92DF92EF92A5
:1012A000FF920F931F93CF93DF9300D000D000D015
:1012B000CDB7DEB789834A835B836C837D837801F6
:1012C00089010E9439068E83811511F083E18E8396
:1012D000A980EA2DF0E0EE0FFF1FE258FD4F0190CC
:1012E000F081E02D8685811145C0A081B1810D90EE
:1012F000BC91A02D50964D915D916D917D9154972B
:10130000AA80BB80CC80DD804A0D5B1D6C1D7D1DDD
:1013100014968D919D910D90BC91A02D84179507E9
:10132000A607B70740F4481B590B6A0B7B0B4150CB
:101330005109610971094287538764877587E6827D
:10134000F7820087118781E08687CF010E94A3047E
:101350008E810F900F900F900F900F900F90DF9154
:10136000CF911F910F91FF90EF90DF90CF90BF90A2
:10137000AF90089587E08E83EBCFEF92FF920F93AB
:101380001F93CF93DF9300D000D000D0CDB7DEB74E
:1013900089834A835B836C837D83780189010E9402
:1013A00039068E83811511F083E18E839981E92FAF
:1013B000F0E0EE0FFF1FE258FD4F0190F081E02DAD
:1013C000868581111FC08A819B81AC81BD81828706
:1013D0009387A487B587E682F7820087118781E02B
:1013E0008687CF010E94A3048E810F900F900F90EB
:1013F0000F900F900F90DF91CF911F910F91FF9061
:10140000EF90089597E09E83EFCF0F931F93CF93B4
:10141000182F0E943906C82F8111C3E1E12FF0E097
:10142000EE0FFF1FE258FD4F00811181F801868504
:10143000813051F4C8010E942005F80116868C2FD6
:10144000CF911F910F910895C5E0F9CF8F929F9290
:10145000AF92BF92CF92DF92EF92FF92CF93DF9342
:1014600000D000D0CDB7DEB769837A838B839C83AD
:101470000E94260C6B017C010E94260C69817A81F6
:101480008B819C8124E130E040E050E00E94F41127
:1014900029833A834B835C83A12CB12C450189813C
:1014A0009A81AB81BC8188169906AA06BB0679F49D
:1014B0000F900F900F900F90DF91CF91FF90EF90D2
:1014C000DF90CF90BF90AF909F908F9008950E9433
:1014D000260C6C197D098E099F09643171058105FF
:1014E0009105A8F38FEF881A980AA80AB80A0E94F3
:1014F000260C6B017C01D3CFCF93DF93CDB7DEB742
:10150000C054D1090FB6F894DEBF0FBECDBF9E0107
:101510002B5B3F4FF901419151919F0160E470E0D5
:10152000CE0101960E942D0FBE016F5F7F4F8EEBA3
:1015300097E00E946E0DC05CDF4F0FB6F894DEBFDF
:101540000FBECDBFDF91CF9108951092B0001092E1
:10155000B2008CE08093B10089EF8093B300E0E7A4
:10156000F0E08081816080837894089561E08DE06F
:101570000E94940B26E040E052EC61E070E08EEBBC
:1015800097E00E94B00E8CED91E09F938F930E94A4
:101590007C0A8EEE91E09F938F930E947C0A8DEDE2
:1015A00091E09F938F930E947C0A0F900F900F9071
:1015B0000F900F900F900C94A50A80916901909163
:1015C0006A01A0916B01B0916C01892B8A2B8B2B46
:1015D00021F48091E7020E94A60080916901909118
:1015E0006A01A0916B01B0916C01AC01BD014F5F2C
:1015F0005F4F6F4F7F4F4093690150936A01609333
:101600006B0170936C01BF93AF939F938F938FEF98
:1016100091E09F938F930E947C0A0F900F900F9000
:101620000F900F900F900C94AA0087E092E09F9388
:101630008F930E947C0A68EB7BE080E090E00E9440
:10164000260A8091E6020E94A60068EB7BE080E01B
:1016500090E00E94260A89E192E09F938F930E9476
:101660007C0A0F900F900F900F900C94AA008EE2BE
:1016700092E09F938F930E947C0A68EB7BE080E06E
:1016800090E00E94260A82E492E09F938F930E944A
:101690007C0A0F900F900F900F908091E5020C94B0
:1016A000AE0086E592E09F938F930E947C0A68EBE0
:1016B0007BE080E090E00E94260A8AE692E09F9319
:1016C0008F930E947C0A0F900F900F900F900C94B4
:1016D000AA001F920F920FB60F9211242F933F93DF
:1016E0004F935F936F937F938F939F93AF93BF932A
:1016F000EF93FF938AEB91E00E941B01FF91EF9122
:10170000BF91AF919F918F917F916F915F914F9119
:101710003F912F910F900FBE0F901F90189582EA66
:1017200091E00C941B010895CF93DF9390E0FC01AE
:10173000E859FF4F249184589F4FFC0184918115F3
:10174000C9F090E0880F991FFC01E656FF4FA59164
:10175000B591FC01E057FF4FC591D5919FB761113D
:101760000CC0F8948C91209582238C938881282337
:1017700028839FBFDF91CF910895623051F4F89490
:101780003C91822F809583238C938881822B888340
:10179000F0CFF8948C91822B8C93EBCF1F920F9209
:1017A0000FB60F9211242F933F934F935F936F9334
:1017B0007F938F939F93AF93BF93EF93FF9380910A
:1017C000B5079091B607A091B707B091B8073091CF
:1017D000B40723E0230F2D3798F50196A11DB11D05
:1017E0002093B4078093B5079093B607A093B707EB
:1017F000B093B8078091B9079091BA07A091BB0741
:10180000B091BC070196A11DB11D8093B9079093BB
:10181000BA07A093BB07B093BC070E948F0BFF9140
:10182000EF91BF91AF919F918F917F916F915F9158
:101830004F913F912F910F900FBE0F901F901895D1
:1018400026E8230F0296A11DB11DCACF2FB7F89429
:101850006091B5077091B6078091B7079091B8076E
:101860002FBF089584B5826084BD84B5816084BD36
:1018700085B5826085BD85B5816085BDEEE6F0E009
:10188000808181608083E1E8108280818260808332
:10189000808181608083E0E8808181608083E1EBEA
:1018A000808184608083E0EB808181608083EAE7CF
:1018B0008081846080838081826080838081816078
:1018C00080838081806880831092C1000895FFCF5B
:1018D000FFCFCF93DF93E82FEE0FFF0BED56FD4FB9
:1018E000A081B18114968D919D9101971497ED91EE
:1018F000FD91E80FF91F19968C911D97823079F5AB
:1019000082EA90E0892F22EA30E020839F01215073
:101910003109E901888316963D912C911797CF01E3
:101920000297EC0138830197EC012883069726E0A3
:10193000EC0119922A95E9F7019720E8EC01288338
:101940000C972CE0EC0119922A95E9F70D90BC91C7
:10195000A02D7797ED93FD93DF91CF9108958EEBB6
:1019600090E0892F2EEB30E0D0CF08957894089541
:10197000F894089578940895F894089508950E942D
:10198000320C0E94BE0C0E94930B0E94B60A8091FA
:10199000BD070E94270680E090E008958091ED0247
:1019A0008093BD07089508951F920F920FB60F926E
:1019B00011242F933F934F935F936F937F938F9354
:1019C0009F93AF93BF93EF93FF93E091D701F09173
:1019D000D8010995FF91EF91BF91AF919F918F91A0
:1019E0007F916F915F914F913F912F910F900FBE1B
:1019F0000F901F9018951F920F920FB60F921124FF
:101A00002F933F934F935F936F937F938F939F9306
:101A1000AF93BF93EF93FF93E091D901F091DA0177
:101A20000995FF91EF91BF91AF919F918F917F9118
:101A30006F915F914F913F912F910F900FBE0F903B
:101A40001F9018950F931F93CF93DF9300D000D072
:101A500000D0CDB7DEB789839A834B835C836D83D7
:101A60007E8300E010E0AB81BC810A171B0761F4A4
:101A7000C8010F900F900F900F900F900F90DF9173
:101A8000CF911F910F910895A981BA81ED91FD9198
:101A90000190F081E02DAD81BE816C9189819A81A8
:101AA0000995892B29F38D819E8101968D839E83D3
:101AB0000F5F1F4FD8CFDC016115710561F0ED910B
:101AC000FD91129722813381CB010E94240FAC013A
:101AD000CD01F901099480E090E008950C945B0D2C
:101AE0002F932FB72F938F939F93EF93FF93E091B3
:101AF000CE07F091CF078081E091D407F091D50710
:101B000082FD19C090818091D7078F5F8F732091DC
:101B1000D807821741F0E091D707F0E0E254F84F80
:101B2000958F8093D707FF91EF919F918F912F9180
:101B30002FBF2F9118958081F6CF1F920F920FB66D
:101B40000F9211242F933F934F935F936F937F9343
:101B50008F939F93AF93BF93EF93FF938EEB97E099
:101B60000E94230EFF91EF91BF91AF919F918F91B2
:101B70007F916F915F914F913F912F910F900FBE89
:101B80000F901F901895EEEBF7E01282138288EE0B
:101B900093E0848395831682178282E293E08083A8
:101BA000918385EC8487158684EC8687178680EC84
:101BB000808B118A81EC828B138A82EC848B158A4C
:101BC00086EC868B178A118E128E138E148E0895D2
:101BD000FC01918D228D892F90E0805C9F4F821BAC
:101BE00091098F7390E00895FC01918D828D981773
:101BF00031F0828DE80FF11D858D90E008958FEF13
:101C00009FEF0895FC01918D828D981761F0A28D50
:101C1000AE0FBF2FB11D5D968C91928D9F5F9F730C
:101C2000928F90E008958FEF9FEF0895FC01238D30
:101C3000348D832F90E0821B9109231710F0CF96EB
:101C4000089501970895FC01A48DA80FB92FB11D27
:101C5000A35ABF4F2C91848D01968F73848FA689D0
:101C6000B7892C93A089B1898C91837080648C93FF
:101C7000938D848D981306C00288F389E02D8081AE
:101C80008F7D80830895CF93DF93EC01888D811140
:101C900011C0DF91CF9108950FB607FC0DC0808170
:101CA00085FF0AC0A889B9898C9185FF05C0CE013E
:101CB0000E94230EEA89FB89808185FDEDCFA889EA
:101CC000B9898C9186FFE8CFE4CFEF92FF920F9312
:101CD0001F93CF93DF93EC01F62E81E0888F9B8DCD
:101CE0008C8D98131AC0E889F989808185FF15C009
:101CF0009FB7F894EE89FF896083E889F98980812C
:101D00008370806480839FBF81E090E0DF91CF91FA
:101D10001F910F91FF90EF9008950B8D0F5F1F4F54
:101D20000F73E02E8C8D8E1579F0EB8DEC0FFD2F5F
:101D3000F11DE35AFF4FF0829FB7F8940B8FEA89A9
:101D4000FB8980818062DECF0FB607FCEBCFE8898C
:101D5000F989808185FFE6CFCE010E94230EE2CF74
:101D6000CF92DF92EF92FF92CF93DF9300D00F924A
:101D7000CDB7DEB78A839B836A017B012983DC01AF
:101D80005096ED91FD9182E08083C114B1EEDB06A7
:101D9000E104F10491F060E079E08DE390E09A01D4
:101DA000A7010E94F41121503109410951095695AA
:101DB0004795379527953031B0F0AA81BB81509671
:101DC000ED91FD91108260E874E88EE190E096015B
:101DD000A7010E94F411215031094109510956957A
:101DE000479537952795AA81BB811C96ED91FD916A
:101DF0003083ED91FD91208318961C921497ED91FC
:101E0000FD91B981B083AA81BB815296ED91FD917C
:101E1000808180618083FE91EE91808188608083E3
:101E2000ED91FD91808180688083FE91EE918081AB
:101E30008F7D80830F900F900F90DF91CF91FF9057
:101E4000EF90DF90CF900895FC0101900020E9F71A
:101E5000809590958E0F9F1F0895AEE0B0E0E3E36C
:101E6000FFE00C942C128C01CA0146E04C830983DC
:101E70001A83FB016130704810F0E0E0F0E8319720
:101E8000ED83FE83A901BC01CE0101960E945A0F89
:101E90004D815E8157FD0AC02F8138854217530757
:101EA0000CF49A01020F131FF80110822E96E4E041
:101EB0000C944812ACE0B0E0E0E6FFE00C94211294
:101EC0005C016B017A01FC0116821782838181FF1C
:101ED000D3C12AE0522EF5012381F60123FD85911D
:101EE00023FF81916F01811509F42CC1853239F4EA
:101EF00023FD959123FF91916F01953229F4B5014E
:101F000090E00E945511E7CF30E0712C00E010E026
:101F1000103210F59B32C9F050F49032B9F0933280
:101F2000C9F09E3261F516FD0DC1106405C09D32E9
:101F300079F0903399F41160F60123FD959123FF18
:101F400091916F019111E4CF23C012601460F4CF1E
:101F50001860F2CF1061F0CF17FD1AC080ED890F25
:101F60008A30F8F616FF05C0759C800D1124782E76
:101F7000E3CF059D800D1124082F1062DDCF9C3624
:101F800011F41068D9CF9C3409F440C09836A1F2FE
:101F9000892F8F7D85548330D8F1933609F45FC043
:101FA000933709F46AC0933509F476C0943619F072
:101FB000993609F0A2C0F70117FF98C0619171919D
:101FC000819191917F011F7697FF03C00E941612A5
:101FD00010682AE030E04E014FEF841A940AA40101
:101FE0000E949611682E681816FFD2C0812F8E7F2E
:101FF000671408F0CCC014FF1DC112FD11C11E7E74
:10200000972C812F867809F4CEC00FC131E094CF90
:10201000311509F1F8E0EF0EF11C8FE3898391E0AF
:10202000692E712C4E018FEF881A980A1F7713FDC5
:1020300004C06016710408F43FC06114710409F013
:1020400042C0011509F447CFB50180E290E00E943B
:1020500055110150F6CF44E0E40EF11CDECFF7013C
:1020600080818983F2E0EF0EF11C81E0682E712CF3
:102070004E014FEF841A940AD9CFF70181909190C5
:102080007F01672D70E016FD02C06FEF7FEFC40186
:102090000E944A113C01CACFF701819091907F01C3
:1020A000672D70E016FD02C06FEF7FEFC4010E9444
:1020B0003F113C011068BBCFB50180E290E00E9467
:1020C00055110150B6CFF40117FD859117FF81918D
:1020D0004F01B50190E00E94551181E0011101C04E
:1020E00080E0081BF1E06F1A7108A7CF6191719130
:1020F000872F880F880B982F65CF9537C9F41F7EDF
:102100001C872AE030E0FC85F7FF3BC0F7016191B6
:102110007191819191917F014E014FEF841A940A40
:10212000A4010E949611682E68181C851F775CCF49
:10213000812F897F8C87903799F058F49835B9F0C2
:102140009F36E1F0F501868197812C96EFE00C94A3
:102150003D129837B9F714FD06C020E130E0D3CF27
:102160009C8590619C87EC85E460EC87F6CF14FF3A
:1021700002C016601C8720E132E0C5CF28E030E0C5
:10218000C2CFF7016191719180E090E0C4CF182F28
:10219000962C14FF36CFFE01E60DF11D80818033B1
:1021A00009F041C0197E13FD0EC010FF4FC0762C00
:1021B000901618F4700E7918902E802F8919091531
:1021C00008F480E0980E901608F042C0091914FF38
:1021D00041C0B50180E390E00E94551112FF09C093
:1021E00088E590E011FD02C088E790E0B5010E940B
:1021F00055116714D0F14E018FEF881A980A6A942E
:10220000FE013296E60DF11D3F01F30182913F017F
:10221000B50190E00E94551168147904B1F711CF0F
:10222000972C182FB8CF12FD02C09394BCCF939473
:102230009394B9CF972C182FE4CEB50180E290E0AB
:102240000E94551183948016C0F3B7CF892CFBCF21
:1022500000E0BDCF812F867861F280E211FD8BE234
:1022600017FD8DE2B50190E0C2CFB50180E390E0AB
:102270000E9455117A94BDCF8FEF9FEF66CFFC017E
:102280000590615070400110D8F7809590958E0FA1
:102290009F1F0895FC016150704001900110D8F714
:1022A000809590958E0F9F1F0895A3E0B0E0EBE519
:1022B000F1E10C942D12182F99836A837B83DB0143
:1022C00013968C9181FD09C01FEFBFEFB983812F59
:1022D00099812396E3E00C94491282FF1BC0EA81A6
:1022E000FB8126813781848195812817390754F431
:1022F0000190F081E02DCF010196AA81BB818D93E1
:102300009D931083EA81FB81868197810196868364
:102310009783DDCFAA81BB811896ED91FD911A9725
:10232000BD01812F0995892B69F3CECFFA01AA2728
:10233000283051F1203181F1E8946F936E7F6E5F08
:102340007F4F8F4F9F4FAF4FB1E03ED0B4E03CD0B6
:10235000670F781F891F9A1FA11D680F791F8A1F99
:10236000911DA11D6A0F711D811D911DA11D20D000
:1023700009F468943F912AE0269F11243019305DBA
:102380003193DEF6CF010895462F4770405D4193AB
:10239000B3E00FD0C9F7F6CF462F4F70405D4A33F8
:1023A00018F0495D31FD4052419302D0A9F7EACFC0
:1023B000B4E0A6959795879577956795BA95C9F7EF
:1023C00000976105710508959B01AC010A2E0694E2
:1023D0005795479537952795BA95C9F7620F731F9B
:1023E000841F951FA01D0895A1E21A2EAA1BBB1BD6
:1023F000FD010DC0AA1FBB1FEE1FFF1FA217B307D1
:10240000E407F50720F0A21BB30BE40BF50B661FE6
:10241000771F881F991F1A9469F7609570958095AA
:1024200090959B01AC01BD01CF01089590958095D9
:10243000709561957F4F8F4F9F4F08952F923F92D8
:102440004F925F926F927F928F929F92AF92BF92C4
:10245000CF92DF92EF92FF920F931F93CF93DF9370
:10246000CDB7DEB7CA1BDB0B0FB6F894DEBF0FBECD
:10247000CDBF09942A88398848885F846E847D841A
:102480008C849B84AA84B984C884DF80EE80FD801C
:102490000C811B81AA81B981CE0FD11D0FB6F89492
:1024A000DEBF0FBECDBFED010895EE0FFF1F0590FB
:0A24B000F491E02D0994F894FFCF99
:1024BA000000000000000000000000000000000012
:1024CA000000000000000000000000000000000002
:1024DA0000000000000000000000000000000000F2
:1024EA0000000000000000000000000000000000E2
:1024FA0000000000000000000000000000000000D2
:10250A0000000000000000000000000000000000C1
:10251A000000000000000000FFFCFFFFFF0000D5E4
:10252A000200005D07FFFFFFFFFFFFFFFF000080C3
:10253A000200000000D1030000D1030000020000E5
:10254A000004000000000300000000020000000078
:10255A00010001000000FFFF000001000000000070
:10256A000000000000000000000001000000D00789
:10257A000000010000000000000000000000000050
:10258A0000000500FF0000D30CD30CFF0A2E2E2EEC
:10259A002E2E2E2E2E2E2E2E2E2E2E2E0A002E2EA3
:1025AA002E4F53205374617274732E2E2E0A000A12
:1025BA0025346C643A20005461736B31206265677C
:1025CA00696E732E2E2E2E2E005461736B31206687
:1025DA00696E69736865732E2E2E2E2E2E00546135
:1025EA00736B3220626569676E732E2E2E2E2E2E25
:1025FA002E005461736B322066696E697368657365
:10260A002E2E2E2E2E005461736B3320626569675D
:10261A006E732E2E2E2E2E2E2E005461736B3320A7
:10262A0066696E69736865732E2E2E2E2E007F01E1
:10263A00BA01B10886021406039D01980193018E1E
:10264A00015D07C702B902AB029D02D502550357C5
:10265A00030001DD0A0000030401005704590400C5
:10266A0001510B00000203010059055B0500013707
:10267A000B0000010201005B065D060001150B005C
:10268A000000010100620764075000670C000004A3
:10269A00000100D2010201000100000000002F0722
:1026AA00FD060607DF068C047C067904A506840766
:1026BA001D06250648086E0781089B07BA08EA071F
:1026CA00FB0818064B09C407BD09050A0C080000D7
:1026DA000000650E220D160E430EE80D020EF40DD3
:00000001FF
