:100000000C9454000C946C0E0C94930E0C947C0085
:100010000C947C000C947C000C947C000C947C0070
:100020000C947C000C94010D0C947C000C947C00CE
:100030000C947C000C947C000C947C000C947C0050
:100040000C94660D0C947C000C94080F0C94350FE6
:100050000C947C000C947C000C947C000C947C0030
:100060000C947C000C947C00010204081020408059
:1000700001020408102001020408102004040404F2
:100080000404040402020202020203030303030342
:1000900000000000250028002B00000000002400C4
:1000A00027002A00660E5B0F11241FBECFEFD8E099
:1000B000DEBFCDBF13E0A0E0B1E0EAEEF7E202C0A0
:1000C00005900D92A83FB107D9F728E0A8EFB3E05B
:1000D00001C01D92A333B207E1F710E0C4E5D0E000
:1000E00004C02197FE010E94ED13C235D107C9F764
:1000F0000E94570E0C94F3130C940000E4E10E944C
:1001000033010895E2E10E9433010895EAE00E947C
:1001100033010895E1E00E9433010895E3E00E9475
:1001200033010895E7E00E9433010895E5E00E945D
:1001300033010895E0E00E9433010895E2E00E9457
:1001400033010895E4E00E9433010895ECE00E9439
:1001500033010895EBE10E9433010895EEE00E941F
:1001600033010895E8E00E9433010895E0E10E9420
:1001700033010895EAE10E9433010895E6E00E9408
:1001800033010895E8E10E9433010895E9E00E94F7
:1001900033010895EBE00E9433010895EDE00E94E1
:1001A00033010895EFE00E9433010895E1E10E94D8
:1001B00033010895E3E10E9433010895E5E10E94CF
:1001C00033010895E7E10E9433010895E9E10E94B7
:1001D00033010895E6E10E943301089521968A9241
:1001E0009A92AA92BA92CA92DA92EA92FA920A93EE
:1001F0001A932197E0916D01F0916E010080F181D9
:10020000E02DC083D1830895C0916F01D09170011A
:10021000E881F981C081D181219619910991F990E4
:10022000E990D990C990B990A99099908990219717
:1002300008952F903F90E7E6F1E0CDB7DEB7EDBF30
:10024000FEBF3F922F9208952F903F90CDBFDEBF0B
:100250003F922F920895E0E80E9433010895E0E470
:100260000E94330108952F923F924F925F926F92B6
:100270007F922FB62F92CF93DF937E2EF894E0914A
:100280000001EF5FE0930001E13011F40E941901D9
:10029000E0E0E0937D01E72DE07849F00E94DE0583
:1002A000F0917E01F17071F00E946A040BC0E72D9D
:1002B000EC3140F4EE0FF0E0E255FC4F0190F0819C
:1002C000E02D0995F0917D01EF2FE17059F0F2706A
:1002D00011F00E94EE008F938F2F0E9451038F9197
:1002E0000E9404012091000121502093000122234B
:1002F00011F40E942401DF91CF912F902FBE7F90A7
:100300006F905F904F903F902F900895FC01408137
:10031000FB013081842F8F7190E0A0E0B0E022E0FB
:10032000B695A795979587952A95D1F7895E9B4FA6
:10033000FC012081F42FF21B2F2F23704C71242BF2
:10034000832F8F7190E0A0E0B0E042E0B695A795D2
:10035000979587954A95D1F7895E9B4FFC019081CF
:10036000F32FF91B9F2F93703C71932B41E050E0CA
:10037000291708F040E0CA0108958F929F92AF922A
:10038000BF92EF92FF920F931F93CF93DF937C0165
:100390004A015B01B694A794979487944230510523
:1003A0006105710580F08A01000F111F0E0D1F1DE0
:1003B000E401CC0FDD1FCE0DDF1DB801CE010E9480
:1003C0008601892B59F4DF91CF911F910F91FF90F6
:1003D000EF90BF90AF909F908F900895F80190811B
:1003E0008181288139812083318398838983A40185
:1003F000B501D0CF7F928F929F92AF92BF92CF9252
:10040000DF92EF92FF920F931F93CF93DF938C01B4
:100410004A015B01FC01708064017501CC0CDD1C9C
:10042000EE1CFF1C7C141D041E041F0470F4DF91DD
:10043000CF911F910F91FF90EF90DF90CF90BF90E1
:10044000AF909F908F907F900895C601D70101963D
:10045000A11DB11D781619061A061B0698F0BC01DD
:10046000660F771F600F711FC601880F991F800FDD
:10047000911F0E948601092E000C0008C80ED91E8B
:10048000E01CF01CE601CC0FDD1FC00FD11F880C53
:10049000991C800E911EBE01C4010E948601892B09
:1004A00031F2F40190818181288139812083318367
:1004B0009883898346015701AFCF40911D044F5F58
:1004C00040931D0450E060E070E0E82FEE0FFF0B5A
:1004D000E35AFC4F0190F081E02D9385E92FF0E085
:1004E000E95EFB4F208121502083FA01EE0FFF1FB0
:1004F000E35EFB4F2370990F990F922B90838183BA
:100500008DE194E00C94BD0140911D044F5F409338
:100510001D0450E060E070E0FA01EE0FFF1FE35EA3
:10052000FB4FA82FAA0FBB0BAB5ABC4F0D90BC9131
:10053000A02D13969C91908381838DE194E00C947F
:10054000BD01CF93DF9300D0CDB7DEB780911D04FE
:100550009FEF980F90931D0490911F049A839091A0
:100560002004998390E0880F991FFC01E35EFB4F04
:100570008081918180931F049093200441E050E09A
:1005800060E070E08DE194E00E94FA018A81998137
:100590000F900F90DF91CF9108958091F803811112
:1005A00015C040917501509176016091770170916D
:1005B00078014F3F54076407740751F081E04330DE
:1005C00051056105710524F082E0089584E00895E5
:1005D0000895CF93DF93880F990BFC01E35AFC4FEA
:1005E0000190F081E02D0084F185E02D3097D1F06D
:1005F0002281211117C021E022838B5A9C4FEC01EC
:10060000A881B98113968C9181838081E82FF0E0D5
:10061000E95EFB4F9081915090839370880F880F13
:10062000892B8C93DF91CF910895CF93DF93880F1F
:10063000990BFC01E35AFC4F0190F081E02D0084FE
:10064000F185E02D309761F02281213049F412824A
:100650008B5A9C4FEC01A881B981818113968C93B0
:10066000DF91CF9108958091790190917A01A091C5
:100670007B01B0917C0140917501509176016091B0
:10068000770170917801481759076A077B0741F095
:10069000E0917301F091740121E024830C948402B1
:1006A0000895CF93DF93C0E0D0E0811589F0C09129
:1006B0006D01D0916E01E0917101F0917201848120
:1006C000833031F081E08483809175010E9484023F
:1006D000E0917301F0917401E0937101F093720164
:1006E00080916F019091700180936D0190936E01E4
:1006F0008091790130917A0120917B0190917C0168
:10070000809375013093760120937701909378015F
:1007100092E094830E94E902CE01DF91CF91089587
:10072000CF92DF92EF92FF92C0907501D090760148
:10073000E0907701F09078018C2D0E941503E091F4
:100740007101F091720182818115B9F085E0848395
:1007500082E0C816D104E104F10454F4F601EE0F6E
:10076000FF1FEF5AFC4F0190F081E02D11821082A3
:10077000FF90EF90DF90CF9008951482F9CFCF9340
:10078000DF93282F220F330BF901EB5AFC4FC08166
:10079000D1819A81F901E35AFC4F0190F081E02D5B
:1007A00044859417C8F491110EC095E09C83823063
:1007B0003CF42F5A3C4FD901ED91FD9111821082EA
:1007C00091E090937E010E945D028A818F5F8A830F
:1007D00080E0DF91CF91089584E0FBCFCF93E82FA5
:1007E000EE0FFF0BEB5AFC4F0190F081E02DC1E0C2
:1007F000C4830E945D02C0937E01CF910895282F8B
:10080000220F330BF901EB5AFC4F0190F081E02DE0
:100810004481411599F02F5A3C4FD901ED91FD913A
:100820009081962B90839181692311F480E0089543
:1008300011824330D9F70E94EE03F8CF87E0089584
:10084000E82FEE0FFF0BEB5AFC4F0190F081E02DEB
:10085000108211820C94010ECF93DF9300D00F927F
:10086000CDB7DEB70E94A1028983892F592F550F7A
:10087000550B9093790150937A0150937B015093DB
:100880007C01292F220F330BF901EB5AFC4F4081D9
:1008900051814A835B834093730150937401235ABF
:1008A0003C4FF9012081318120936F013093700119
:1008B000FA019481953031F40E9420044981EA8143
:1008C000FB81438310927E010F900F900F90DF9178
:1008D000CF910895E0917901F0917A01EE0FFF1F19
:1008E000EB5AFC4F0190F081E02D80911F04938121
:1008F000981740F40E9433030E942C0483E08093F5
:100900007D01089580E0FBCF1F93CF93DF93CDE669
:10091000D1E0EC81FD8113E0148388850E941503EA
:10092000188BDF91CF911F910C942C0481E0809360
:100930007D010C942C040F931F93CF93DF93C1E0A0
:1009400001C0CC0F8A95EAF72091630330916403CC
:1009500080915B0390915C0310921D0410926D01D5
:1009600010926E0120936F0130937001109271010B
:10097000109272018093730190937401AFEFBFEFF7
:10098000CD018093750190937601A0937701B09388
:1009900078018093790190937A01A0937B01B093C1
:1009A0007C0110927D0110927E0183E00E94BF03C2
:1009B0000AEA13E0D0E0F80181918F018C2319F04D
:1009C0008D2F0E94BF03DF5FD330A9F780E090E056
:1009D0002091A903C2230091460310914703D1E05F
:1009E000892B29F0DF91CF911F910F910895C115A7
:1009F000C9F3F801D687C8010E942B0581E090E079
:100A0000EFCF0E94C10681110E94E106E0917101C1
:100A1000F091720180819181892B21F08091750183
:100A20000E94B5080C940C080E94C10681110E9416
:100A3000E106E0917101F091720180819181892B31
:100A400021F0809175010E94B5080C94F10781E0B6
:100A50008093F9030895CF92DF92EF92FF920F9364
:100A60001F93CF93DF93FC01A081B1810D90BC91C6
:100A7000A02D54962D913D9156972115310509F4DD
:100A800041C0428553856485758500E010E0E90129
:100A9000CA84DB84EC84FD844C155D056E057F05FE
:100AA00008F042C0C90182839383048315830097B1
:100AB00019F0EC01EC83FD8301151105F1F1E8015A
:100AC000EA83FB835696CD91DD910A851B852C85A3
:100AD0003D851897CD90DD90ED90FD9054970C15C5
:100AE0001D052E053F0570F5C416D506E606F7066A
:100AF00028F0401751076207730768F45696ED9384
:100B0000FD9309C054968D93FD938D93FD931482AC
:100B1000158212821382DF91CF911F910F91FF9066
:100B2000EF90DF90CF900895E9018A819B81890140
:100B3000009709F4B8CF9C01AACF5496ED93FD938A
:100B40005697C0CFC416D506E606F70620F7D1CFD4
:100B5000CF93DF93DC01ED91FD9112970190F0812D
:100B6000E02D12960D90BC91A02D2489358928176F
:100B7000390711F4A48BB58B2689378928173907D3
:100B800019F4A68BB78B9D01109739F0EC014C81BD
:100B90005D8114964D935D931697EC018C819D8138
:100BA000009719F0EC01AA83BB83232B21F48489DD
:100BB0009589868B978BDF91CF910895EF92FF9265
:100BC0000F931F93CF93DF93EC018091F90381156D
:100BD00009F4A7C08C859D85AE85BF850196A11DB2
:100BE000B11D8C879D87AE87BF87488159816A81F7
:100BF0007B8184179507A607B70709F092C08889FB
:100C00009989AA89BB890196A11DB11D4C815D817D
:100C10006E817F81481759076A077B0718F4A0E0A7
:100C2000B0E0CD01888B998BAA8BBB8B1C861D866F
:100C30001E861F860E891F890115110509F471C0D2
:100C4000F8014285538564857585481759076A07F9
:100C50007B0709F066C09F010280F381E02D309789
:100C600049F0428553856485758584179507A607E5
:100C7000B70789F3D80114968D919D91009721F0C3
:100C8000DC011296ED93FD93309711F084839583E8
:100C90008C899D890817190711F4EC8BFD8B30970F
:100CA00011F4EC89FD89EE8BFF8BF901128213821E
:100CB0007801D80112960D911D911497ED91FD9137
:100CC0000280F381E02DC7010995F70186819781A4
:100CD000A085B18510979040804051F142855385A1
:100CE00064857585840F951FA61FB71F4C815D8194
:100CF0006E817F81481759076A077B0738F4841B88
:100D0000950BA60BB70B0197A109B109F7018287D3
:100D10009387A487B587C7010E942B05011511058C
:100D200039F6DF91CF911F910F91FF90EF900895C9
:100D3000D7011E961C92F2CFFC0182810C94BF0356
:100D40000E94C106809168010895809368010E9405
:100D50009B040E9427050C9496040C94000ECF93DC
:100D6000DF930F92CDB7DEB789830E94CD02811148
:100D700002C00E944D0E89810F90DF91CF910C949B
:100D80008200209106042130D1F04091FE03509161
:100D9000FF0360910004709101048091020490911E
:100DA0000304A0910404B0910504842B952BA62B79
:100DB000B72B21E0892B8A2B8B2B09F420E0822F83
:100DC00008951092060410920204109203041092E7
:100DD0000404109205041092FE031092FF03109277
:100DE0000004109201048091FA039091FB03A091FA
:100DF000FC03B091FD038093070490930804A09333
:100E00000904B0930A0408950E94500E80910704CB
:100E100090910804A0910904B0910A040196A11DC3
:100E2000B11D8093070490930804A0930904B09324
:100E30000A048091020490910304A0910404B091EB
:100E400005040196A11DB11D809302049093030433
:100E5000A0930404B0930504089580910204909136
:100E60000304A0910404B0910504109790408040C1
:100E700069F1409107045091080460910904709150
:100E80000A044150510961097109409307045093C4
:100E900008046093090470930A040197A109B10939
:100EA0008093020490930304A0930404B093050478
:100EB0008091070490910804A0910904B0910A045C
:100EC000892B8A2B8B2B11F40C944E0E0895809154
:100ED000020490910304A0910404B0910504409190
:100EE000FE035091FF036091000470910104842B74
:100EF000952BA62BB72B892B8A2B8B2B29F40E94A1
:100F0000500E81E0809306040895809106048115B7
:100F100021F0109206040C944E0E08950E94540E77
:100F20008091070490910804A0910904B0910A04EB
:100F30000196A11DB11D8093070490930804A0930E
:100F40000904B0930A048091FE039091FF03A091DD
:100F50000004B09101040196A11DB11D8093FE0310
:100F60009093FF03A0930004B0930104089580912F
:100F7000FE039091FF03A0910004B091010410972B
:100F80009040804069F140910704509108046091BD
:100F9000090470910A044150510961097109409393
:100FA0000704509308046093090470930A0401979E
:100FB000A109B1098093FE039093FF03A09300045D
:100FC000B09301048091070490910804A091090452
:100FD000B0910A04892B8A2B8B2B11F40C94520E9E
:100FE00008950E94C106811183E10895CF93DF9394
:100FF0000F92CDB7DEB789830E94C10689810E9416
:10100000BF03898380917E0181110E946A048981D6
:101010000F90DF91CF910895CF930E94C106C82F02
:101020008111C3E1E0917101F091720182818150DF
:1010300082830E94900381E080937D010E942C04B2
:101040008C2FCF910895CF93DF930F92CDB7DEB75A
:1010500089830E94C106E0917101F0917201828141
:101060008150828389810E94BF03898381110CC0D2
:101070000E94900381E080937D010E942C0489816D
:101080000F90DF91CF910895E0917101F09172017D
:1010900082818F5F8283F3CFCF930E94C106C82FD6
:1010A0008111C3E1809175010E9415030E946A04B9
:1010B0008091750190917601A0917701B0917801AE
:1010C0004091790150917A0160917B0170917C018E
:1010D00084179507A607B70711F40E94E9028C2F21
:1010E000CF910895CF93DF9300D0CDB7DEB789833A
:1010F0009A830E94C106811183E14091750150914C
:101100007601609177017091780143305105610556
:10111000710514F04091E001E981FA8140830F905C
:101120000F90DF91CF910895CF93DF9300D00F926E
:10113000CDB7DEB789836A837B830E94C1068111A4
:1011400083E19981E92FEE0FFF0BEB5AFC4F0190E1
:10115000F081E02D94819370EA81FB8190830F9060
:101160000F900F90DF91CF910895E82FEE0FFF0BB6
:10117000EB5AFC4FA081B181ED91FD911297309710
:1011800071F01D921D928091E001DF010380F481D6
:10119000E02D12968D931D921D923097B1F7089510
:1011A000CF93DF930F92CDB7DEB789830E94C1063C
:1011B000811183E19981E92FF0E0EE0FFF1FE356E3
:1011C000FC4F0190F081E02D909175019283A091E8
:1011D0007101B09172012D913D9123833483FE936F
:1011E000EE9313962C911397218390812695269543
:1011F000291768F4E92FF0E0E95EFB4F20812150C8
:101200002083990F990F2370922B13969C930F9024
:10121000DF91CF910895CF93DF9300D0CDB7DEB7A4
:1012200089830E94C1068A83811511F083E18A8334
:101230008981E82FF0E0EE0FFF1FE356FC4F01908D
:10124000F081E02DA0917101B0917201818113961E
:101250008C931397838194818D939D931382148231
:101260008091E00182830E946A048A810F900F902E
:10127000DF91CF910895CF93DF9300D0CDB7DEB744
:1012800089836A830E94C1066A8189810E94FF0363
:101290008983811105C080917E0181110E946A04B9
:1012A00089810F900F90DF91CF910895CF93DF93B5
:1012B0000F92CDB7DEB789830E94C106811183E109
:1012C000E0917501EE0FFF0BEF5AFC4F0190F0819A
:1012D000E02D298120959081922390830F90DF91BA
:1012E000CF910895CF93DF9300D00F92CDB7DEB7A3
:1012F00089836A837B830E94C106811183E199817E
:10130000E92FEE0FFF0BEF5AFC4F0190F081E02D1B
:101310009081EA81FB8190830F900F900F90DF9175
:10132000CF9108950F931F93CF93DF93C82FE09130
:101330007501F0917601EE0FFF1FEF5AFC4F00810F
:1013400011810E94C106D82F8111D3E1F801C18318
:101350008081C82311F40E9484048D2FDF91CF91E6
:101360001F910F910895DC01ED91FD91848195818C
:10137000DC01ED91FD910994CF93DF9300D00F92A2
:10138000CDB7DEB789836A837B830E94C106811152
:1013900083E19981E92FF0E0EE0FFF1FEA5BFC4F3C
:1013A0000190F081E02D0190F081E02D0190F0811D
:1013B000E02D4081518162817381AA81BB811496A5
:1013C0004D935D936D937D9318974481558166810C
:1013D00077814D935D936D937D93149740855185EF
:1013E00062857385FD0140875187628773870F90FF
:1013F0000F900F90DF91CF910895CF92DF92EF92EF
:10140000FF920F931F93CF93DF9300D0CDB7DEB73A
:10141000182F69837A830E94C106811183E1E12F2D
:10142000F0E0EE0FFF1FEA5BFC4F0190F081E02D32
:101430009685913081F54285538564857585019047
:10144000F081E02D0190F081E02D00891189228941
:101450003389401751076207730740F4C480D58071
:10146000E680F7804C0D5D1D6E1D7F1D401B510BEE
:10147000620B730BE981FA8140835183628373832A
:101480000F900F90DF91CF911F910F91FF90EF90F0
:10149000DF90CF90089585E0F3CFAF92BF92CF92C7
:1014A000DF92EF92FF920F931F93CF93DF9300D0C1
:1014B00000D000D0CDB7DEB789834A835B836C83CD
:1014C0007D83780189010E94C1068E83811511F008
:1014D00083E18E83A980EA2DF0E0EE0FFF1FEA5B27
:1014E000FC4F0190F081E02D8685811145C0A081DF
:1014F000B1810D90BC91A02D50964D915D916D9153
:101500007D915497AA80BB80CC80DD804A0D5B1D05
:101510006C1D7D1D14968D919D910D90BC91A02DFB
:1015200084179507A607B70740F4481B590B6A0BA9
:101530007B0B4150510961097109428753876487C8
:101540007587E682F7820087118781E08687CF0161
:101550000E942B058E810F900F900F900F900F908F
:101560000F90DF91CF911F910F91FF90EF90DF903F
:10157000CF90BF90AF90089587E08E83EBCFEF922E
:10158000FF920F931F93CF93DF9300D000D000D032
:10159000CDB7DEB789834A835B836C837D83780113
:1015A00089010E94C1068E83811511F083E18E832B
:1015B0009981E92FF0E0EE0FFF1FEA5BFC4F0190ED
:1015C000F081E02D868581111FC08A819B81AC81CD
:1015D000BD8182879387A487B587E682F7820087DB
:1015E000118781E08687CF010E942B058E810F90A5
:1015F0000F900F900F900F900F90DF91CF911F9150
:101600000F91FF90EF90089597E09E83EFCF0F9397
:101610001F93CF93182F0E94C106C82F8111C3E1D9
:10162000E12FF0E0EE0FFF1FEA5BFC4F008111811C
:10163000F8018685813051F4C8010E94A805F8019F
:1016400016868C2FCF911F910F910895C5E0F9CF89
:101650008F929F92AF92BF92CF92DF92EF92FF92C2
:10166000CF93DF9300D000D0CDB7DEB769837A8304
:101670008B839C830E94BE0D6B017C010E94BE0D7A
:1016800069817A818B819C8124E130E040E050E0E7
:101690000E948C1329833A834B835C83A12CB12C49
:1016A000450189819A81AB81BC8188169906AA0679
:1016B000BB0679F40F900F900F900F90DF91CF91B0
:1016C000FF90EF90DF90CF90BF90AF909F908F9062
:1016D00008950E94BE0D6C197D098E099F09643121
:1016E000710581059105A8F38FEF881A980AA80A59
:1016F000B80A0E94BE0D6B017C01D3CFCF93DF935C
:10170000CDB7DEB7C054D1090FB6F894DEBF0FBE17
:10171000CDBF9E012B5B3F4FF901419151919F013C
:1017200060E470E0CE0101960E94C510BE016F5FBB
:101730007F4F86E997E00E94060FC05CDF4F0FB62F
:10174000F894DEBF0FBECDBFDF91CF910895109208
:10175000B0001092B2008CE08093B10089EF8093CA
:10176000B300E0E7F0E080818160808378940895A1
:1017700061E08DE00E942C0D26E040E052EC61E03B
:1017800070E086E997E00E94481081EE91E09F9317
:101790008F930E947E0B83EF91E09F938F930E9423
:1017A0007E0B82EE91E09F938F930E947E0B0F90B1
:1017B0000F900F900F900F900F900C94A70BCF935A
:1017C000DF9300D0CDB7DEB784E092E09F938F9394
:1017D0000E947E0B68EE73E080E090E00E94280B90
:1017E00084E192E09F938F930E947E0B8091A503EA
:1017F00089830E94C2008AE292E09F938F930E94A5
:101800007E0B68EB7BE080E090E00E94280B80E498
:1018100092E09F938F930E947E0B9091A6039A83F0
:10182000892F0E94C20086E592E09F938F930E94C9
:101830007E0B8CE692E09F938F930E947E0B8A81B1
:101840000E94C60086E892E09F938F930E947E0BD1
:1018500089810E94C60068EE73E080E090E00E94FB
:10186000280B80EA92E09F938F930E947E0B0FB625
:10187000F894DEBF0FBECDBF0F900F90DF91CF91D8
:101880000C94AA00CF93DF9300D0CDB7DEB78EEAD9
:1018900092E09F938F930E947E0B68EE73E080E04E
:1018A00090E00E94280B8EEB92E09F938F930E9412
:1018B0007E0B8091A60389830E94C20084ED92E092
:1018C0009F938F930E947E0B60ED77E080E090E025
:1018D0000E94280B8AEE92E09F938F930E947E0BCA
:1018E0009091A5039A83892F0E94C20080E093E023
:1018F0009F938F930E947E0B86E892E09F938F9335
:101900000E947E0B8A810E94C60086E193E09F932D
:101910008F930E947E0B89810E94C60068EE73E05F
:1019200080E090E00E94280B80E393E09F938F93E8
:101930000E947E0B0FB6F894DEBF0FBECDBF0F9096
:101940000F90DF91CF910C94AA0080916901909142
:101950006A01A0916B01B0916C01AC01BD014F5FB8
:101960005F4F6F4F7F4F4093690150936A016093BF
:101970006B0170936C01BF93AF939F938F938EE332
:1019800093E09F938F930E947E0B809169019091C9
:101990006A01A0916B01B0916C010F900F900F90B4
:1019A0000F900F900F908E3F2FEF9207A907B90766
:1019B00071F46091A80381E194E00E94F80C6091B9
:1019C000A7038BE094E00E94F80C0C94AA008430EA
:1019D0009105A105B10529F48091A4030E94A600F8
:1019E000F4CF10979040864081F78091A303F6CF03
:1019F000FC0110821182128213828FEF858364832F
:101A000008951F920F920FB60F9211242F933F93B8
:101A10004F935F936F937F938F939F93AF93BF93F6
:101A2000EF93FF9385EB91E00E942B01FF91EF91E3
:101A3000BF91AF919F918F917F916F915F914F91E6
:101A40003F912F910F900FBE0F901F9018958DE929
:101A500091E00C942B010895CF93DF9390E0FC016B
:101A6000E859FF4F249184589F4FFC0184918115C0
:101A7000C9F090E0880F991FFC01E656FF4FA59131
:101A8000B591FC01E057FF4FC591D5919FB761110A
:101A90000CC0F8948C91209582238C938881282304
:101AA00028839FBFDF91CF910895623051F4F8945D
:101AB0003C91822F809583238C938881822B88830D
:101AC000F0CFF8948C91822B8C93EBCF1F920F92D6
:101AD0000FB60F9211242F933F934F935F936F9301
:101AE0007F938F939F93AF93BF93EF93FF938091D7
:101AF0008D0790918E07A0918F07B091900730913C
:101B00008C0723E0230F2D3798F50196A11DB11DF9
:101B100020938C0780938D0790938E07A0938F0757
:101B2000B09390078091910790919207A0919307AD
:101B3000B09194070196A11DB11D809391079093D8
:101B40009207A0939307B09394070E94270DFF91EB
:101B5000EF91BF91AF919F918F917F916F915F9125
:101B60004F913F912F910F900FBE0F901F9018959E
:101B700026E8230F0296A11DB11DCACF2FB7F894F6
:101B800060918D0770918E0780918F0790919007DB
:101B90002FBF089584B5826084BD84B5816084BD03
:101BA00085B5826085BD85B5816085BDEEE6F0E0D6
:101BB000808181608083E1E81082808182608083FF
:101BC000808181608083E0E8808181608083E1EBB7
:101BD000808184608083E0EB808181608083EAE79C
:101BE0008081846080838081826080838081816045
:101BF00080838081806880831092C1000895FFCF28
:101C0000FFCFCF93DF93E82FEE0FFF0BE35AFC4F8C
:101C1000A081B18114968D919D9101971497ED91BA
:101C2000FD91E80FF91F19968C911D97823079F577
:101C300082EA90E0892F22EA30E020839F01215040
:101C40003109E901888316963D912C911797CF01B0
:101C50000297EC0138830197EC012883069726E070
:101C6000EC0119922A95E9F7019720E8EC01288305
:101C70000C972CE0EC0119922A95E9F70D90BC9194
:101C8000A02D7797ED93FD93DF91CF9108958EEB83
:101C900090E0892F2EEB30E0D0CF0895789408950E
:101CA000F894089578940895F894089508950E94FA
:101CB000CA0D0E94560E0E942B0D0E94B80B8091F7
:101CC00095070E94AF0680E090E008958091AD03F3
:101CD00080939507089508951F920F920FB60F9263
:101CE00011242F933F934F935F936F937F938F9321
:101CF0009F93AF93BF93EF93FF93E091DC01F0913B
:101D0000DD010995FF91EF91BF91AF919F918F9167
:101D10007F916F915F914F913F912F910F900FBEE7
:101D20000F901F9018951F920F920FB60F921124CB
:101D30002F933F934F935F936F937F938F939F93D3
:101D4000AF93BF93EF93FF93E091DE01F091DF013A
:101D50000995FF91EF91BF91AF919F918F917F91E5
:101D60006F915F914F913F912F910F900FBE0F9008
:101D70001F9018950F931F93CF93DF9300D000D03F
:101D800000D0CDB7DEB789839A834B835C836D83A4
:101D90007E8300E010E0AB81BC810A171B0761F471
:101DA000C8010F900F900F900F900F900F90DF9140
:101DB000CF911F910F910895A981BA81ED91FD9165
:101DC0000190F081E02DAD81BE816C9189819A8175
:101DD0000995892B29F38D819E8101968D839E83A0
:101DE0000F5F1F4FD8CFDC016115710561F0ED91D8
:101DF000FD91129722813381CB010E94BC10AC016E
:101E0000CD01F901099480E090E008950C94F30E5F
:101E10002F932FB72F938F939F93EF93FF93E0917F
:101E2000A607F091A7078081E091AC07F091AD077C
:101E300082FD19C090818091AF078F5F8F732091D1
:101E4000B007821741F0E091AF07F0E0EA56F84F93
:101E5000958F8093AF07FF91EF919F918F912F9175
:101E60002FBF2F9118958081F6CF1F920F920FB63A
:101E70000F9211242F933F934F935F936F937F9310
:101E80008F939F93AF93BF93EF93FF9386E997E070
:101E90000E94BB0FFF91EF91BF91AF919F918F91E6
:101EA0007F916F915F914F913F912F910F900FBE56
:101EB0000F901F901895E6E9F7E01282138288EEE2
:101EC00093E084839583168217828AEE93E0808361
:101ED000918385EC8487158684EC8687178680EC51
:101EE000808B118A81EC828B138A82EC848B158A19
:101EF00086EC868B178A118E128E138E148E08959F
:101F0000FC01918D228D892F90E0805C9F4F821B78
:101F100091098F7390E00895FC01918D828D98173F
:101F200031F0828DE80FF11D858D90E008958FEFDF
:101F30009FEF0895FC01918D828D981761F0A28D1D
:101F4000AE0FBF2FB11D5D968C91928D9F5F9F73D9
:101F5000928F90E008958FEF9FEF0895FC01238DFD
:101F6000348D832F90E0821B9109231710F0CF96B8
:101F7000089501970895FC01A48DA80FB92FB11DF4
:101F8000A35ABF4F2C91848D01968F73848FA6899D
:101F9000B7892C93A089B1898C91837080648C93CC
:101FA000938D848D981306C00288F389E02D80817B
:101FB0008F7D80830895CF93DF93EC01888D81110D
:101FC00011C0DF91CF9108950FB607FC0DC080813D
:101FD00085FF0AC0A889B9898C9185FF05C0CE010B
:101FE0000E94BB0FEA89FB89808185FDEDCFA8891E
:101FF000B9898C9186FFE8CFE4CFEF92FF920F93DF
:102000001F93CF93DF93EC01F62E81E0888F9B8D99
:102010008C8D98131AC0E889F989808185FF15C0D5
:102020009FB7F894EE89FF896083E889F9898081F8
:102030008370806480839FBF81E090E0DF91CF91C7
:102040001F910F91FF90EF9008950B8D0F5F1F4F21
:102050000F73E02E8C8D8E1579F0EB8DEC0FFD2F2C
:10206000F11DE35AFF4FF0829FB7F8940B8FEA8976
:10207000FB8980818062DECF0FB607FCEBCFE88959
:10208000F989808185FFE6CFCE010E94BB0FE2CFA8
:10209000CF92DF92EF92FF92CF93DF9300D00F9217
:1020A000CDB7DEB78A839B836A017B012983DC017C
:1020B0005096ED91FD9182E08083C114B1EEDB0674
:1020C000E104F10491F060E079E08DE390E09A01A1
:1020D000A7010E948C1321503109410951095695DD
:1020E0004795379527953031B0F0AA81BB8150963E
:1020F000ED91FD91108260E874E88EE190E0960128
:10210000A7010E948C1321503109410951095695AC
:10211000479537952795AA81BB811C96ED91FD9136
:102120003083ED91FD91208318961C921497ED91C8
:10213000FD91B981B083AA81BB815296ED91FD9149
:10214000808180618083FE91EE91808188608083B0
:10215000ED91FD91808180688083FE91EE91808178
:102160008F7D80830F900F900F90DF91CF91FF9024
:10217000EF90DF90CF900895FC0101900020E9F7E7
:10218000809590958E0F9F1F0895AEE0B0E0EBEC28
:10219000F0E10C94C4138C01CA0146E04C8309831E
:1021A0001A83FB016130704810F0E0E0F0E83197ED
:1021B000ED83FE83A901BC01CE0101960E94F210BD
:1021C0004D815E8157FD0AC02F8138854217530724
:1021D0000CF49A01020F131FF80110822E96E4E00E
:1021E0000C94E013ACE0B0E0E8EFF0E10C94B9132C
:1021F0005C016B017A01FC0116821782838181FFE9
:10220000D3C12AE0522EF5012381F60123FD8591E9
:1022100023FF81916F01811509F42CC1853239F4B6
:1022200023FD959123FF91916F01953229F4B5011A
:1022300090E00E94ED12E7CF30E0712C00E010E05A
:10224000103210F59B32C9F050F49032B9F093324D
:10225000C9F09E3261F516FD0DC1106405C09D32B6
:1022600079F0903399F41160F60123FD959123FFE5
:1022700091916F019111E4CF23C012601460F4CFEB
:102280001860F2CF1061F0CF17FD1AC080ED890FF2
:102290008A30F8F616FF05C0759C800D1124782E43
:1022A000E3CF059D800D1124082F1062DDCF9C36F1
:1022B00011F41068D9CF9C3409F440C09836A1F2CB
:1022C000892F8F7D85548330D8F1933609F45FC010
:1022D000933709F46AC0933509F476C0943619F03F
:1022E000993609F0A2C0F70117FF98C0619171916A
:1022F000819191917F011F7697FF03C00E94AE13D9
:1023000010682AE030E04E014FEF841A940AA401CD
:102310000E942E13682E681816FFD2C0812F8E7F60
:10232000671408F0CCC014FF1DC112FD11C11E7E40
:10233000972C812F867809F4CEC00FC131E094CF5D
:10234000311509F1F8E0EF0EF11C8FE3898391E07C
:10235000692E712C4E018FEF881A980A1F7713FD92
:1023600004C06016710408F43FC06114710409F0E0
:1023700042C0011509F447CFB50180E290E00E9408
:10238000ED120150F6CF44E0E40EF11CDECFF70170
:1023900080818983F2E0EF0EF11C81E0682E712CC0
:1023A0004E014FEF841A940AD9CFF7018190919092
:1023B0007F01672D70E016FD02C06FEF7FEFC40153
:1023C0000E94E2123C01CACFF701819091907F01F7
:1023D000672D70E016FD02C06FEF7FEFC4010E9411
:1023E000D7123C011068BBCFB50180E290E00E949B
:1023F000ED120150B6CFF40117FD859117FF8191C1
:102400004F01B50190E00E94ED1281E0011101C081
:1024100080E0081BF1E06F1A7108A7CF61917191FC
:10242000872F880F880B982F65CF9537C9F41F7EAB
:102430001C872AE030E0FC85F7FF3BC0F701619183
:102440007191819191917F014E014FEF841A940A0D
:10245000A4010E942E13682E68181C851F775CCF7C
:10246000812F897F8C87903799F058F49835B9F08F
:102470009F36E1F0F501868197812C96EFE00C9470
:10248000D5139837B9F714FD06C020E130E0D3CF5B
:102490009C8590619C87EC85E460EC87F6CF14FF07
:1024A00002C016601C8720E132E0C5CF28E030E092
:1024B000C2CFF7016191719180E090E0C4CF182FF5
:1024C000962C14FF36CFFE01E60DF11D808180337E
:1024D00009F041C0197E13FD0EC010FF4FC0762CCD
:1024E000901618F4700E7918902E802F89190915FE
:1024F00008F480E0980E901608F042C0091914FF05
:1025000041C0B50180E390E00E94ED1212FF09C0C6
:1025100088E590E011FD02C088E790E0B5010E94D7
:10252000ED126714D0F14E018FEF881A980A6A9461
:10253000FE013296E60DF11D3F01F30182913F014C
:10254000B50190E00E94ED1268147904B1F711CF43
:10255000972C182FB8CF12FD02C09394BCCF939440
:102560009394B9CF972C182FE4CEB50180E290E078
:102570000E94ED1283948016C0F3B7CF892CFBCF55
:1025800000E0BDCF812F867861F280E211FD8BE201
:1025900017FD8DE2B50190E0C2CFB50180E390E078
:1025A0000E94ED127A94BDCF8FEF9FEF66CFFC01B2
:1025B0000590615070400110D8F7809590958E0F6E
:1025C0009F1F0895FC016150704001900110D8F7E1
:1025D000809590958E0F9F1F0895A3E0B0E0E3EFE4
:1025E000F2E10C94C513182F99836A837B83DB0176
:1025F00013968C9181FD09C01FEFBFEFB983812F26
:1026000099812396E3E00C94E11382FF1BC0EA81D9
:10261000FB8126813781848195812817390754F4FD
:102620000190F081E02DCF010196AA81BB818D93AD
:102630009D931083EA81FB81868197810196868331
:102640009783DDCFAA81BB811896ED91FD911A97F2
:10265000BD01812F0995892B69F3CECFFA01AA27F5
:10266000283051F1203181F1E8946F936E7F6E5FD5
:102670007F4F8F4F9F4FAF4FB1E03ED0B4E03CD083
:10268000670F781F891F9A1FA11D680F791F8A1F66
:10269000911DA11D6A0F711D811D911DA11D20D0CD
:1026A00009F468943F912AE0269F11243019305D87
:1026B0003193DEF6CF010895462F4770405D419378
:1026C000B3E00FD0C9F7F6CF462F4F70405D4A33C5
:1026D00018F0495D31FD4052419302D0A9F7EACF8D
:1026E000B4E0A6959795879577956795BA95C9F7BC
:1026F00000976105710508959B01AC010A2E0694AF
:102700005795479537952795BA95C9F7620F731F67
:10271000841F951FA01D0895A1E21A2EAA1BBB1BA2
:10272000FD010DC0AA1FBB1FEE1FFF1FA217B3079D
:10273000E407F50720F0A21BB30BE40BF50B661FB3
:10274000771F881F991F1A9469F760957095809577
:1027500090959B01AC01BD01CF01089590958095A6
:10276000709561957F4F8F4F9F4F08952F923F92A5
:102770004F925F926F927F928F929F92AF92BF9291
:10278000CF92DF92EF92FF920F931F93CF93DF933D
:10279000CDB7DEB7CA1BDB0B0FB6F894DEBF0FBE9A
:1027A000CDBF09942A88398848885F846E847D84E7
:1027B0008C849B84AA84B984C884DF80EE80FD80E9
:1027C0000C811B81AA81B981CE0FD11D0FB6F8945F
:1027D000DEBF0FBECDBFED010895EE0FFF1F0590C8
:0A27E000F491E02D0994F894FFCF66
:1027EA0000000000000000000000000000000000DF
:1027FA0000000000000000000000000000000000CF
:10280A0000000000000000000000000000000000BE
:10281A0000000000000000000000000000000000AE
:10282A00000000000000000000000000000000009E
:10283A00000000000000000000000000000000008E
:10284A000000000000000000FFFCFFFFFF00008FF7
:10285A000300003507FFFFFFFFFFFFFFFF000048EF
:10286A000300000000D1030000D1030000020000B1
:10287A000004000000000200000000010001000046
:10288A0000FFFF000001000000000000000000003F
:10289A00000000000001000000D007000001000055
:1028AA00000000000000000000000000000500FF1A
:1028BA0000000300FF00000300FF00006B0E6B0E18
:1028CA00FF0A2E2E2E2E2E2E2E2E2E2E2E2E2E2E71
:1028DA002E0A002E2E2E4F53205374617274732EBB
:1028EA002E2E0A003C5461736B4820626567696E3C
:1028FA00732E3E005461736B48203A20547279203B
:10290A004C6F636B285331292E005461736B482036
:10291A003A20476574204C6F636B285331292E0087
:10292A005461736B48203A20547279204C6F636B60
:10293A00285332292E005461736B48203A20476588
:10294A0074204C6F636B285332292E005461736BC9
:10295A0048203A2052656C65617365204C6F636B41
:10296A00285332292E005461736B4C203A20526549
:10297A006C65617365204C6F636B285331292E0097
:10298A003C5461736B4820656E64732E3E003C5460
:10299A0061736B4C20626567696E732E3E005461E9
:1029AA00736B4C203A20547279204C6F636B285316
:1029BA0032292E005461736B4C203A2047657420EB
:1029CA004C6F636B285332292E005461736B4C2071
:1029DA003A20547279204C6F636B285331292E00A8
:1029EA005461736B4C203A20476574204C6F636BBB
:1029FA00285331292E005461736B4C203A205265BA
:102A0A006C65617365204C6F636B285332292E0005
:102A1A003C5461736B4C20656E64732E3E000A252C
:102A2A00346C643A20007F01B501B3094E039C0659
:102A3A000231062D05980193018E01350781037332
:102A4A000365038F032B042D040001A50C0000026B
:102A5A000401002F0531050001DF0B00000102010E
:102A6A0001330635060001420C0000000101013A5B
:102A7A00073C075000FF0D000003000100D701D2F8
:102A8A0001CD010100010002010100000000B707A9
:102A9A0085078E0767071405040701052D074C08EB
:102AAA000B09AD063B09F607560923087209720895
:102ABA009209A506BC09A006FD09070B4D0AD00814
:102ACA00BF0A94080C0800000000FD0FBA0EAE0FF2
:082ADA00DB0F800F9A0F8C0F37
:00000001FF
