:100000000C9454000C94B70D0C94DE0D0C947C00F1
:100010000C947C000C947C000C947C000C947C0070
:100020000C947C000C94260C0C947C000C947C00AA
:100030000C947C000C94500C0C947C000C947C0070
:100040000C94B10C0C947C000C94530E0C94800E08
:100050000C947C000C947C000C947C000C947C0030
:100060000C947C000C947C00010204081020408059
:1000700001020408102001020408102004040404F2
:100080000404040402020202020203030303030342
:1000900000000000250028002B00000000002400C4
:1000A00027002A00B10DA60E11241FBECFEFD8E005
:1000B000DEBFCDBF13E0A0E0B1E0E0E8F6E202C0B1
:1000C00005900D92A23CB107D9F727E0A2ECB3E06E
:1000D00001C01D92A43FB207E1F710E0C4E5D0E0F3
:1000E00004C02197FE010E943813C235D107C9F719
:1000F0000E94A20D0C943E130C940000E2E10E94B9
:1001000023010895E9E00E9423010895EAE00E9496
:1001100023010895E1E00E9423010895E3E00E9495
:1001200023010895E7E00E9423010895E5E00E947D
:1001300023010895E0E00E9423010895E2E00E9477
:1001400023010895E4E00E9423010895ECE00E9459
:1001500023010895E8E00E9423010895EEE00E9443
:1001600023010895E4E10E9423010895E0E10E9443
:1001700023010895E7E10E9423010895E6E00E942B
:1001800023010895EBE00E9423010895EDE00E9411
:1001900023010895EFE00E9423010895E1E10E9408
:1001A00023010895E3E10E9423010895E5E10E94FF
:1001B00023010895E6E10E942301089521968A9281
:1001C0009A92AA92BA92CA92DA92EA92FA920A930E
:1001D0001A932197E0916D01F0916E010080F181F9
:1001E000E02DC083D1830895C0916F01D09170013B
:1001F000E881F981C081D181219619910991F99005
:10020000E990D990C990B990A99099908990219737
:1002100008952F903F90E7E6F1E0CDB7DEB7EDBF50
:10022000FEBF3F922F9208952F903F90CDBFDEBF2B
:100230003F922F920895E0E80E9423010895E0E4A0
:100240000E94230108952F923F924F925F926F92E6
:100250007F922FB62F92CF93DF937E2EF894E0916A
:100260000001EF5FE0930001E13011F40E94090109
:10027000E0E0E0937D01E72DE07849F00E946A0517
:10028000F0917E01F17071F00E94F4030BC0E72D34
:10029000EC3140F4EE0FF0E0E158FC4F0190F081BA
:1002A000E02D0995F0917D01EF2FE17059F0F2708A
:1002B00011F00E94DE008F938F2F0E9439038F91DF
:1002C0000E94F4002091000121502093000122237C
:1002D00011F40E941401DF91CF912F902FBE7F90D7
:1002E0006F905F904F903F902F900895FC01408158
:1002F000FB013081842F8F7090E0A0E0B0E0B695D4
:10030000A795979587958F519C4FFC012081F42FDD
:10031000F21B2F2F21704E70242B832F8F7090E0B3
:10032000A0E0B0E0B695A795979587958F519C4F23
:10033000FC019081F32FF91B9F2F91703E70932B3E
:1003400041E050E0291708F040E0CA0108958F927B
:100350009F92AF92BF92EF92FF920F931F93CF9312
:10036000DF937C014A015B01B694A794979487942C
:10037000423051056105710580F08A01000F111F9F
:100380000E0D1F1DE401CC0FDD1FCE0DDF1DB801CA
:10039000CE010E947601892B59F4DF91CF911F91F4
:1003A0000F91FF90EF90BF90AF909F908F90089526
:1003B000F80190818181288139812083318398835C
:1003C0008983A401B501D0CF7F928F929F92AF9283
:1003D000BF92CF92DF92EF92FF920F931F93CF9332
:1003E000DF938C014A015B01FC017080640175019F
:1003F000CC0CDD1CEE1CFF1C7C141D041E041F0411
:1004000070F4DF91CF911F910F91FF90EF90DF90EB
:10041000CF90BF90AF909F908F907F900895C6012E
:10042000D7010196A11DB11D781619061A061B06E3
:1004300098F0BC01660F771F600F711FC601880F0F
:10044000991F800F911F0E947601092E000C000851
:10045000C80ED91EE01CF01CE601CC0FDD1FC00F3A
:10046000D11F880C991C800E911EBE01C4010E94F0
:100470007601892B31F2F4019081818128813981C3
:10048000208331839883898346015701AFCF409100
:10049000E6034F5F4093E60350E060E070E0E82F32
:1004A000EE0FFF0BEA5CFC4F0190F081E02D2385FD
:1004B000E22FF0E0EF51FC4F908191509083FA01D0
:1004C000EE0FFF1FEA51FC4F9170220F922B908389
:1004D000818386EE93E00C94A7014091E6034F5F81
:1004E0004093E60350E060E070E0FA01EE0FFF1F7A
:1004F000EA51FC4FA82FAA0FBB0BA25DBC4F0D9079
:10050000BC91A02D13969C919083818386EE93E0FD
:100510000C94A701CF93DF9300D0CDB7DEB78091C5
:10052000E6039FEF980F9093E6039091E8039A8378
:100530009091E903998390E0880F991FFC01EA519B
:10054000FC4F808191818093E8039093E90341E01F
:1005500050E060E070E086EE93E00E94E4018A8162
:1005600099810F900F90DF91CF9108958091C203F0
:10057000811115C04091750150917601609177010C
:10058000709178014F3F54076407740751F081E080
:10059000433051056105710524F082E0089584E03F
:1005A00008950895CF93DF93880F990BFC01EA5CBF
:1005B000FC4F0190F081E02D0084F185E02D309713
:1005C000C9F02281211116C021E02283825D9C4F57
:1005D000EC01A881B98113968C9181839081E92FD8
:1005E000F0E0EF51FC4F8081815080838170990F42
:1005F000892B8C93DF91CF910895CF93DF93880F50
:10060000990BFC01EA5CFC4F0190F081E02D008425
:10061000F185E02D309761F02281213049F412827A
:10062000825D9C4FEC01A881B981818113968C93E6
:10063000DF91CF9108958091790190917A01A091F5
:100640007B01B0917C0140917501509176016091E0
:10065000770170917801481759076A077B0741F0C5
:10066000E0917301F091740121E024830C946D02F8
:100670000895CF93DF93C0E0D0E0811589F0C09159
:100680006D01D0916E01E0917101F0917201848150
:10069000833031F081E08483809175010E946D0286
:1006A000E0917301F0917401E0937101F093720194
:1006B00080916F019091700180936D0190936E0114
:1006C0008091790130917A0120917B0190917C0198
:1006D0008093750130937601209377019093780190
:1006E00092E094830E94D202CE01DF91CF910895CF
:1006F000809175010E94FD02E0917101F0917201FB
:100700008281811185E084830895CF93DF93282F20
:10071000220F330BF901E25DFC4FC081D1819A8138
:100720002A5C3C4FD901ED91FD912485921780F40C
:10073000911105C095E09C8391E090937E010E9409
:1007400047028A818F5F8A8380E0DF91CF9108958D
:1007500084E0FBCFE82FEE0FFF0BE25DFC4F019032
:10076000F081E02D108211820C944C0DCF93DF9319
:1007700000D00F92CDB7DEB70E948A028983892FFD
:10078000592F550F550B9093790150937A0150933F
:100790007B0150937C01292F220F330BF901E25D7D
:1007A000FC4F408151814A835B8340937301509396
:1007B00074012A5C3C4FF9012081318120936F0143
:1007C00030937001FA019481953031F40E94AA03AC
:1007D0004981EA81FB81438310927E010F900F9043
:1007E0000F90DF91CF910895E0917901F0917A0116
:1007F000EE0FFF1FE25DFC4F0190F081E02D809134
:10080000E8039381981740F40E941B030E94B603EB
:1008100083E080937D01089580E0FBCF81E08093A9
:100820007D010C94B603EF92FF920F931F93CF9329
:10083000DF93C1E001C0CC0F8A95EAF720913C0319
:1008400030913D0380913403909135031092E6037B
:1008500010926D0110926E0120936F013093700120
:100860001092710110927201809373019093740140
:10087000AFEFBFEFCD018093750190937601A09308
:100880007701B09378018093790190937A01A093D6
:100890007B01B0937C0110927D0110927E0183E078
:1008A0000E9485030BE713E0D0E0F80181918F01EE
:1008B0008C2319F08D2F0E948503DF5FD330A9F7B9
:1008C00008E713E08DE0E82E83E0F82EF80181912F
:1008D0008F018C2341F0F7018081918121E0FC019F
:1008E00026870E94B704F2E0EF0EF11C83E00B377D
:1008F000180761F7DF91CF911F910F91FF90EF9053
:1009000008950E947E0681110E949E06E091710169
:10091000F091720180819181892B21F08091750184
:100920000E94AB0882E10E9435060C94D6070E9413
:100930007E06811519F00E949E0683E1E091710107
:10094000F091720120813181232B49F08091750152
:100950000E94AB0886E00E9435060C94AE07811514
:10096000E1F383E1F8CF81E08093C3030895CF9250
:10097000DF92EF92FF920F931F93CF93DF93FC01CF
:10098000A081B1810D90BC91A02D54962D913D91E7
:1009900056972115310509F441C042855385648578
:1009A000758500E010E0E901CA84DB84EC84FD84F5
:1009B0004C155D056E057F0508F042C0C9018283B4
:1009C000938304831583009719F0EC01EC83FD8376
:1009D00001151105F1F1E801EA83FB835696CD91EB
:1009E000DD910A851B852C853D851897CD90DD907E
:1009F000ED90FD9054970C151D052E053F0570F5E3
:100A0000C416D506E606F70628F040175107620718
:100A1000730768F45696ED93FD9309C054968D9331
:100A2000FD938D93FD931482158212821382DF91C0
:100A3000CF911F910F91FF90EF90DF90CF9008958D
:100A4000E9018A819B818901009709F4B8CF9C0153
:100A5000AACF5496ED93FD935697C0CFC416D506F2
:100A6000E606F70620F7D1CFCF93DF93DC01ED91B7
:100A7000FD9112970190F081E02D12960D90BC919E
:100A8000A02D248935892817390711F4A48BB58B3B
:100A9000268937892817390719F4A68BB78B9D014A
:100AA000109739F0EC014C815D8114964D935D9364
:100AB0001697EC018C819D81009719F0EC01AA83B7
:100AC000BB83232B21F484899589868B978BDF91B7
:100AD000CF910895EF92FF920F931F93CF93DF93DF
:100AE000EC018091C303811509F4A7C08C859D8515
:100AF000AE85BF850196A11DB11D8C879D87AE87F0
:100B0000BF87488159816A817B8184179507A60731
:100B1000B70709F092C088899989AA89BB8901968B
:100B2000A11DB11D4C815D816E817F8148175907E0
:100B30006A077B0718F4A0E0B0E0CD01888B998BA1
:100B4000AA8BBB8B1C861D861E861F860E891F895D
:100B50000115110509F471C0F801428553856485BA
:100B60007585481759076A077B0709F066C09F011A
:100B70000280F381E02D309749F0428553856485EA
:100B8000758584179507A607B70789F3D8011496CA
:100B90008D919D91009721F0DC011296ED93FD93CC
:100BA000309711F0848395838C899D8908171907E4
:100BB00011F4EC8BFD8B309711F4EC89FD89EE8BF1
:100BC000FF8BF901128213827801D80112960D91E0
:100BD0001D911497ED91FD910280F381E02DC701E5
:100BE0000995F70186819781A085B185109790407E
:100BF000804051F14285538564857585840F951F2A
:100C0000A61FB71F4C815D816E817F8148175907F0
:100C10006A077B0738F4841B950BA60BB70B01976B
:100C2000A109B109F70182879387A487B587C70116
:100C30000E94B7040115110539F6DF91CF911F917C
:100C40000F91FF90EF900895D7011E961C92F2CF5E
:100C50002CE02093CF03FC0182818093C5030E9486
:100C6000850381110C94350608959091C403911168
:100C700007C091E09093C4030E940D0C1092C4032E
:100C80000895CF93DF930F92CDB7DEB70E947E0613
:100C9000811183E192E19093CF0390916801998350
:100CA000811519F083E10E94350689810F90DF914B
:100CB000CF91089599E09093CF038093C5038093DB
:100CC00068010E9413040E94B3040C940E048AE08D
:100CD0008093CF030C944B0DCF93DF930F92CDB73E
:100CE000DEB789830E94B602811102C00E94980D6E
:100CF00089810F90DF91CF910C9482002091DC03C9
:100D00002130D1F04091D4035091D5036091D603A6
:100D10007091D7038091D8039091D903A091DA0301
:100D2000B091DB03842B952BA62BB72B21E0892BCD
:100D30008A2B8B2B09F420E0822F08951092DC037C
:100D40001092D8031092D9031092DA031092DB03A9
:100D50001092D4031092D5031092D6031092D703A9
:100D60008091D0039091D103A091D203B091D3038D
:100D70008093DD039093DE03A093DF03B093E00341
:100D800008950E949B0D8091DD039091DE03A09158
:100D9000DF03B091E0030196A11DB11D8093DD0337
:100DA0009093DE03A093DF03B093E0038091D80318
:100DB0009091D903A091DA03B091DB030196A11DB4
:100DC000B11D8093D8039093D903A093DA03B09315
:100DD000DB0308958091D8039091D903A091DA03A1
:100DE000B091DB0310979040804069F14091DD03A2
:100DF0005091DE036091DF037091E003415051098F
:100E0000610971094093DD035093DE036093DF03B2
:100E10007093E0030197A109B1098093D8039093DF
:100E2000D903A093DA03B093DB038091DD039091A3
:100E3000DE03A091DF03B091E003892B8A2B8B2B7B
:100E400011F40C94990D08958091D8039091D903D1
:100E5000A091DA03B091DB034091D4035091D50304
:100E60006091D6037091D703842B952BA62BB72BBB
:100E7000892B8A2B8B2B29F40E949B0D81E0809378
:100E8000DC0308958091DC03811521F01092DC03CE
:100E90000C94990D08950E949F0D8091DD0390910F
:100EA000DE03A091DF03B091E0030196A11DB11D07
:100EB0008093DD039093DE03A093DF03B093E00300
:100EC0008091D4039091D503A091D603B091D7031C
:100ED0000196A11DB11D8093D4039093D503A093D7
:100EE000D603B093D70308958091D4039091D5038E
:100EF000A091D603B091D70310979040804069F13C
:100F00004091DD035091DE036091DF037091E003B7
:100F100041505109610971094093DD035093DE038B
:100F20006093DF037093E0030197A109B1098093F7
:100F3000D4039093D503A093D603B093D7038091A5
:100F4000DD039091DE03A091DF03B091E003892BD4
:100F50008A2B8B2B11F40C949D0D08950E947E0614
:100F6000811521F083E10E94350683E10895CF9336
:100F7000DF930F92CDB7DEB789830E947E068CE0A7
:100F80008093CF0389818093C5030E948503898361
:100F900080917E0181110E94F403898181110E9458
:100FA000350689810F90DF91CF910895CF9388E026
:100FB0008093CF030E947E06C82F8111C3E1E09188
:100FC0007101F09172018281815082830E947803C5
:100FD00081E080937D010E94B603C11519F083E181
:100FE0000E9435068C2FCF910895CF93DF930F92F7
:100FF000CDB7DEB789830E947E068EE08093CF0353
:1010000089818093C503E0917101F0917201828121
:101010008150828389810E948503898381110CC05C
:101020000E94780381E080937D010E94B60389814C
:101030000F90DF91CF910895E0917101F0917201CD
:1010400082818F5F828389810E943506F0CFCF93A2
:101050000E947E06C82F8111C3E184E18093CF03F3
:10106000809175010E94FD020E94F4038091750138
:1010700090917601A0917701B0917801409179012A
:1010800050917A0160917B0170917C0184179507E2
:10109000A607B70711F40E94D202C11519F083E127
:1010A0000E9435068C2FCF9108950F931F93CF93F5
:1010B0008C010E947E06C82F8111C3E180E18093DC
:1010C000CF030093C5031093C603809175019091DF
:1010D0007601A0917701B091780183309105A10547
:1010E000B10514F080910C02F8018083C11519F04C
:1010F00083E10E9435068C2FCF911F910F910895A7
:101100000F931F93CF93DF93C82F8B010E947E060E
:10111000D82F8111D3E187E18093CF03C093C5031A
:101120000093C7031093C803EC2FEE0FFF0BE25D93
:10113000FC4F0190F081E02D84818370F801808361
:10114000D11519F083E10E9435068D2FDF91CF91E3
:101150001F910F910895E82FEE0FFF0BE25DFC4FFA
:10116000A081B181ED91FD911297309771F01D92A0
:101170001D9280910C02DF010380F481E02D129614
:101180008D931D921D923097B1F70895CF93DF9301
:10119000C82F0E947E06D82F8111D3E18BE0809367
:1011A000CF03C093C503EC2FF0E0EE0FFF1FEA580A
:1011B000FC4F0190F081E02D809175018283A09118
:1011C0007101B09172018D919D9183839483FE93FF
:1011D000EE9313969C91139791838081969598171F
:1011E00060F4E82FF0E0EF51FC4F90819150908334
:1011F000880F9170892B13968C93D11519F083E188
:101200000E9435068D2FDF91CF910895CF93DF9304
:10121000C82F0E947E06D82F8111D3E18DE08093E4
:10122000CF03C093C503EC2FF0E0EE0FFF1FEA5889
:10123000FC4F0190F081E02DA0917101B0917201FD
:10124000818113968C931397838194818D939D93C1
:101250001382148280910C0282830E94F403D115C0
:1012600019F083E10E9435068D2FDF91CF9108950B
:10127000DC01ED91FD9184819581DC01ED91FD9181
:101280000994FF920F931F93CF93DF93C82F8B0185
:101290000E947E06F82E811511F093E1F92E8FE061
:1012A0008093CF03C093C5030093C7031093C80373
:1012B000EC2FF0E0EE0FFF1FE35FFC4F0190F08199
:1012C000E02D0190F081E02D0190F081E02D8081F2
:1012D0009181A281B381E8018C839D83AE83BF831A
:1012E00084819581A681B78188839983AA83BB83F2
:1012F00080859185A285B38588879987AA87BB87D2
:10130000F11419F083E10E9435068F2DDF91CF9102
:101310001F910F91FF900895CF92DF92EF92FF926D
:101320000F931F93CF93DF93C82F8B010E947E06EC
:10133000D82F8111D3E181E18093CF03C093C503FE
:101340000093C7031093C803EC2FF0E0EE0FFF1FCC
:10135000E35FFC4F0190F081E02D86858130A1F59F
:1013600082859385A485B5850190F081E02D01905B
:10137000F081E02D4089518962897389841795072E
:10138000A607B70740F4C480D580E680F7808C0DAF
:101390009D1DAE1DBF1D841B950BA60BB70BF80141
:1013A00080839183A283B383D11521F0D3E18D2F64
:1013B0000E9435068D2FDF91CF911F910F91FF90E5
:1013C000EF90DF90CF900895D5E0F1CF8F929F926C
:1013D000AF92BF92CF92DF92EF92FF920F931F9343
:1013E000CF93C82F4A015B01680179010E947E06F4
:1013F000182F811113E183E18093CF03C093C503BC
:101400008092C7039092C803A092C903B092CA0306
:10141000C092CB03D092CC03E092CD03F092CE03E6
:10142000EC2FF0E0EE0FFF1FE35FFC4F0190F08127
:10143000E02D8685811142C0A081B1810D90BC91C3
:10144000A02D50964D915D916D917D915497480DD1
:10145000591D6A1D7B1D14968D919D910D90BC9117
:10146000A02D84179507A607B70740F4481B590B12
:101470006A0B7B0B415051096109710942875387FF
:1014800064877587C682D782E086F18681E0868789
:10149000CF010E94B704111521F013E1812F0E94A2
:1014A0003506812FCF911F910F91FF90EF90DF9024
:1014B000CF90BF90AF909F908F90089517E0EECFA0
:1014C0008F929F92AF92BF92CF92DF92EF92FF9254
:1014D0000F931F93CF93C82F6A017B0148015901D5
:1014E0000E947E06182F811113E185E18093CF03BE
:1014F000C093C503C092C703D092C803E092C9034A
:10150000F092CA038092CB039092CC03A092CD03B9
:10151000B092CE03EC2FF0E0EE0FFF1FE35FFC4F25
:101520000190F081E02D8685811120C0C286D3868E
:10153000E486F58686829782A086B18681E08687DA
:10154000CF010E94B704111521F013E1812F0E94F1
:101550003506812FCF911F910F91FF90EF90DF9073
:10156000CF90BF90AF909F908F90089517E0EECFEF
:101570000F931F93CF93DF93C82F0E947E06D82F1F
:101580008111D3E186E18093CF03C093C503EC2F93
:10159000F0E0EE0FFF1FE35FFC4F00811181F801C7
:1015A0008685813089F4C8010E943405F8011686C9
:1015B000D11521F0D3E18D2F0E9435068D2FDF91BB
:1015C000CF911F910F910895D5E0F5CF8F929F9203
:1015D000AF92BF92CF92DF92EF92FF92CF93DF93C1
:1015E00000D000D0CDB7DEB769837A838B839C832C
:1015F0000E94090D6B017C010E94090D69817A81AD
:101600008B819C8124E130E040E050E00E94D712C1
:1016100029833A834B835C83A12CB12C45018981BA
:101620009A81AB81BC8188169906AA06BB0679F41B
:101630000F900F900F900F90DF91CF91FF90EF9050
:10164000DF90CF90BF90AF909F908F9008950E94B1
:10165000090D6C197D098E099F0964317105810599
:101660009105A8F38FEF881A980AA80AB80A0E9471
:10167000090D6B017C01D3CFCF93DF93CDB7DEB7DC
:10168000C054D1090FB6F894DEBF0FBECDBF9E0186
:101690002B5B3F4FF901419151919F0160E470E054
:1016A000CE0101960E941010BE016F5F7F4F87E54B
:1016B00097E00E94510EC05CDF4F0FB6F894DEBF7A
:1016C0000FBECDBFDF91CF910895BC0187E597E0B4
:1016D0000C94510E1092B0001092B2008CE08093E6
:1016E000B10089EF8093B300E0E7F0E08081816092
:1016F00080837894089510928000E1E8F0E01082F1
:101700001092850010928400808184608083EFE6CF
:10171000808181608083089561E08DE00E94770C74
:1017200026E040E052EC61E070E087E597E00E943F
:10173000930F8DE092E09F938F930E943C0B8FE17B
:1017400092E09F938F930E943C0B8EE092E09F93D8
:101750008F930E943C0B0E946A0B0F900F900F908A
:101760000F900F900F900C947B0B809169019091DA
:101770006A01A0916B01B0916C01AC01BD014F5F9A
:101780005F4F6F4F7F4F4093690150936A016093A1
:101790006B0170936C01BF93AF939F938F9380E322
:1017A00092E09F938F930E943C0B0F900F900F90AD
:1017B0000F900F900F900C94AA0088E392E09F93F3
:1017C0008F930E943C0B60E47FE180E090E00E94F8
:1017D000E60A88E492E09F938F930E943C0B0F905F
:1017E0000F900F900F900C94AA008AE592E09F93BF
:1017F0008F930E943C0B68EB7BE080E090E00E94BE
:10180000E60A8AE692E09F938F930E943C0B0F902A
:101810000F900F900F900C94AA00CF93C82F8AE8D6
:1018200092E00E94650B8CE792E0C93040F4EC2F07
:10183000F0E0EE0FFF1FE550FD4F808191810E9487
:10184000650B87E992E0CF910C94650B1F920F9284
:101850000FB60F9211242F933F934F935F936F9383
:101860007F938F939F93AF93BF93EF93FF938BEEF1
:1018700091E00E941B01FF91EF91BF91AF919F9169
:101880008F917F916F915F914F913F912F910F9029
:101890000FBE0F901F90189583ED91E00C941B01E3
:1018A0001F920F920FB60F9211242F933F934F93D5
:1018B0005F936F937F938F939F93AF93BF93EF93B8
:1018C000FF938BEB91E00E941B01FF91EF91BF9181
:1018D000AF919F918F917F916F915F914F913F91C8
:1018E0002F910F900FBE0F901F9018950895CF93D2
:1018F000DF9390E0FC01E859FF4F249184589F4FFB
:10190000FC0184918115C9F090E0880F991FFC01BA
:10191000E656FF4FA591B591FC01E057FF4FC591E9
:10192000D5919FB761110CC0F8948C9120958223BA
:101930008C938881282328839FBFDF91CF910895BE
:10194000623051F4F8943C91822F809583238C93DC
:101950008881822B8883F0CFF8948C91822B8C9392
:10196000EBCF1F920F920FB60F9211242F933F933C
:101970004F935F936F937F938F939F93AF93BF9397
:10198000EF93FF9380914E0790914F07A0915007DE
:10199000B091510730914D0723E0230F2D3798F573
:1019A0000196A11DB11D20934D0780934E07909382
:1019B0004F07A0935007B093510780915207909121
:1019C0005307A0915407B09155070196A11DB11D71
:1019D0008093520790935307A0935407B0935507F1
:1019E0000E944C0CFF91EF91BF91AF919F918F910D
:1019F0007F916F915F914F913F912F910F900FBE0B
:101A00000F901F90189526E8230F0296A11DB11D77
:101A1000CACF2FB7F89460914E0770914F0780910D
:101A20005007909151072FBF089584B5826084BDFF
:101A300084B5816084BD85B5826085BD85B58160D2
:101A400085BDEEE6F0E0808181608083E1E8108270
:101A5000808182608083808181608083E0E88081F2
:101A600081608083E1EB808184608083E0EB808112
:101A700081608083EAE780818460808380818260E6
:101A800080838081816080838081806880831092E0
:101A9000C1000895FFCFFFCFCF93DF93E82FEE0F64
:101AA000FF0BEA5CFC4FA081B18114968D919D9152
:101AB00001971497ED91FD91E80FF91F19968C91FC
:101AC0001D97823079F582EA90E0892F22EA30E092
:101AD00020839F0121503109E901888316963D91A9
:101AE0002C911797CF010297EC0138830197EC01F5
:101AF0002883069726E0EC0119922A95E9F70197C9
:101B000020E8EC0128830C972CE0EC0119922A952F
:101B1000E9F70D90BC91A02D7797ED93FD93DF91A0
:101B2000CF9108958EEB90E0892F2EEB30E0D0CF4F
:101B3000089578940895F894089578940895F89401
:101B4000089508950E94150D0E94A10D0E94760C23
:101B50000E948C0B809156070E946C0680E090E0FA
:101B6000089580917E0380935607089508951F92EB
:101B70000F920FB60F9211242F933F934F935F93C1
:101B80006F937F938F939F93AF93BF93EF93FF9345
:101B9000E0910802F09109020995FF91EF91BF9140
:101BA000AF919F918F917F916F915F914F913F91F5
:101BB0002F910F900FBE0F901F9018951F920F92AC
:101BC0000FB60F9211242F933F934F935F936F9310
:101BD0007F938F939F93AF93BF93EF93FF93E09186
:101BE0000A02F0910B020995FF91EF91BF91AF911D
:101BF0009F918F917F916F915F914F913F912F9125
:101C00000F900FBE0F901F9018950F931F93CF93B7
:101C1000DF9300D000D000D0CDB7DEB789839A83A0
:101C20004B835C836D837E8300E010E0AB81BC81DD
:101C30000A171B0761F4C8010F900F900F900F90C7
:101C40000F900F90DF91CF911F910F910895A9816F
:101C5000BA81ED91FD910190F081E02DAD81BE81C1
:101C60006C9189819A810995892B29F38D819E81B7
:101C700001968D839E830F5F1F4FD8CFDC016115C6
:101C8000710561F0ED91FD91129722813381CB01B5
:101C90000E940710AC01CD01F901099480E090E0A9
:101CA00008950C943E0E2F932FB72F938F939F93ED
:101CB000EF93FF93E0916707F09168078081E091CF
:101CC0006D07F0916E0782FD19C0908180917007B9
:101CD0008F5F8F7320917107821741F0E091700739
:101CE000F0E0E95AF84F958F80937007FF91EF91DC
:101CF0009F918F912F912FBF2F9118958081F6CFB3
:101D00001F920F920FB60F9211242F933F934F9370
:101D10005F936F937F938F939F93AF93BF93EF9353
:101D2000FF9387E597E00E94060FFF91EF91BF9127
:101D3000AF919F918F917F916F915F914F913F9163
:101D40002F910F900FBE0F901F901895E7E5F7E0C9
:101D50001282138288EE93E0848395831682178221
:101D600083EB93E08083918385EC8487158684ECF4
:101D70008687178680EC808B118A81EC828B138A90
:101D800082EC848B158A86EC868B178A118E128ED4
:101D9000138E148E0895FC01918D228D892F90E071
:101DA000805C9F4F821B91098F7390E00895FC0126
:101DB000918D828D981731F0828DE80FF11D858D00
:101DC00090E008958FEF9FEF0895FC01918D828D33
:101DD000981761F0A28DAE0FBF2FB11D5D968C914B
:101DE000928D9F5F9F73928F90E008958FEF9FEF8A
:101DF0000895FC01238D348D832F90E0821B91097F
:101E0000231710F0CF96089501970895FC01A48D33
:101E1000A80FB92FB11DA35ABF4F2C91848D0196E5
:101E20008F73848FA689B7892C93A089B1898C91EF
:101E3000837080648C93938D848D981306C0028880
:101E4000F389E02D80818F7D80830895CF93DF9388
:101E5000EC01888D811111C0DF91CF9108950FB6EB
:101E600007FC0DC0808185FF0AC0A889B9898C91C3
:101E700085FF05C0CE010E94060FEA89FB8980819B
:101E800085FDEDCFA889B9898C9186FFE8CFE4CF95
:101E9000EF92FF920F931F93CF93DF93EC01F62EF7
:101EA00081E0888F9B8D8C8D98131AC0E889F98901
:101EB000808185FF15C09FB7F894EE89FF89608304
:101EC000E889F98980818370806480839FBF81E085
:101ED00090E0DF91CF911F910F91FF90EF900895C7
:101EE0000B8D0F5F1F4F0F73E02E8C8D8E1579F0C9
:101EF000EB8DEC0FFD2FF11DE35AFF4FF0829FB7E2
:101F0000F8940B8FEA89FB8980818062DECF0FB65F
:101F100007FCEBCFE889F989808185FFE6CFCE0108
:101F20000E94060FE2CFCF92DF92EF92FF92CF9303
:101F3000DF9300D00F92CDB7DEB78A839B836A010F
:101F40007B012983DC015096ED91FD9182E0808335
:101F5000C114B1EEDB06E104F10491F060E079E038
:101F60008DE390E09A01A7010E94D7122150310918
:101F70004109510956954795379527953031B0F06D
:101F8000AA81BB815096ED91FD91108260E874E8C2
:101F90008EE190E09601A7010E94D71221503109ED
:101FA000410951095695479537952795AA81BB81D7
:101FB0001C96ED91FD913083ED91FD912083189653
:101FC0001C921497ED91FD91B981B083AA81BB81D8
:101FD0005296ED91FD91808180618083FE91EE911A
:101FE000808188608083ED91FD918081806880830D
:101FF000FE91EE9180818F7D80830F900F900F90E6
:10200000DF91CF91FF90EF90DF90CF900895FC018A
:1020100001900020E9F7809590958E0F9F1F0895FD
:10202000AEE0B0E0E6E1F0E10C940F138C01CA01E0
:1020300046E04C8309831A83FB016130704810F03D
:10204000E0E0F0E83197ED83FE83A901BC01CE0109
:1020500001960E943D104D815E8157FD0AC02F817F
:102060003885421753070CF49A01020F131FF80129
:1020700010822E96E4E00C942B13ACE0B0E0E3E485
:10208000F0E10C9404135C016B017A01FC011682EF
:102090001782838181FFD3C12AE0522EF50123816B
:1020A000F60123FD859123FF81916F01811509F4CC
:1020B0002CC1853239F423FD959123FF91916F0155
:1020C000953229F4B50190E00E943812E7CF30E054
:1020D000712C00E010E0103210F59B32C9F050F482
:1020E0009032B9F09332C9F09E3261F516FD0DC100
:1020F000106405C09D3279F0903399F41160F601B7
:1021000023FD959123FF91916F019111E4CF23C09D
:1021100012601460F4CF1860F2CF1061F0CF17FD99
:102120001AC080ED890F8A30F8F616FF05C0759C3D
:10213000800D1124782EE3CF059D800D1124082FEA
:102140001062DDCF9C3611F41068D9CF9C3409F4AD
:1021500040C09836A1F2892F8F7D85548330D8F105
:10216000933609F45FC0933709F46AC0933509F4D4
:1021700076C0943619F0993609F0A2C0F70117FF1E
:1021800098C061917191819191917F011F7697FF24
:1021900003C00E94F91210682AE030E04E014FEFB0
:1021A000841A940AA4010E947912682E681816FFF6
:1021B000D2C0812F8E7F671408F0CCC014FF1DC1E0
:1021C00012FD11C11E7E972C812F867809F4CEC096
:1021D0000FC131E094CF311509F1F8E0EF0EF11C99
:1021E0008FE3898391E0692E712C4E018FEF881A5D
:1021F000980A1F7713FD04C06016710408F43FC0ED
:102200006114710409F042C0011509F447CFB5010A
:1022100080E290E00E9438120150F6CF44E0E40ED4
:10222000F11CDECFF70180818983F2E0EF0EF11C13
:1022300081E0682E712C4E014FEF841A940AD9CF99
:10224000F701819091907F01672D70E016FD02C02B
:102250006FEF7FEFC4010E942D123C01CACFF7013E
:10226000819091907F01672D70E016FD02C06FEFA5
:102270007FEFC4010E9422123C011068BBCFB50160
:1022800080E290E00E9438120150B6CFF40117FDB1
:10229000859117FF81914F01B50190E00E9438129E
:1022A00081E0011101C080E0081BF1E06F1A7108A4
:1022B000A7CF61917191872F880F880B982F65CFD9
:1022C0009537C9F41F7E1C872AE030E0FC85F7FFB4
:1022D0003BC0F70161917191819191917F014E0114
:1022E0004FEF841A940AA4010E947912682E68188C
:1022F0001C851F775CCF812F897F8C87903799F061
:1023000058F49835B9F09F36E1F0F5018681978150
:102310002C96EFE00C9420139837B9F714FD06C003
:1023200020E130E0D3CF9C8590619C87EC85E46010
:10233000EC87F6CF14FF02C016601C8720E132E064
:10234000C5CF28E030E0C2CFF7016191719180E004
:1023500090E0C4CF182F962C14FF36CFFE01E60D67
:10236000F11D8081803309F041C0197E13FD0EC03C
:1023700010FF4FC0762C901618F4700E7918902E1E
:10238000802F8919091508F480E0980E901608F03E
:1023900042C0091914FF41C0B50180E390E00E94DA
:1023A000381212FF09C088E590E011FD02C088E7ED
:1023B00090E0B5010E9438126714D0F14E018FEF02
:1023C000881A980A6A94FE013296E60DF11D3F01C3
:1023D000F30182913F01B50190E00E943812681428
:1023E0007904B1F711CF972C182FB8CF12FD02C086
:1023F0009394BCCF93949394B9CF972C182FE4CE99
:10240000B50180E290E00E94381283948016C0F3F8
:10241000B7CF892CFBCF00E0BDCF812F867861F24A
:1024200080E211FD8BE217FD8DE2B50190E0C2CF95
:10243000B50180E390E00E9438127A94BDCF8FEF0F
:102440009FEF66CFFC010590615070400110D8F7F6
:10245000809590958E0F9F1F0895FC0161507040EC
:1024600001900110D8F7809590958E0F9F1F0895C9
:10247000A3E0B0E0EEE3F2E10C941013182F99837F
:102480006A837B83DB0113968C9181FD09C01FEF6A
:10249000BFEFB983812F99812396E3E00C942C132D
:1024A00082FF1BC0EA81FB8126813781848195816F
:1024B0002817390754F40190F081E02DCF010196DF
:1024C000AA81BB818D939D931083EA81FB818681D4
:1024D0009781019686839783DDCFAA81BB81189669
:1024E000ED91FD911A97BD01812F0995892B69F313
:1024F000CECFFA01AA27283051F1203181F1E8949A
:102500006F936E7F6E5F7F4F8F4F9F4FAF4FB1E0E6
:102510003ED0B4E03CD0670F781F891F9A1FA11DE1
:10252000680F791F8A1F911DA11D6A0F711D811DE2
:10253000911DA11D20D009F468943F912AE0269FA7
:1025400011243019305D3193DEF6CF010895462F06
:102550004770405D4193B3E00FD0C9F7F6CF462FE7
:102560004F70405D4A3318F0495D31FD4052419350
:1025700002D0A9F7EACFB4E0A6959795879577950D
:102580006795BA95C9F700976105710508959B0194
:10259000AC010A2E06945795479537952795BA951D
:1025A000C9F7620F731F841F951FA01D0895A1E234
:1025B0001A2EAA1BBB1BFD010DC0AA1FBB1FEE1FBD
:1025C000FF1FA217B307E407F50720F0A21BB30B08
:1025D000E40BF50B661F771F881F991F1A9469F784
:1025E00060957095809590959B01AC01BD01CF01E0
:1025F000089590958095709561957F4F8F4F9F4F6F
:1026000008952F923F924F925F926F927F928F9296
:102610009F92AF92BF92CF92DF92EF92FF920F9371
:102620001F93CF93DF93CDB7DEB7CA1BDB0B0FB67B
:10263000F894DEBF0FBECDBF09942A883988488838
:102640005F846E847D848C849B84AA84B984C884CE
:10265000DF80EE80FD800C811B81AA81B981CE0FC5
:10266000D11D0FB6F894DEBF0FBECDBFED010895AA
:10267000EE0FFF1F0590F491E02D0994F894FFCF21
:10268000000000000000000000000000000000004A
:10269000000000000000000000000000000000003A
:1026A000000000000000000000000000000000002A
:1026B000000000000000000000000000000000001A
:1026C000000000000000000000000000000000000A
:1026D00000000000000000000000000000000000FA
:1026E0000000000000000000FFFCFFFFFF0000688A
:1026F000030000F606FFFFFFFFFFFFFFFF000013D0
:1027000003000000000500000005000000021C039B
:10271000000000000A000000050000000225030080
:10272000000000D1030000D10300000200000003FC
:10273000000000000200000000010001000000FF96
:10274000FF00000100000000000000000000000089
:1027500000000001000000FFFF0000010000000079
:10276000000000000000000000000001000000D098
:102770000700000100000000000000000000000051
:102780000000000400FF0000B60DB60DFF0A2E2E5B
:102790002E2E2E2E2E2E2E2E2E2E2E2E2E0A002EAB
:1027A0002E2E4F53205374617274732E2E2E0A00F6
:1027B0000A25346C643A20005461736B31206265E1
:1027C00067696E732E2E2E005461736B312066691B
:1027D0006E69736865732E2E2E005461736B322000
:1027E000626567696E732E2E2E005461736B322002
:1027F00066696E69736865732E2E2E00554E4B4EBA
:102800004F574E5F4552524F52005B4572726F7286
:10281000486F6F6B3A20005D00455F4F4B00455F8E
:102820004F535F41434345535300455F4F535F430D
:10283000414C4C4556454C00455F4F535F49440061
:10284000455F4F535F4C494D495400455F4F535FBF
:102850004E4F46554E4300455F4F535F5245534FD1
:102860005552434500455F4F535F53544154450013
:10287000455F4F535F56414C55450099029E02AA51
:1028800002B802C002CB02D702E502F0029D018E1F
:10289000017F01BB0138091903280601BB01380972
:1028A0002203280600EB0138092B03280602B60193
:1028B000B101AC01F6065A034C033E036803F00372
:1028C000F2030001B50B000002030100F204F4045E
:1028D0000001F50B000001020100F405F6050001FE
:1028E000DD0B000000010100FB06FD0650004A0D53
:1028F0000000030001000302010101000000007458
:102900000742074B0724079704C1068104EA06D64D
:10291000075A066706C608B7070609F507410955AD
:10292000088C094106E6092708600AB80A800800F1
:10293000000000480F050EF90E260FCB0EE50ED74E
:022940000E0087
:00000001FF
