:100000000C945E000C94DB0C0C94020D0C94860096
:100010000C9486000C9486000C9486000C94860048
:100020000C9486000C940F0B0C9486000C948600A4
:100030000C9486000C9486000C9486000C94860028
:100040000C94D50B0C9486000C94770D0C94A40D95
:100050000C9486000C9486000C9486000C94860008
:100060000C9486000C948600000000080002010039
:100070000003040700000000000000000102040863
:100080001020408001020408102001020408102002
:10009000040404040404040402020202020203032E
:1000A0000303030300000000250028002B000000CC
:1000B0000000240027002A00D50CCA0D11241FBE01
:1000C000CFEFD8E0DEBFCDBF12E0A0E0B1E0E8ECBA
:1000D000F4E202C005900D92AA37B107D9F725E0E6
:1000E000AAE7B2E001C01D92AB39B207E1F710E018
:1000F000CEE5D0E004C02197FE010E945C12CC3511
:10010000D107C9F70E94C60C0C9462120C9400002F
:10011000E2E10E942D010895E9E00E942D01089579
:10012000EAE00E942D010895E1E00E942D0108956A
:10013000E3E00E942D010895E7E00E942D0108955B
:10014000E5E00E942D010895E0E00E942D01089550
:10015000E2E00E942D010895E4E00E942D0108953F
:10016000ECE00E942D010895E8E00E942D01089521
:10017000EEE00E942D010895E4E10E942D01089512
:10018000E0E10E942D010895E7E10E942D0108950C
:10019000E6E00E942D010895EBE00E942D010895F4
:1001A000EDE00E942D010895EFE00E942D010895D9
:1001B000E1E10E942D010895E3E10E942D010895DF
:1001C000E5E10E942D010895E6E10E942D010895C8
:1001D00021968A929A92AA92BA92CA92DA92EA9254
:1001E000FA920A931A932197E0916901F0916A01BA
:1001F0000080F181E02DC083D1830895C0916B010F
:10020000D0916C01E881F981C081D1812196199149
:100210000991F990E990D990C990B990A9909990D5
:100220008990219708952F903F90E7E6F1E0CDB7B0
:10023000DEB7EDBFFEBF3F922F9208952F903F9003
:10024000CDBFDEBF3F922F920895E0E80E942D01BE
:100250000895E0E40E942D0108952F923F924F925D
:100260005F926F927F922FB62F92CF93DF937E2E65
:10027000F894E0910001EF5FE0930001E13011F4A8
:100280000E941301E0E0E0937901E72DE07849F066
:100290000E946205F0917A01F17071F00E94FE03F4
:1002A0000BC0E72DEC3140F4EE0FF0E0E85CFD4FC1
:1002B0000190F081E02D0995F0917901EF2FE17027
:1002C00059F0F27011F00E94E8008F938F2F0E9476
:1002D00043038F910E94FE00209100012150209342
:1002E0000001222311F40E941E01DF91CF912F9073
:1002F0002FBE7F906F905F904F903F902F9008950A
:10030000FC014081FB013081842F877090E0A0E0E8
:10031000B0E0B695A7959795879583579D4FFC01BB
:100320002081F42FF21B2F2F21704670242B832F56
:10033000877090E0A0E0B0E0B695A7959795879577
:1003400083579D4FFC019081F32FF91B9F2F9170D4
:100350003670932B41E050E0291708F040E0CA01C5
:1003600008958F929F92AF92BF92EF92FF920F9358
:100370001F93CF93DF937C014A015B01B694A7944E
:1003800097948794423051056105710580F08A0188
:10039000000F111F0E0D1F1DE401CC0FDD1FCE0D30
:1003A000DF1DB801CE010E948001892B59F4DF9135
:1003B000CF911F910F91FF90EF90BF90AF909F90C2
:1003C0008F900895F801908181812881398120835F
:1003D000318398838983A401B501D0CF7F928F9216
:1003E0009F92AF92BF92CF92DF92EF92FF920F93C4
:1003F0001F93CF93DF938C014A015B01FC01708056
:1004000064017501CC0CDD1CEE1CFF1C7C141D046A
:100410001E041F0470F4DF91CF911F910F91FF9084
:10042000EF90DF90CF90BF90AF909F908F907F9094
:100430000895C601D7010196A11DB11D78161906B0
:100440001A061B0698F0BC01660F771F600F711F1C
:10045000C601880F991F800F911F0E948001092EED
:10046000000C0008C80ED91EE01CF01CE601CC0FE1
:10047000DD1FC00FD11F880C991C800E911EBE017C
:10048000C4010E948001892B31F2F40190818181A5
:1004900028813981208331839883898346015701DC
:1004A000AFCF409191024F5F4093910250E060E0E6
:1004B00070E0E82FEE0FFF0BEE5FFD4F0190F08133
:1004C000E02D2385E22FF0E0E357FD4F908191501E
:1004D0009083FA01EE0FFF1FEF56FD4F9170220F30
:1004E000922B9083818381E992E00C94B101409139
:1004F00091024F5F4093910250E060E070E0FA019A
:10050000EE0FFF1FEF56FD4FA82FAA0FBB0BA450F5
:10051000BE4F0D90BC91A02D13969C91908381832A
:1005200081E992E00C94B101CF93DF9300D0CDB775
:10053000DEB7809191029FEF980F90939102909176
:1005400093029A8390919402998390E0880F991F67
:10055000FC01EF56FD4F808191818093930290932F
:10056000940241E050E060E070E081E992E00E9496
:10057000EE018A8199810F900F90DF91CF910895BC
:1005800080917A02811115C04091710150917201E0
:1005900060917301709174014F3F540764077407B1
:1005A00051F081E0423051056105710524F082E08F
:1005B000089584E008950895CF93DF93880F990BF1
:1005C000FC01EE5FFD4F0190F081E02D0084F1858C
:1005D000E02D3097C9F02281211116C021E022833D
:1005E00084509E4FEC01A881B98113968C91818330
:1005F0009081E92FF0E0E357FD4F808181508083A7
:100600008170990F892B8C93DF91CF910895CF93AF
:10061000DF93880F990BFC01EE5FFD4F0190F08195
:10062000E02D0084F185E02D309761F022812130AA
:1006300049F4128284509E4FEC01A881B9818181D6
:1006400013968C93DF91CF910895809175019091CD
:100650007601A0917701B09178014091710150919C
:1006600072016091730170917401481759076A070C
:100670007B0741F0E0916F01F091700121E024834C
:100680000C9477020895CF93DF93C0E0D0E08115FA
:1006900089F0C0916901D0916A01E0916D01F091FA
:1006A0006E018481833031F081E084838091710117
:1006B0000E947702E0916F01F0917001E0936D016B
:1006C000F0936E0180916B0190916C0180936901B0
:1006D00090936A01809175013091760120917701A4
:1006E000909178018093710130937201209373018E
:1006F0009093740192E094830E94DC02CE01DF911A
:10070000CF910895809171010E940703E0916D01DE
:10071000F0916E018281811185E084830895CF93E9
:10072000DF93282F220F330BF901E450FE4FC081D5
:10073000D1819A812E5F3D4FD901ED91FD912485A4
:10074000921780F4911105C095E09C8391E09093FD
:100750007A010E9451028A818F5F8A8380E0DF9153
:10076000CF91089584E0FBCFE82FEE0FFF0BE4500C
:10077000FE4F0190F081E02D108211820C94700CDC
:10078000CF93DF9300D00F92CDB7DEB70E949402D3
:100790008983892F592F550F550B909375015093CD
:1007A00076015093770150937801292F220F330B54
:1007B000F901E450FE4F408151814A835B834093AD
:1007C0006F01509370012E5F3D4FF90120813181FF
:1007D00020936B0130936C01FA019481953031F4D0
:1007E0000E94B4034981EA81FB81438310927A011C
:1007F0000F900F900F90DF91CF910895E0917501C8
:10080000F0917601EE0FFF1FE450FE4F0190F08152
:10081000E02D809193029381981740F40E94250364
:100820000E94C00383E080937901089580E0FBCFAC
:1008300081E0809379010C94C0030F931F93CF93B1
:10084000DF93C1E001C0CC0F8A95EAF71C2F2091FD
:1008500006023091070280910002909101021092ED
:1008600091021092690110926A0120936B013093FA
:100870006C0110926D0110926E0180936F01909344
:100880007001AFEFBFEFCD018093710190937201C2
:10089000A0937301B09374018093750190937601D6
:1008A000A0937701B09378011092790110927A01A8
:1008B00082E00E948F03809135028C2319F080E042
:1008C0000E948F03809136028C2319F081E00E94F0
:1008D0008F0380E090E020913402C12FC223009169
:1008E000F1011091F201D1E0892B29F0DF91CF9134
:1008F0001F910F910895C115C9F3F801D687C8015A
:100900000E94AF0481E090E0EFCF0E944506811184
:100910000E946506E0916D01F0916E0180819181E8
:10092000892B21F0809171010E9439080C94900765
:100930000E94450681110E946506E0916D01F091CB
:100940006E0180819181892B21F0809171010E943B
:1009500039080C94750781E080937B020895CF924B
:10096000DF92EF92FF920F931F93CF93DF93FC01DF
:10097000A081B1810D90BC91A02D54962D913D91F7
:1009800056972115310509F441C042855385648588
:10099000758500E010E0E901CA84DB84EC84FD8405
:1009A0004C155D056E057F0508F042C0C9018283C4
:1009B000938304831583009719F0EC01EC83FD8386
:1009C00001151105F1F1E801EA83FB835696CD91FB
:1009D000DD910A851B852C853D851897CD90DD908E
:1009E000ED90FD9054970C151D052E053F0570F5F3
:1009F000C416D506E606F70628F040175107620729
:100A0000730768F45696ED93FD9309C054968D9341
:100A1000FD938D93FD931482158212821382DF91D0
:100A2000CF911F910F91FF90EF90DF90CF9008959D
:100A3000E9018A819B818901009709F4B8CF9C0163
:100A4000AACF5496ED93FD935697C0CFC416D50602
:100A5000E606F70620F7D1CFCF93DF93DC01ED91C7
:100A6000FD9112970190F081E02D12960D90BC91AE
:100A7000A02D248935892817390711F4A48BB58B4B
:100A8000268937892817390719F4A68BB78B9D015A
:100A9000109739F0EC014C815D8114964D935D9374
:100AA0001697EC018C819D81009719F0EC01AA83C7
:100AB000BB83232B21F484899589868B978BDF91C7
:100AC000CF910895EF92FF920F931F93CF93DF93EF
:100AD000EC0180917B02811509F4A7C08C859D856E
:100AE000AE85BF850196A11DB11D8C879D87AE8700
:100AF000BF87488159816A817B8184179507A60742
:100B0000B70709F092C088899989AA89BB8901969B
:100B1000A11DB11D4C815D816E817F8148175907F0
:100B20006A077B0718F4A0E0B0E0CD01888B998BB1
:100B3000AA8BBB8B1C861D861E861F860E891F896D
:100B40000115110509F471C0F801428553856485CA
:100B50007585481759076A077B0709F066C09F012A
:100B60000280F381E02D309749F0428553856485FA
:100B7000758584179507A607B70789F3D8011496DA
:100B80008D919D91009721F0DC011296ED93FD93DC
:100B9000309711F0848395838C899D8908171907F4
:100BA00011F4EC8BFD8B309711F4EC89FD89EE8B01
:100BB000FF8BF901128213827801D80112960D91F0
:100BC0001D911497ED91FD910280F381E02DC701F5
:100BD0000995F70186819781A085B185109790408E
:100BE000804051F14285538564857585840F951F3A
:100BF000A61FB71F4C815D816E817F814817590701
:100C00006A077B0738F4841B950BA60BB70B01977B
:100C1000A109B109F70182879387A487B587C70126
:100C20000E94AF040115110539F6DF91CF911F9194
:100C30000F91FF90EF900895D7011E961C92F2CF6E
:100C4000FC0182810C948F030E944506809168010B
:100C50000895809368010E941D040E94AB040C94C7
:100C600018040C946F0CCF93DF930F92CDB7DEB7BF
:100C700089830E94C002811102C00E94BC0C89813C
:100C80000F90DF91CF910C948C002091880221303D
:100C9000D1F0409180025091810260918202709166
:100CA00083028091840290918502A0918602B09186
:100CB0008702842B952BA62BB72B21E0892B8A2B1F
:100CC0008B2B09F420E0822F089510928802109255
:100CD000840210928502109286021092870210926E
:100CE00080021092810210928202109283028091FF
:100CF0007C0290917D02A0917E02B0917F02809350
:100D0000890290938A02A0938B02B0938C0208957B
:100D10000E94BF0C8091890290918A02A0918B025F
:100D2000B0918C020196A11DB11D80938902909310
:100D30008A02A0938B02B0938C02809184029091DE
:100D40008502A0918602B09187020196A11DB11D76
:100D50008093840290938502A0938602B0938702C9
:100D600008958091840290918502A0918602B091AD
:100D7000870210979040804069F14091890250911C
:100D80008A0260918B0270918C0241505109610975
:100D900071094093890250938A0260938B02709389
:100DA0008C020197A109B109809384029093850276
:100DB000A0938602B09387028091890290918A0263
:100DC000A0918B02B0918C02892B8A2B8B2B11F472
:100DD0000C94BD0C08958091840290918502A0919D
:100DE0008602B09187024091800250918102609109
:100DF000820270918302842B952BA62BB72B892B13
:100E00008A2B8B2B29F40E94BF0C81E080938802EF
:100E1000089580918802811521F0109288020C9427
:100E2000BD0C08950E94C30C8091890290918A02A2
:100E3000A0918B02B0918C020196A11DB11D8093EF
:100E4000890290938A02A0938B02B0938C028091C6
:100E5000800290918102A0918202B091830201965A
:100E6000A11DB11D8093800290938102A093820204
:100E7000B093830208958091800290918102A091A5
:100E80008202B091830210979040804069F14091B6
:100E9000890250918A0260918B0270918C024150BC
:100EA0005109610971094093890250938A02609344
:100EB0008B0270938C020197A109B1098093800283
:100EC00090938102A0938202B09383028091890261
:100ED00090918A02A0918B02B0918C02892B8A2B6F
:100EE0008B2B11F40C94C10C08950E9445068111BE
:100EF00083E10895CF93DF930F92CDB7DEB7898357
:100F00000E94450689810E948F03898380917A011E
:100F100081110E94FE0389810F90DF91CF91089586
:100F2000CF930E944506C82F8111C3E1E0916D0166
:100F3000F0916E018281815082830E94820381E060
:100F4000809379010E94C0038C2FCF910895CF9395
:100F5000DF930F92CDB7DEB789830E944506E091FB
:100F60006D01F0916E0182818150828389810E949E
:100F70008F03898381110CC00E94820381E08093DA
:100F800079010E94C00389810F90DF91CF9108956C
:100F9000E0916D01F0916E0182818F5F8283F3CFCA
:100FA000CF930E944506C82F8111C3E18091710142
:100FB0000E9407030E94FE038091710190917201CB
:100FC000A0917301B0917401409175015091760127
:100FD000609177017091780184179507A607B7078C
:100FE00011F40E94DC028C2FCF910895CF93DF93F0
:100FF00000D0CDB7DEB789839A830E944506811160
:1010000083E140917101509172016091730170917F
:101010007401423051056105710514F04091CD0114
:10102000E981FA8140830F900F90DF91CF9108956D
:10103000CF93DF9300D00F92CDB7DEB789836A8359
:101040007B830E944506811183E19981E92FEE0F90
:10105000FF0BE450FE4F0190F081E02D94819370DE
:10106000EA81FB8190830F900F900F90DF91CF91D9
:101070000895E82FEE0FFF0BE450FE4FA081B181E1
:10108000ED91FD911297309771F01D921D92809114
:10109000CD01DF010380F481E02D12968D931D9226
:1010A0001D923097B1F70895CF93DF930F92CDB78C
:1010B000DEB789830E944506811183E19981E92F7A
:1010C000F0E0EE0FFF1FEE5CFD4F0190F081E02D90
:1010D000909171019283A0916D01B0916E012D915B
:1010E0003D9123833483FE93EE9313962C911397B3
:1010F000218390812695291760F4E92FF0E0E357CA
:10110000FD4F208121502083990F2170922B13963F
:101110009C930F90DF91CF910895CF93DF9300D0F0
:10112000CDB7DEB789830E9445068A83811511F009
:1011300083E18A838981E82FF0E0EE0FFF1FEE5CE8
:10114000FD4F0190F081E02DA0916D01B0916E01F5
:10115000818113968C931397838194818D939D93B2
:10116000138214828091CD0182830E94FE038A81C2
:101170000F900F90DF91CF910895DC01ED91FD91DB
:1011800084819581DC01ED91FD910994CF93DF93EA
:1011900000D00F92CDB7DEB789836A837B830E942C
:1011A0004506811183E19981E92FF0E0EE0FFF1FE1
:1011B000EF50FE4F0190F081E02D0190F081E02D85
:1011C0000190F081E02D4081518162817381AA817B
:1011D000BB8114964D935D936D937D9318974481D5
:1011E0005581668177814D935D936D937D931497BF
:1011F0004085518562857385FD01408751876287EF
:1012000073870F900F900F90DF91CF910895CF9239
:10121000DF92EF92FF920F931F93CF93DF9300D053
:10122000CDB7DEB7182F69837A830E9445068111F6
:1012300083E1E12FF0E0EE0FFF1FEF50FE4F019032
:10124000F081E02D9685913081F542855385648546
:1012500075850190F081E02D0190F081E02D0089ED
:10126000118922893389401751076207730740F4B7
:10127000C480D580E680F7804C0D5D1D6E1D7F1DFE
:10128000401B510B620B730BE981FA814083518340
:10129000628373830F900F90DF91CF911F910F9115
:1012A000FF90EF90DF90CF90089585E0F3CFAF925D
:1012B000BF92CF92DF92EF92FF920F931F93CF9343
:1012C000DF9300D000D000D0CDB7DEB789834A834A
:1012D0005B836C837D83780189010E9445068E8340
:1012E000811511F083E18E83A980EA2DF0E0EE0FE5
:1012F000FF1FEF50FE4F0190F081E02D8685811198
:1013000045C0A081B1810D90BC91A02D50964D910A
:101310005D916D917D915497AA80BB80CC80DD80DA
:101320004A0D5B1D6C1D7D1D14968D919D910D9038
:10133000BC91A02D84179507A607B70740F4481B5A
:10134000590B6A0B7B0B41505109610971094287A6
:10135000538764877587E682F7820087118781E06B
:101360008687CF010E94AF048E810F900F900F905F
:101370000F900F900F90DF91CF911F910F91FF90E1
:10138000EF90DF90CF90BF90AF90089587E08E836D
:10139000EBCFEF92FF920F931F93CF93DF9300D089
:1013A00000D000D0CDB7DEB789834A835B836C83DE
:1013B0007D83780189010E9445068E83811511F095
:1013C00083E18E839981E92FF0E0EE0FFF1FEF504C
:1013D000FE4F0190F081E02D868581111FC08A812A
:1013E0009B81AC81BD8182879387A487B587E68284
:1013F000F7820087118781E08687CF010E94AF04C2
:101400008E810F900F900F900F900F900F90DF91A3
:10141000CF911F910F91FF90EF90089597E09E83D9
:10142000EFCF0F931F93CF93182F0E944506C82F1D
:101430008111C3E1E12FF0E0EE0FFF1FEF50FE4FEF
:1014400000811181F8018685813051F4C8010E9424
:101450002C05F80116868C2FCF911F910F910895BE
:10146000C5E0F9CF8F929F92AF92BF92CF92DF9259
:10147000EF92FF92CF93DF9300D000D0CDB7DEB7CD
:1014800069837A838B839C830E942D0C6B017C0182
:101490000E942D0C69817A818B819C8124E130E04E
:1014A00040E050E00E94FB1129833A834B835C8328
:1014B000A12CB12C450189819A81AB81BC81881610
:1014C0009906AA06BB0679F40F900F900F900F9023
:1014D000DF91CF91FF90EF90DF90CF90BF90AF90D2
:1014E0009F908F9008950E942D0C6C197D098E0994
:1014F0009F096431710581059105A8F38FEF881A62
:10150000980AA80AB80A0E942D0C6B017C01D3CF5F
:10151000CF93DF93CDB7DEB7C054D1090FB6F8949F
:10152000DEBF0FBECDBF9E012B5B3F4FF901419146
:1015300051919F0160E470E0CE0101960E94340F4A
:10154000BE016F5F7F4F8EEF94E00E94750DC05C0F
:10155000DF4F0FB6F894DEBF0FBECDBFDF91CF9146
:1015600008951092B0001092B2008CE08093B10008
:1015700089EF8093B300E0E7F0E0808181608083B1
:101580007894089561E08DE00E94610B26E040E0D0
:1015900052EC61E070E08EEF94E00E94B70E8EECAA
:1015A00091E09F938F930E94880A80EE91E09F9331
:1015B0008F930E94880A8FEC91E09F938F930E94F3
:1015C000880A0F900F900F900F900F900F900C942F
:1015D000B10A0C94B40061E08DE00E949B0B60EDB9
:1015E00077E080E090E00E94320A60E08DE00E94A7
:1015F0009B0B60ED77E080E090E00E94320A61E0B2
:101600008DE00E949B0B60ED77E080E090E00E940F
:10161000320A60E08DE00E949B0B0C94B4001F9294
:101620000F920FB60F9211242F933F934F935F9316
:101630006F937F938F939F93AF93BF93EF93FF939A
:101640008CEA91E00E942501FF91EF91BF91AF914B
:101650009F918F917F916F915F914F913F912F91CA
:101660000F900FBE0F901F90189584E991E00C9495
:1016700025010895843081F050F48230A9F0833040
:1016800079F4809180008F7780938000089587306F
:1016900071F0883091F00895809180008F7DF4CFB3
:1016A00084B58F7784BD089584B58F7DFBCF8091FD
:1016B000B0008F778093B00008958091B0008F7D47
:1016C000F9CFCF93DF9390E0FC01E458FF4F2491D2
:1016D00080579F4FFC0184918115C9F090E0880FDD
:1016E000991FFC01E255FF4FA591B591FC01EC5506
:1016F000FF4FC591D5919FB761110CC0F8948C91A3
:10170000209582238C938881282328839FBFDF9193
:10171000CF910895623051F4F8943C91822F8095D6
:1017200083238C938881822B8883F0CFF8948C91CB
:10173000822B8C93EBCFCF93DF9300D00F92CDB75A
:10174000DEB76983282F30E0F901E859FF4F849113
:10175000F901E458FF4F94919B83F901E057FF4F43
:1017600024912A832115B9F081110E943A0B8A81B4
:10177000E82FF0E0EE0FFF1FEC55FF4FA591B5915C
:101780009FB7F89429818C9121110BC02B81209552
:1017900028232C939FBF0F900F900F90DF91CF9134
:1017A00008952B81822B8C93F5CF1F920F920FB649
:1017B0000F9211242F933F934F935F936F937F93D7
:1017C0008F939F93AF93BF93EF93FF938091F50413
:1017D0009091F604A091F704B091F8043091F404CC
:1017E00023E0230F2D3798F50196A11DB11D2093FD
:1017F000F4048093F5049093F604A093F704B09357
:10180000F8048091F9049091FA04A091FB04B0913E
:10181000FC040196A11DB11D8093F9049093FA0474
:10182000A093FB04B093FC040E94350BFF91EF9151
:10183000BF91AF919F918F917F916F915F914F91E8
:101840003F912F910F900FBE0F901F90189526E893
:10185000230F0296A11DB11DCACF2FB7F894609136
:10186000F5047091F6048091F7049091F8042FBF6D
:10187000089584B5826084BD84B5816084BD85B5DA
:10188000826085BD85B5816085BDEEE6F0E0808132
:1018900081608083E1E81082808182608083808122
:1018A00081608083E0E8808181608083E1EB8081DA
:1018B00084608083E0EB808181608083EAE78081BF
:1018C0008460808380818260808380818160808366
:1018D0008081806880831092C1000895FFCFFFCF80
:1018E000CF93DF93E82FEE0FFF0BEE5FFD4FA0814C
:1018F000B18114968D919D9101971497ED91FD9171
:10190000E80FF91F19968C911D97823079F58CEAB2
:1019100090E0892F2CEA30E020839F01215031098B
:10192000E901888316963D912C911797CF01029774
:10193000EC0138830197EC012883069726E0EC013F
:1019400019922A95E9F7019720E8EC0128830C9772
:101950002CE0EC0119922A95E9F70D90BC91A02D8D
:101960007797ED93FD93DF91CF91089588EC90E008
:10197000892F28EC30E0D0CF089578940895F8941A
:10198000089578940895F894089508950E94390C64
:101990000E94C50C0E94390B0E94C20A8091FD046E
:1019A0000E94330680E090E0089580913702809392
:1019B000FD04089508951F920F920FB60F921124FF
:1019C0002F933F934F935F936F937F938F939F9347
:1019D000AF93BF93EF93FF93E091C901F091CA01D8
:1019E0000995FF91EF91BF91AF919F918F917F9159
:1019F0006F915F914F913F912F910F900FBE0F907C
:101A00001F9018951F920F920FB60F9211242F93CB
:101A10003F934F935F936F937F938F939F93AF9376
:101A2000BF93EF93FF93E091CB01F091CC01099527
:101A3000FF91EF91BF91AF919F918F917F916F91A6
:101A40005F914F913F912F910F900FBE0F901F907C
:101A500018950F931F93CF93DF9300D000D000D041
:101A6000CDB7DEB789839A834B835C836D837E8396
:101A700000E010E0AB81BC810A171B0761F4C801CC
:101A80000F900F900F900F900F900F90DF91CF91CC
:101A90001F910F910895A981BA81ED91FD91019057
:101AA000F081E02DAD81BE816C9189819A8109958B
:101AB000892B29F38D819E8101968D839E830F5FF3
:101AC0001F4FD8CFDC016115710561F0ED91FD91DB
:101AD000129722813381CB010E942B0FAC01CD01E3
:101AE000F901099480E090E008950C94620D2F9321
:101AF0002FB72F938F939F93EF93FF93E0910E0552
:101B0000F0910F058081E0911405F091150582FD9B
:101B100019C09081809117058F5F8F7320911805F0
:101B2000821741F0E0911705F0E0E250FB4F958FEE
:101B300080931705FF91EF919F918F912F912FBF68
:101B40002F9118958081F6CF1F920F920FB60F92AA
:101B500011242F933F934F935F936F937F938F93B2
:101B60009F93AF93BF93EF93FF938EEF94E00E9408
:101B70002A0EFF91EF91BF91AF919F918F917F912D
:101B80006F915F914F913F912F910F900FBE0F90EA
:101B90001F901895EEEFF4E01282138288EE93E026
:101BA00084839583168217828CE692E080839183EA
:101BB00085EC8487158684EC8687178680EC808B7D
:101BC000118A81EC828B138A82EC848B158A86ECD5
:101BD000868B178A118E128E138E148E0895FC0137
:101BE000918D228D892F90E0805C9F4F821B9109FF
:101BF0008F7390E00895FC01918D828D981731F0DC
:101C0000828DE80FF11D858D90E008958FEF9FEF95
:101C10000895FC01918D828D981761F0A28DAE0F11
:101C2000BF2FB11D5D968C91928D9F5F9F73928F98
:101C300090E008958FEF9FEF0895FC01238D348D80
:101C4000832F90E0821B9109231710F0CF960895FF
:101C500001970895FC01A48DA80FB92FB11DA35AB7
:101C6000BF4F2C91848D01968F73848FA689B7897D
:101C70002C93A089B1898C91837080648C93938D0F
:101C8000848D981306C00288F389E02D80818F7DB2
:101C900080830895CF93DF93EC01888D811111C06B
:101CA000DF91CF9108950FB607FC0DC0808185FFAD
:101CB0000AC0A889B9898C9185FF05C0CE010E9410
:101CC0002A0EEA89FB89808185FDEDCFA889B98933
:101CD0008C9186FFE8CFE4CFEF92FF920F931F9392
:101CE000CF93DF93EC01F62E81E0888F9B8D8C8D56
:101CF00098131AC0E889F989808185FF15C09FB7BC
:101D0000F894EE89FF896083E889F989808183707E
:101D1000806480839FBF81E090E0DF91CF911F912D
:101D20000F91FF90EF9008950B8D0F5F1F4F0F7372
:101D3000E02E8C8D8E1579F0EB8DEC0FFD2FF11DC3
:101D4000E35AFF4FF0829FB7F8940B8FEA89FB8923
:101D500080818062DECF0FB607FCEBCFE889F9897E
:101D6000808185FFE6CFCE010E942A0EE2CFCF927E
:101D7000DF92EF92FF92CF93DF9300D00F92CDB717
:101D8000DEB78A839B836A017B012983DC0150963D
:101D9000ED91FD9182E08083C114B1EEDB06E10498
:101DA000F10491F060E079E08DE390E09A01A70101
:101DB0000E94FB112150310941095109569547955F
:101DC000379527953031B0F0AA81BB815096ED91BF
:101DD000FD91108260E874E88EE190E09601A70121
:101DE0000E94FB112150310941095109569547952F
:101DF00037952795AA81BB811C96ED91FD91308383
:101E0000ED91FD91208318961C921497ED91FD9110
:101E1000B981B083AA81BB815296ED91FD918081F9
:101E200080618083FE91EE91808188608083ED9156
:101E3000FD91808180688083FE91EE9180818F7D0D
:101E400080830F900F900F90DF91CF91FF90EF90D4
:101E5000DF90CF900895FC0101900020E9F7809574
:101E600090958E0F9F1F0895AEE0B0E0EAE3FFE08B
:101E70000C9433128C01CA0146E04C8309831A8307
:101E8000FB016130704810F0E0E0F0E83197ED833D
:101E9000FE83A901BC01CE0101960E94610F4D8114
:101EA0005E8157FD0AC02F813885421753070CF415
:101EB0009A01020F131FF80110822E96E4E00C9491
:101EC0004F12ACE0B0E0E7E6FFE00C9428125C01B2
:101ED0006B017A01FC0116821782838181FFD3C1D5
:101EE0002AE0522EF5012381F60123FD859123FF7F
:101EF00081916F01811509F42CC1853239F423FDDC
:101F0000959123FF91916F01953229F4B50190E0ED
:101F10000E945C11E7CF30E0712C00E010E010323D
:101F200010F59B32C9F050F49032B9F09332C9F0F9
:101F30009E3261F516FD0DC1106405C09D3279F029
:101F4000903399F41160F60123FD959123FF91914F
:101F50006F019111E4CF23C012601460F4CF1860B8
:101F6000F2CF1061F0CF17FD1AC080ED890F8A30D3
:101F7000F8F616FF05C0759C800D1124782EE3CF6E
:101F8000059D800D1124082F1062DDCF9C3611F4C1
:101F90001068D9CF9C3409F440C09836A1F2892F3B
:101FA0008F7D85548330D8F1933609F45FC0933721
:101FB00009F46AC0933509F476C0943619F099365D
:101FC00009F0A2C0F70117FF98C06191719181914A
:101FD00091917F011F7697FF03C00E941D12106828
:101FE0002AE030E04E014FEF841A940AA4010E94C7
:101FF0009D11682E681816FFD2C0812F8E7F67143E
:1020000008F0CCC014FF1DC112FD11C11E7E972C1B
:10201000812F867809F4CEC00FC131E094CF3115FD
:1020200009F1F8E0EF0EF11C8FE3898391E0692E4E
:10203000712C4E018FEF881A980A1F7713FD04C088
:102040006016710408F43FC06114710409F042C0C5
:10205000011509F447CFB50180E290E00E945C11C0
:102060000150F6CF44E0E40EF11CDECFF701808191
:102070008983F2E0EF0EF11C81E0682E712C4E0195
:102080004FEF841A940AD9CFF701819091907F0184
:10209000672D70E016FD02C06FEF7FEFC4010E9454
:1020A00051113C01CACFF701819091907F01672DBA
:1020B00070E016FD02C06FEF7FEFC4010E94461171
:1020C0003C011068BBCFB50180E290E00E945C113A
:1020D0000150B6CFF40117FD859117FF81914F0193
:1020E000B50190E00E945C1181E0011101C080E027
:1020F000081BF1E06F1A7108A7CF61917191872FCA
:10210000880F880B982F65CF9537C9F41F7E1C87E1
:102110002AE030E0FC85F7FF3BC0F7016191719147
:10212000819191917F014E014FEF841A940AA4018D
:102130000E949D11682E68181C851F775CCF812F27
:10214000897F8C87903799F058F49835B9F09F368D
:10215000E1F0F501868197812C96EFE00C94441212
:102160009837B9F714FD06C020E130E0D3CF9C8545
:1021700090619C87EC85E460EC87F6CF14FF02C089
:1021800016601C8720E132E0C5CF28E030E0C2CFE6
:10219000F7016191719180E090E0C4CF182F962CE7
:1021A00014FF36CFFE01E60DF11D8081803309F06A
:1021B00041C0197E13FD0EC010FF4FC0762C901643
:1021C00018F4700E7918902E802F8919091508F4CB
:1021D00080E0980E901608F042C0091914FF41C023
:1021E000B50180E390E00E945C1112FF09C088E510
:1021F00090E011FD02C088E790E0B5010E945C11FB
:102200006714D0F14E018FEF881A980A6A94FE0184
:102210003296E60DF11D3F01F30182913F01B501B8
:1022200090E00E945C1168147904B1F711CF972CEB
:10223000182FB8CF12FD02C09394BCCF93949394FF
:10224000B9CF972C182FE4CEB50180E290E00E9420
:102250005C1183948016C0F3B7CF892CFBCF00E0CC
:10226000BDCF812F867861F280E211FD8BE217FDF0
:102270008DE2B50190E0C2CFB50180E390E00E940D
:102280005C117A94BDCF8FEF9FEF66CFFC01059074
:10229000615070400110D8F7809590958E0F9F1F68
:1022A0000895FC016150704001900110D8F78095AD
:1022B00090958E0F9F1F0895A3E0B0E0E2E6F1E154
:1022C0000C943412182F99836A837B83DB01139655
:1022D0008C9181FD09C01FEFBFEFB983812F9981D8
:1022E0002396E3E00C94501282FF1BC0EA81FB812D
:1022F00026813781848195812817390754F401900C
:10230000F081E02DCF010196AA81BB818D939D9331
:102310001083EA81FB81868197810196868397836A
:10232000DDCFAA81BB811896ED91FD911A97BD0171
:10233000812F0995892B69F3CECFFA01AA2728307E
:1023400051F1203181F1E8946F936E7F6E5F7F4F82
:102350008F4F9F4FAF4FB1E03ED0B4E03CD0670FFE
:10236000781F891F9A1FA11D680F791F8A1F911D51
:10237000A11D6A0F711D811D911DA11D20D009F4A1
:1023800068943F912AE0269F11243019305D3193E3
:10239000DEF6CF010895462F4770405D4193B3E0CC
:1023A0000FD0C9F7F6CF462F4F70405D4A3318F073
:1023B000495D31FD4052419302D0A9F7EACFB4E024
:1023C000A6959795879577956795BA95C9F70097DC
:1023D0006105710508959B01AC010A2E069457957D
:1023E000479537952795BA95C9F7620F731F841FD4
:1023F000951FA01D0895A1E21A2EAA1BBB1BFD016B
:102400000DC0AA1FBB1FEE1FFF1FA217B307E407D3
:10241000F50720F0A21BB30BE40BF50B661F771F2B
:10242000881F991F1A9469F760957095809590950B
:102430009B01AC01BD01CF010895909580957095E9
:1024400061957F4F8F4F9F4F08952F923F924F92EC
:102450005F926F927F928F929F92AF92BF92CF9234
:10246000DF92EF92FF920F931F93CF93DF93CDB73D
:10247000DEB7CA1BDB0B0FB6F894DEBF0FBECDBFB5
:1024800009942A88398848885F846E847D848C8486
:102490009B84AA84B984C884DF80EE80FD800C818F
:1024A0001B81AA81B981CE0FD11D0FB6F894DEBF72
:1024B0000FBECDBFED010895EE0FFF1F0590F49103
:0824C000E02D0994F894FFCF10
:1024C8000000000000000000000000000000000004
:1024D80000000000000000000000000000000000F4
:1024E80000000000000000000000000000000000E4
:1024F80000000000000000000000000000000000D4
:1025080000000000000000000000000000000000C3
:1025180000000000000000000000000000000000B3
:102528000000000000000000FF0000240200009DE1
:1025380004FFFFFFFFFFFFFFFF0000F301000000A3
:1025480000D1030000D103000002000000020000D7
:102558000000010401000000FFFF0000010000006E
:102568000000000000000000000000000100000062
:10257800D00700000100000000000000000000007B
:10258800000000000300FF0000DA0CDA0CFF0A2E3E
:102598002E2E2E2E2E2E2E2E2E2E2E2E2E2E0A00A5
:1025A8002E2E2E4F53205374617274732E2E2E0AC2
:1025B800007B01AC01BD08F9012006018F018A01E9
:1025C8009D0416020802240299029B020001E90AEE
:1025D8000000010201009B039D030001EB0A0000BB
:1025E80000010100A204A40450006E0C00000200C7
:1025F8000100C401010100003B0709071207EB06AF
:10260800980488068504B1069007290631065408FF
:102618007A078D08A707C608F60707092406570989
:10262800D007C909110A1808000000006C0E290D0E
:0A2638001D0E4A0EEF0D090EFB0DFA
:00000001FF
