:100000000C9454000C94640C0C948B0C0C947C0099
:100010000C947C000C947C000C947C000C947C0070
:100020000C947C000C94F90A0C947C000C947C00D9
:100030000C947C000C947C000C947C000C947C0050
:100040000C945E0B0C947C000C94000D0C942D0D04
:100050000C947C000C947C000C947C000C947C0030
:100060000C947C000C947C00010204081020408059
:1000700001020408102001020408102004040404F2
:100080000404040402020202020203030303030342
:1000900000000000250028002B00000000002400C4
:1000A00027002A005E0C530D11241FBECFEFD8E0AD
:1000B000DEBFCDBF12E0A0E0B1E0EAEDF3E202C0A6
:1000C00005900D92A839B107D9F725E0A8E9B2E06B
:1000D00001C01D92A93BB207E1F710E0C4E5D0E0F2
:1000E00004C02197FE010E94E511C235D107C9F76E
:1000F0000E944F0C0C94EB110C940000E2E10E9462
:1001000023010895E9E00E9423010895EAE00E9496
:1001100023010895E1E00E9423010895E3E00E9495
:1001200023010895E7E00E9423010895E5E00E947D
:1001300023010895E0E00E9423010895E2E00E9477
:1001400023010895E4E00E9423010895ECE00E9459
:1001500023010895E8E00E9423010895EEE00E9443
:1001600023010895E4E10E9423010895E0E10E9443
:1001700023010895E7E10E9423010895E6E00E942B
:1001800023010895EBE00E9423010895EDE00E9411
:1001900023010895EFE00E9423010895E1E10E9408
:1001A00023010895E3E10E9423010895E5E10E94FF
:1001B00023010895E6E10E942301089521968A9281
:1001C0009A92AA92BA92CA92DA92EA92FA920A930E
:1001D0001A932197E0916901F0916A010080F18101
:1001E000E02DC083D1830895C0916B01D0916C0143
:1001F000E881F981C081D181219619910991F99005
:10020000E990D990C990B990A99099908990219737
:1002100008952F903F90E7E6F1E0CDB7DEB7EDBF50
:10022000FEBF3F922F9208952F903F90CDBFDEBF2B
:100230003F922F920895E0E80E9423010895E0E4A0
:100240000E94230108952F923F924F925F926F92E6
:100250007F922FB62F92CF93DF937E2EF894E0916A
:100260000001EF5FE0930001E13011F40E94090109
:10027000E0E0E0937901E72DE07849F00E9458052D
:10028000F0917A01F17071F00E94F4030BC0E72D38
:10029000EC3140F4EE0FF0E0EA5AFD4F0190F081AE
:1002A000E02D0995F0917901EF2FE17059F0F2708E
:1002B00011F00E94DE008F938F2F0E9439038F91DF
:1002C0000E94F4002091000121502093000122237C
:1002D00011F40E941401DF91CF912F902FBE7F90D7
:1002E0006F905F904F903F902F900895FC01408158
:1002F000FB013081842F877090E0A0E0B0E0B695DC
:10030000A7959795879585559D4FFC012081F42FE2
:10031000F21B2F2F21704670242B832F877090E0C3
:10032000A0E0B0E0B695A7959795879585559D4F28
:10033000FC019081F32FF91B9F2F91703670932B46
:1003400041E050E0291708F040E0CA0108958F927B
:100350009F92AF92BF92EF92FF920F931F93CF9312
:10036000DF937C014A015B01B694A794979487942C
:10037000423051056105710580F08A01000F111F9F
:100380000E0D1F1DE401CC0FDD1FCE0DDF1DB801CA
:10039000CE010E947601892B59F4DF91CF911F91F4
:1003A0000F91FF90EF90BF90AF909F908F90089526
:1003B000F80190818181288139812083318398835C
:1003C0008983A401B501D0CF7F928F929F92AF9283
:1003D000BF92CF92DF92EF92FF920F931F93CF9332
:1003E000DF938C014A015B01FC017080640175019F
:1003F000CC0CDD1CEE1CFF1C7C141D041E041F0411
:1004000070F4DF91CF911F910F91FF90EF90DF90EB
:10041000CF90BF90AF909F908F907F900895C6012E
:10042000D7010196A11DB11D781619061A061B06E3
:1004300098F0BC01660F771F600F711FC601880F0F
:10044000991F800F911F0E947601092E000C000851
:10045000C80ED91EE01CF01CE601CC0FDD1FC00F3A
:10046000D11F880C991C800E911EBE01C4010E94F0
:100470007601892B31F2F4019081818128813981C3
:10048000208331839883898346015701AFCF409100
:10049000AF024F5F4093AF0250E060E070E0E82FA2
:1004A000EE0FFF0BE05EFD4F0190F081E02D238504
:1004B000E22FF0E0E555FD4F908191509083FA01D5
:1004C000EE0FFF1FE155FD4F9170220F922B90838D
:1004D00081838FEA92E00C94A7014091AF024F5FB5
:1004E0004093AF0250E060E070E0FA01EE0FFF1FB2
:1004F000E155FD4FA82FAA0FBB0BA65EBD4F0D9077
:10050000BC91A02D13969C91908381838FEA92E0F9
:100510000C94A701CF93DF9300D0CDB7DEB78091C5
:10052000AF029FEF980F9093AF029091B1029A8320
:100530009091B202998390E0880F991FFC01E155D8
:10054000FD4F808191818093B1029093B20241E08E
:1005500050E060E070E08FEA92E00E94E4018A815E
:1005600099810F900F90DF91CF910895809198021B
:10057000811115C040917101509172016091730118
:10058000709174014F3F54076407740751F081E084
:10059000423051056105710524F082E0089584E040
:1005A00008950895CF93DF93880F990BFC01E05EC7
:1005B000FD4F0190F081E02D0084F185E02D309712
:1005C000C9F02281211116C021E02283865E9D4F51
:1005D000EC01A881B98113968C9181839081E92FD8
:1005E000F0E0E555FD4F8081815080838170990F47
:1005F000892B8C93DF91CF910895CF93DF93880F50
:10060000990BFC01E05EFD4F0190F081E02D00842C
:10061000F185E02D309761F02281213049F412827A
:10062000865E9D4FEC01A881B981818113968C93E0
:10063000DF91CF9108958091750190917601A091FD
:100640007701B091780140917101509172016091F0
:10065000730170917401481759076A077B0741F0CD
:10066000E0916F01F091700121E024830C946D0200
:100670000895CF93DF93C0E0D0E0811589F0C09159
:100680006901D0916A01E0916D01F0916E01848160
:10069000833031F081E08483809171010E946D028A
:1006A000E0916F01F0917001E0936D01F0936E01A4
:1006B00080916B0190916C018093690190936A0124
:1006C00080917501309176012091770190917801A8
:1006D00080937101309372012093730190937401A0
:1006E00092E094830E94D202CE01DF91CF910895CF
:1006F000809171010E94FD02E0916D01F0916E0107
:100700008281811185E084830895CF93DF93282F20
:10071000220F330BF901E65EFD4FC081D1819A8132
:10072000205E3D4FD901ED91FD912485921780F413
:10073000911105C095E09C8391E090937A010E940D
:1007400047028A818F5F8A8380E0DF91CF9108958D
:1007500084E0FBCFE82FEE0FFF0BE65EFD4F01902C
:10076000F081E02D108211820C94F90BCF93DF936E
:1007700000D00F92CDB7DEB70E948A028983892FFD
:10078000592F550F550B9093750150937601509347
:10079000770150937801292F220F330BF901E65E80
:1007A000FD4F408151814A835B8340936F01509399
:1007B0007001205E3D4FF9012081318120936B0152
:1007C00030936C01FA019481953031F40E94AA03B0
:1007D0004981EA81FB81438310927A010F900F9047
:1007E0000F90DF91CF910895E0917501F09176011E
:1007F000EE0FFF1FE65EFD4F0190F081E02D80912E
:10080000B1029381981740F40E941B030E94B60323
:1008100083E080937901089580E0FBCF81E08093AD
:1008200079010C94B6030F931F93CF93DF93C1E02C
:1008300001C0CC0F8A95EAF71C2F20912402309139
:10084000250280911E0290911F021092AF02109219
:10085000690110926A0120936B0130936C01109230
:100860006D0110926E0180936F0190937001AFEF54
:10087000BFEFCD018093710190937201A09373013A
:10088000B09374018093750190937601A0937701E2
:10089000B09378011092790110927A0182E00E945F
:1008A0008503809153028C2319F080E00E94850318
:1008B000809154028C2319F081E00E94850380E02E
:1008C00090E020915202C12FC22300910F0210919B
:1008D0001002D1E0892B29F0DF91CF911F910F9168
:1008E0000895C115C9F3F801D687C8010E94A5046F
:1008F00081E090E0EFCF0E943B0681110E945B06F1
:10090000E0916D01F0916E0180819181892B21F040
:10091000809171010E942F080C9486070E943B066B
:1009200081110E945B06E0916D01F0916E01808162
:100930009181892B21F0809171010E942F080C94E4
:100940006B0781E0809399020895CF92DF92EF9236
:10095000FF920F931F93CF93DF93FC01A081B1818E
:100960000D90BC91A02D54962D913D915697211537
:10097000310509F441C0428553856485758500E0E1
:1009800010E0E901CA84DB84EC84FD844C155D052C
:100990006E057F0508F042C0C901828393830483FA
:1009A0001583009719F0EC01EC83FD830115110507
:1009B000F1F1E801EA83FB835696CD91DD910A853A
:1009C0001B852C853D851897CD90DD90ED90FD9091
:1009D00054970C151D052E053F0570F5C416D50658
:1009E000E606F70628F0401751076207730768F418
:1009F0005696ED93FD9309C054968D93FD938D9378
:100A0000FD931482158212821382DF91CF911F9180
:100A10000F91FF90EF90DF90CF900895E9018A81C8
:100A20009B818901009709F4B8CF9C01AACF549605
:100A3000ED93FD935697C0CFC416D506E606F7068C
:100A400020F7D1CFCF93DF93DC01ED91FD91129789
:100A50000190F081E02D12960D90BC91A02D24897B
:100A600035892817390711F4A48BB58B2689378966
:100A70002817390719F4A68BB78B9D01109739F009
:100A8000EC014C815D8114964D935D931697EC01BA
:100A90008C819D81009719F0EC01AA83BB83232BE5
:100AA00021F484899589868B978BDF91CF91089566
:100AB000EF92FF920F931F93CF93DF93EC018091FE
:100AC0009902811509F4A7C08C859D85AE85BF85E7
:100AD0000196A11DB11D8C879D87AE87BF87488178
:100AE00059816A817B8184179507A607B70709F0AA
:100AF00092C088899989AA89BB890196A11DB11DD7
:100B00004C815D816E817F81481759076A077B0799
:100B100018F4A0E0B0E0CD01888B998BAA8BBB8B39
:100B20001C861D861E861F860E891F8901151105CC
:100B300009F471C0F80142855385648575854817AD
:100B400059076A077B0709F066C09F010280F3819D
:100B5000E02D309749F0428553856485758584176B
:100B60009507A607B70789F3D80114968D919D9133
:100B7000009721F0DC011296ED93FD93309711F070
:100B8000848395838C899D890817190711F4EC8B50
:100B9000FD8B309711F4EC89FD89EE8BFF8BF90109
:100BA000128213827801D80112960D911D9114972B
:100BB000ED91FD910280F381E02DC7010995F701C8
:100BC00086819781A085B18510979040804051F132
:100BD0004285538564857585840F951FA61FB71FB1
:100BE0004C815D816E817F81481759076A077B07B9
:100BF00038F4841B950BA60BB70B0197A109B1091B
:100C0000F70182879387A487B587C7010E94A5044F
:100C10000115110539F6DF91CF911F910F91FF90CA
:100C2000EF900895D7011E961C92F2CFFC018281AD
:100C30000C9485030E943B0680916801089580937F
:100C400068010E9413040E94A1040C940E040C94E9
:100C5000F80BCF93DF930F92CDB7DEB789830E9455
:100C6000B602811102C00E94450C89810F90DF916C
:100C7000CF910C9482002091A6022130D1F04091B6
:100C80009E0250919F026091A0027091A1028091FA
:100C9000A2029091A302A091A402B091A502842B7C
:100CA000952BA62BB72B21E0892B8A2B8B2B09F4B4
:100CB00020E0822F08951092A6021092A2021092B4
:100CC000A3021092A4021092A50210929E0210920A
:100CD0009F021092A0021092A10280919A0290911C
:100CE0009B02A0919C02B0919D028093A7029093D9
:100CF000A802A093A902B093AA0208950E94480CEA
:100D00008091A7029091A802A091A902B091AA0295
:100D10000196A11DB11D8093A7029093A802A093F4
:100D2000A902B093AA028091A2029091A302A0917D
:100D3000A402B091A5020196A11DB11D8093A2024B
:100D40009093A302A093A402B093A502089580916A
:100D5000A2029091A302A091A402B091A5021097C3
:100D60009040804069F14091A7025091A8026091A3
:100D7000A9027091AA024150510961097109409379
:100D8000A7025093A8026093A9027093AA02019748
:100D9000A109B1098093A2029093A302A093A40297
:100DA000B093A5028091A7029091A802A091A902F8
:100DB000B091AA02892B8A2B8B2B11F40C94460C30
:100DC00008958091A2029091A302A091A402B091F3
:100DD000A50240919E0250919F026091A0027091E5
:100DE000A102842B952BA62BB72B892B8A2B8B2B1F
:100DF00029F40E94480C81E08093A6020895809116
:100E0000A602811521F01092A6020C94460C0895BA
:100E10000E944C0C8091A7029091A802A091A90277
:100E2000B091AA020196A11DB11D8093A7029093D3
:100E3000A802A093A902B093AA0280919E02909169
:100E40009F02A091A002B091A1020196A11DB11D27
:100E500080939E0290939F02A093A002B093A10260
:100E6000089580919E0290919F02A091A002B0915E
:100E7000A10210979040804069F14091A7025091E3
:100E8000A8026091A9027091AA024150510961091A
:100E900071094093A7025093A8026093A90270932E
:100EA000AA020197A109B10980939E0290939F0223
:100EB000A093A002B093A1028091A7029091A802F2
:100EC000A091A902B091AA02892B8A2B8B2B11F435
:100ED0000C944A0C08950E943B06811183E1089509
:100EE000CF93DF930F92CDB7DEB789830E943B0685
:100EF00089810E948503898380917A0181110E94F2
:100F0000F40389810F90DF91CF910895CF930E94D0
:100F10003B06C82F8111C3E1E0916D01F0916E0194
:100F20008281815082830E94780381E080937901DD
:100F30000E94B6038C2FCF910895CF93DF930F9229
:100F4000CDB7DEB789830E943B06E0916D01F09139
:100F50006E0182818150828389810E948503898309
:100F600081110CC00E94780381E0809379010E9476
:100F7000B60389810F90DF91CF910895E0916D01C3
:100F8000F0916E0182818F5F8283F3CFCF930E94B5
:100F90003B06C82F8111C3E1809171010E94FD02BF
:100FA0000E94F4038091710190917201A0917301EC
:100FB000B091740140917501509176016091770173
:100FC0007091780184179507A607B70711F40E945E
:100FD000D2028C2FCF910895CF93DF9300D0CDB75D
:100FE000DEB789839A830E943B06811183E1409199
:100FF00071015091720160917301709174014230DE
:1010000051056105710514F04091CD01E981FA8126
:1010100040830F900F90DF91CF910895CF93DF938E
:1010200000D00F92CDB7DEB789836A837B830E949D
:101030003B06811183E19981E92FEE0FFF0BE65EFC
:10104000FD4F0190F081E02D94819370EA81FB8146
:1010500090830F900F900F90DF91CF910895E82F1C
:10106000EE0FFF0BE65EFD4FA081B181ED91FD918A
:101070001297309771F01D921D928091CD01DF0182
:101080000380F481E02D12968D931D921D9230976E
:10109000B1F70895CF93DF930F92CDB7DEB7898371
:1010A0000E943B06811183E19981E92FF0E0EE0F68
:1010B000FF1FE05BFD4F0190F081E02D90917101E9
:1010C0009283A0916D01B0916E012D913D9123838A
:1010D0003483FE93EE9313962C9113972183908182
:1010E0002695291760F4E92FF0E0E555FD4F2081A2
:1010F00021502083990F2170922B13969C930F906F
:10110000DF91CF910895CF93DF9300D0CDB7DEB7B5
:1011100089830E943B068A83811511F083E18A83CB
:101120008981E82FF0E0EE0FFF1FE05BFD4F01909B
:10113000F081E02DA0916D01B0916E018181139637
:101140008C931397838194818D939D931382148242
:101150008091CD0182830E94F4038A810F900F90C9
:10116000DF91CF910895DC01ED91FD91848195810E
:10117000DC01ED91FD910994CF93DF9300D00F92A4
:10118000CDB7DEB789836A837B830E943B068111DA
:1011900083E19981E92FF0E0EE0FFF1FE15FFD4F42
:1011A0000190F081E02D0190F081E02D0190F0811F
:1011B000E02D4081518162817381AA81BB811496A7
:1011C0004D935D936D937D9318974481558166810E
:1011D00077814D935D936D937D93149740855185F1
:1011E00062857385FD0140875187628773870F9001
:1011F0000F900F90DF91CF910895CF92DF92EF92F1
:10120000FF920F931F93CF93DF9300D0CDB7DEB73C
:10121000182F69837A830E943B06811183E1E12FB5
:10122000F0E0EE0FFF1FE15FFD4F0190F081E02D38
:101230009685913081F54285538564857585019049
:10124000F081E02D0190F081E02D00891189228943
:101250003389401751076207730740F4C480D58073
:10126000E680F7804C0D5D1D6E1D7F1D401B510BF0
:10127000620B730BE981FA8140835183628373832C
:101280000F900F90DF91CF911F910F91FF90EF90F2
:10129000DF90CF90089585E0F3CFAF92BF92CF92C9
:1012A000DF92EF92FF920F931F93CF93DF9300D0C3
:1012B00000D000D0CDB7DEB789834A835B836C83CF
:1012C0007D83780189010E943B068E83811511F090
:1012D00083E18E83A980EA2DF0E0EE0FFF1FE15F2E
:1012E000FD4F0190F081E02D8685811145C0A081E0
:1012F000B1810D90BC91A02D50964D915D916D9155
:101300007D915497AA80BB80CC80DD804A0D5B1D07
:101310006C1D7D1D14968D919D910D90BC91A02DFD
:1013200084179507A607B70740F4481B590B6A0BAB
:101330007B0B4150510961097109428753876487CA
:101340007587E682F7820087118781E08687CF0163
:101350000E94A5048E810F900F900F900F900F9018
:101360000F90DF91CF911F910F91FF90EF90DF9041
:10137000CF90BF90AF90089587E08E83EBCFEF9230
:10138000FF920F931F93CF93DF9300D000D000D034
:10139000CDB7DEB789834A835B836C837D83780115
:1013A00089010E943B068E83811511F083E18E83B3
:1013B0009981E92FF0E0EE0FFF1FE15FFD4F0190F3
:1013C000F081E02D868581111FC08A819B81AC81CF
:1013D000BD8182879387A487B587E682F7820087DD
:1013E000118781E08687CF010E94A5048E810F902E
:1013F0000F900F900F900F900F90DF91CF911F9152
:101400000F91FF90EF90089597E09E83EFCF0F9399
:101410001F93CF93182F0E943B06C82F8111C3E161
:10142000E12FF0E0EE0FFF1FE15FFD4F0081118122
:10143000F8018685813051F4C8010E942205F80127
:1014400016868C2FCF911F910F910895C5E0F9CF8B
:101450008F929F92AF92BF92CF92DF92EF92FF92C4
:10146000CF93DF9300D000D0CDB7DEB769837A8306
:101470008B839C830E94B60B6B017C010E94B60B90
:1014800069817A818B819C8124E130E040E050E0E9
:101490000E94841129833A834B835C83A12CB12C55
:1014A000450189819A81AB81BC8188169906AA067B
:1014B000BB0679F40F900F900F900F90DF91CF91B2
:1014C000FF90EF90DF90CF90BF90AF909F908F9064
:1014D00008950E94B60B6C197D098E099F0964312D
:1014E000710581059105A8F38FEF881A980AA80A5B
:1014F000B80A0E94B60B6B017C01D3CFCF93DF9368
:10150000CDB7DEB7C054D1090FB6F894DEBF0FBE19
:10151000CDBF9E012B5B3F4FF901419151919F013E
:1015200060E470E0CE0101960E94BD0EBE016F5FC7
:101530007F4F8CE195E00E94FE0CC05CDF4F0FB640
:10154000F894DEBF0FBECDBFDF91CF91089510920A
:10155000B0001092B2008CE08093B10089EF8093CC
:10156000B300E0E7F0E080818160808378940895A3
:1015700061E08DE00E94240B26E040E052EC61E047
:1015800070E08CE195E00E94400E8EEC91E09F931C
:101590008F930E947E0A80EE91E09F938F930E942A
:1015A0007E0A8FEC91E09F938F930E947E0A0F90AA
:1015B0000F900F900F900F900F900C94A70A0C941F
:1015C000AA0081EF91E09F938F930E947E0A68EBBF
:1015D0007BE080E090E00E94280A8FEF91E09F93EB
:1015E0008F930E947E0A0F900F900F900F900C9493
:1015F000AA001F920F920FB60F9211242F933F93C0
:101600004F935F936F937F938F939F93AF93BF930A
:10161000EF93FF938CEA91E00E941B01FF91EF9101
:10162000BF91AF919F918F917F916F915F914F91FA
:101630003F912F910F900FBE0F901F90189584E946
:1016400091E00C941B010895CF93DF9390E0FC018F
:10165000E859FF4F249184589F4FFC0184918115D4
:10166000C9F090E0880F991FFC01E656FF4FA59145
:10167000B591FC01E057FF4FC591D5919FB761111E
:101680000CC0F8948C91209582238C938881282318
:1016900028839FBFDF91CF910895623051F4F89471
:1016A0003C91822F809583238C938881822B888321
:1016B000F0CFF8948C91822B8C93EBCF1F920F92EA
:1016C0000FB60F9211242F933F934F935F936F9315
:1016D0007F938F939F93AF93BF93EF93FF938091EB
:1016E000130590911405A0911505B0911605309140
:1016F000120523E0230F2D3798F50196A11DB11D8A
:10170000209312058093130590931405A09315055B
:10171000B09316058091170590911805A0911905B1
:10172000B0911A050196A11DB11D809317059093E4
:101730001805A0931905B0931A050E941F0BFF917D
:10174000EF91BF91AF919F918F917F916F915F9139
:101750004F913F912F910F900FBE0F901F901895B2
:1017600026E8230F0296A11DB11DCACF2FB7F8940A
:1017700060911305709114058091150590911605DF
:101780002FBF089584B5826084BD84B5816084BD17
:1017900085B5826085BD85B5816085BDEEE6F0E0EA
:1017A000808181608083E1E8108280818260808313
:1017B000808181608083E0E8808181608083E1EBCB
:1017C000808184608083E0EB808181608083EAE7B0
:1017D0008081846080838081826080838081816059
:1017E00080838081806880831092C1000895FFCF3C
:1017F000FFCFCF93DF93E82FEE0FFF0BE05EFD4F9F
:10180000A081B18114968D919D9101971497ED91CE
:10181000FD91E80FF91F19968C911D97823079F58B
:1018200082EA90E0892F22EA30E020839F01215054
:101830003109E901888316963D912C911797CF01C4
:101840000297EC0138830197EC012883069726E084
:10185000EC0119922A95E9F7019720E8EC01288319
:101860000C972CE0EC0119922A95E9F70D90BC91A8
:10187000A02D7797ED93FD93DF91CF9108958EEB97
:1018800090E0892F2EEB30E0D0CF08957894089522
:10189000F894089578940895F894089508950E940E
:1018A000C20B0E944E0C0E94230B0E94B80A80912A
:1018B0001B050E94290680E090E008958091550262
:1018C00080931B05089508951F920F920FB60F92F3
:1018D00011242F933F934F935F936F937F938F9335
:1018E0009F93AF93BF93EF93FF93E091C901F09162
:1018F000CA010995FF91EF91BF91AF919F918F918F
:101900007F916F915F914F913F912F910F900FBEFB
:101910000F901F9018951F920F920FB60F921124DF
:101920002F933F934F935F936F937F938F939F93E7
:10193000AF93BF93EF93FF93E091CB01F091CC0174
:101940000995FF91EF91BF91AF919F918F917F91F9
:101950006F915F914F913F912F910F900FBE0F901C
:101960001F9018950F931F93CF93DF9300D000D053
:1019700000D0CDB7DEB789839A834B835C836D83B8
:101980007E8300E010E0AB81BC810A171B0761F485
:10199000C8010F900F900F900F900F900F90DF9154
:1019A000CF911F910F910895A981BA81ED91FD9179
:1019B0000190F081E02DAD81BE816C9189819A8189
:1019C0000995892B29F38D819E8101968D839E83B4
:1019D0000F5F1F4FD8CFDC016115710561F0ED91EC
:1019E000FD91129722813381CB010E94B40EAC018C
:1019F000CD01F901099480E090E008950C94EB0C7E
:101A00002F932FB72F938F939F93EF93FF93E09193
:101A10002C05F0912D058081E0913205F091330580
:101A200082FD19C09081809135058F5F8F73209161
:101A30003605821741F0E0913505F0E0E45EFA4F9B
:101A4000958F80933505FF91EF919F918F912F9105
:101A50002FBF2F9118958081F6CF1F920F920FB64E
:101A60000F9211242F933F934F935F936F937F9324
:101A70008F939F93AF93BF93EF93FF938CE195E088
:101A80000E94B30DFF91EF91BF91AF919F918F9104
:101A90007F916F915F914F913F912F910F900FBE6A
:101AA0000F901F901895ECE1F5E01282138288EEFA
:101AB00093E084839583168217828AE892E080837C
:101AC000918385EC8487158684EC8687178680EC65
:101AD000808B118A81EC828B138A82EC848B158A2D
:101AE00086EC868B178A118E128E138E148E0895B3
:101AF000FC01918D228D892F90E0805C9F4F821B8D
:101B000091098F7390E00895FC01918D828D981753
:101B100031F0828DE80FF11D858D90E008958FEFF3
:101B20009FEF0895FC01918D828D981761F0A28D31
:101B3000AE0FBF2FB11D5D968C91928D9F5F9F73ED
:101B4000928F90E008958FEF9FEF0895FC01238D11
:101B5000348D832F90E0821B9109231710F0CF96CC
:101B6000089501970895FC01A48DA80FB92FB11D08
:101B7000A35ABF4F2C91848D01968F73848FA689B1
:101B8000B7892C93A089B1898C91837080648C93E0
:101B9000938D848D981306C00288F389E02D80818F
:101BA0008F7D80830895CF93DF93EC01888D811121
:101BB00011C0DF91CF9108950FB607FC0DC0808151
:101BC00085FF0AC0A889B9898C9185FF05C0CE011F
:101BD0000E94B30DEA89FB89808185FDEDCFA8893C
:101BE000B9898C9186FFE8CFE4CFEF92FF920F93F3
:101BF0001F93CF93DF93EC01F62E81E0888F9B8DAE
:101C00008C8D98131AC0E889F989808185FF15C0E9
:101C10009FB7F894EE89FF896083E889F98980810C
:101C20008370806480839FBF81E090E0DF91CF91DB
:101C30001F910F91FF90EF9008950B8D0F5F1F4F35
:101C40000F73E02E8C8D8E1579F0EB8DEC0FFD2F40
:101C5000F11DE35AFF4FF0829FB7F8940B8FEA898A
:101C6000FB8980818062DECF0FB607FCEBCFE8896D
:101C7000F989808185FFE6CFCE010E94B30DE2CFC6
:101C8000CF92DF92EF92FF92CF93DF9300D00F922B
:101C9000CDB7DEB78A839B836A017B012983DC0190
:101CA0005096ED91FD9182E08083C114B1EEDB0688
:101CB000E104F10491F060E079E08DE390E09A01B5
:101CC000A7010E94841121503109410951095695FB
:101CD0004795379527953031B0F0AA81BB81509652
:101CE000ED91FD91108260E874E88EE190E096013C
:101CF000A7010E94841121503109410951095695CB
:101D0000479537952795AA81BB811C96ED91FD914A
:101D10003083ED91FD91208318961C921497ED91DC
:101D2000FD91B981B083AA81BB815296ED91FD915D
:101D3000808180618083FE91EE91808188608083C4
:101D4000ED91FD91808180688083FE91EE9180818C
:101D50008F7D80830F900F900F90DF91CF91FF9038
:101D6000EF90DF90CF900895FC0101900020E9F7FB
:101D7000809590958E0F9F1F0895AEE0B0E0E3EC44
:101D8000FEE00C94BC118C01CA0146E04C8309832F
:101D90001A83FB016130704810F0E0E0F0E8319701
:101DA000ED83FE83A901BC01CE0101960E94EA0EDB
:101DB0004D815E8157FD0AC02F8138854217530738
:101DC0000CF49A01020F131FF80110822E96E4E022
:101DD0000C94D811ACE0B0E0E0EFFEE00C94B1114F
:101DE0005C016B017A01FC0116821782838181FFFD
:101DF000D3C12AE0522EF5012381F60123FD8591FE
:101E000023FF81916F01811509F42CC1853239F4CA
:101E100023FD959123FF91916F01953229F4B5012E
:101E200090E00E94E510E7CF30E0712C00E010E078
:101E3000103210F59B32C9F050F49032B9F0933261
:101E4000C9F09E3261F516FD0DC1106405C09D32CA
:101E500079F0903399F41160F60123FD959123FFF9
:101E600091916F019111E4CF23C012601460F4CFFF
:101E70001860F2CF1061F0CF17FD1AC080ED890F06
:101E80008A30F8F616FF05C0759C800D1124782E57
:101E9000E3CF059D800D1124082F1062DDCF9C3605
:101EA00011F41068D9CF9C3409F440C09836A1F2DF
:101EB000892F8F7D85548330D8F1933609F45FC024
:101EC000933709F46AC0933509F476C0943619F053
:101ED000993609F0A2C0F70117FF98C0619171917E
:101EE000819191917F011F7697FF03C00E94A611F7
:101EF00010682AE030E04E014FEF841A940AA401E2
:101F00000E942611682E681816FFD2C0812F8E7F7E
:101F1000671408F0CCC014FF1DC112FD11C11E7E54
:101F2000972C812F867809F4CEC00FC131E094CF71
:101F3000311509F1F8E0EF0EF11C8FE3898391E090
:101F4000692E712C4E018FEF881A980A1F7713FDA6
:101F500004C06016710408F43FC06114710409F0F4
:101F600042C0011509F447CFB50180E290E00E941C
:101F7000E5100150F6CF44E0E40EF11CDECFF7018E
:101F800080818983F2E0EF0EF11C81E0682E712CD4
:101F90004E014FEF841A940AD9CFF70181909190A6
:101FA0007F01672D70E016FD02C06FEF7FEFC40167
:101FB0000E94DA103C01CACFF701819091907F0115
:101FC000672D70E016FD02C06FEF7FEFC4010E9425
:101FD000CF103C011068BBCFB50180E290E00E94B9
:101FE000E5100150B6CFF40117FD859117FF8191DF
:101FF0004F01B50190E00E94E51081E0011101C0A0
:1020000080E0081BF1E06F1A7108A7CF6191719110
:10201000872F880F880B982F65CF9537C9F41F7EBF
:102020001C872AE030E0FC85F7FF3BC0F701619197
:102030007191819191917F014E014FEF841A940A21
:10204000A4010E942611682E68181C851F775CCF9A
:10205000812F897F8C87903799F058F49835B9F0A3
:102060009F36E1F0F501868197812C96EFE00C9484
:10207000CD119837B9F714FD06C020E130E0D3CF79
:102080009C8590619C87EC85E460EC87F6CF14FF1B
:1020900002C016601C8720E132E0C5CF28E030E0A6
:1020A000C2CFF7016191719180E090E0C4CF182F09
:1020B000962C14FF36CFFE01E60DF11D8081803392
:1020C00009F041C0197E13FD0EC010FF4FC0762CE1
:1020D000901618F4700E7918902E802F8919091512
:1020E00008F480E0980E901608F042C0091914FF19
:1020F00041C0B50180E390E00E94E51012FF09C0E5
:1021000088E590E011FD02C088E790E0B5010E94EB
:10211000E5106714D0F14E018FEF881A980A6A947F
:10212000FE013296E60DF11D3F01F30182913F0160
:10213000B50190E00E94E51068147904B1F711CF61
:10214000972C182FB8CF12FD02C09394BCCF939454
:102150009394B9CF972C182FE4CEB50180E290E08C
:102160000E94E51083948016C0F3B7CF892CFBCF73
:1021700000E0BDCF812F867861F280E211FD8BE215
:1021800017FD8DE2B50190E0C2CFB50180E390E08C
:102190000E94E5107A94BDCF8FEF9FEF66CFFC01D0
:1021A0000590615070400110D8F7809590958E0F82
:1021B0009F1F0895FC016150704001900110D8F7F5
:1021C000809590958E0F9F1F0895A3E0B0E0EBEEF1
:1021D000F0E10C94BD11182F99836A837B83DB0196
:1021E00013968C9181FD09C01FEFBFEFB983812F3A
:1021F00099812396E3E00C94D91182FF1BC0EA81F8
:10220000FB8126813781848195812817390754F411
:102210000190F081E02DCF010196AA81BB818D93C1
:102220009D931083EA81FB81868197810196868345
:102230009783DDCFAA81BB811896ED91FD911A9706
:10224000BD01812F0995892B69F3CECFFA01AA2709
:10225000283051F1203181F1E8946F936E7F6E5FE9
:102260007F4F8F4F9F4FAF4FB1E03ED0B4E03CD097
:10227000670F781F891F9A1FA11D680F791F8A1F7A
:10228000911DA11D6A0F711D811D911DA11D20D0E1
:1022900009F468943F912AE0269F11243019305D9B
:1022A0003193DEF6CF010895462F4770405D41938C
:1022B000B3E00FD0C9F7F6CF462F4F70405D4A33D9
:1022C00018F0495D31FD4052419302D0A9F7EACFA1
:1022D000B4E0A6959795879577956795BA95C9F7D0
:1022E00000976105710508959B01AC010A2E0694C3
:1022F0005795479537952795BA95C9F7620F731F7C
:10230000841F951FA01D0895A1E21A2EAA1BBB1BB6
:10231000FD010DC0AA1FBB1FEE1FFF1FA217B307B1
:10232000E407F50720F0A21BB30BE40BF50B661FC7
:10233000771F881F991F1A9469F76095709580958B
:1023400090959B01AC01BD01CF01089590958095BA
:10235000709561957F4F8F4F9F4F08952F923F92B9
:102360004F925F926F927F928F929F92AF92BF92A5
:10237000CF92DF92EF92FF920F931F93CF93DF9351
:10238000CDB7DEB7CA1BDB0B0FB6F894DEBF0FBEAE
:10239000CDBF09942A88398848885F846E847D84FB
:1023A0008C849B84AA84B984C884DF80EE80FD80FD
:1023B0000C811B81AA81B981CE0FD11D0FB6F89473
:1023C000DEBF0FBECDBFED010895EE0FFF1F0590DC
:0A23D000F491E02D0994F894FFCF7A
:1023DA0000000000000000000000000000000000F3
:1023EA0000000000000000000000000000000000E3
:1023FA0000000000000000000000000000000000D3
:10240A0000000000000000000000000000000000C2
:10241A0000000000000000000000000000000000B2
:10242A0000000000000000000000000000000000A2
:10243A000000000000000000FF000042020000BB94
:10244A0004FFFFFFFFFFFFFFFF0000110200000073
:10245A0000D1030000D103000002000000020000C6
:10246A000000010401000000FFFF0000010000005D
:10247A000000000000000000000000000100000051
:10248A00D00700000100000000000000000000006A
:10249A00000000000300FF0000630C630CFF0A2E1B
:1024AA002E2E2E2E2E2E2E2E2E2E2E2E2E2E0A0094
:1024BA002E2E2E4F53205374617274732E2E2E0AB1
:1024CA000048656C6C6F20776F726C64210A004754
:1024DA006F6F6462796520776F726C64210A007B82
:1024EA0001AC01B30817021606018F018A01BB0469
:1024FA00340226024202B702B9020001DF0A0000D2
:10250A0001020100B903BB030001E10A0000000156
:10251A000100C004C2045000F70B000002000100D1
:10252A00C401010100003107FF060807E1068E0415
:10253A007E067B04A70686071F0627064A08700739
:10254A0083089D07BC08EC07FD081A064D09C60753
:10255A00BF09070A0E0800000000F50DB20CA60D0F
:08256A00D30D780D920D840DD4
:00000001FF
